{
  "_format": "hh-sol-artifact-1",
  "contractName": "College",
  "sourceName": "contracts/College.sol",
  "abi": [
    {
      "inputs": [],
      "stateMutability": "nonpayable",
      "type": "constructor"
    },
    {
      "anonymous": false,
      "inputs": [
        {
          "indexed": true,
          "internalType": "address",
          "name": "account",
          "type": "address"
        },
        {
          "indexed": true,
          "internalType": "address",
          "name": "operator",
          "type": "address"
        },
        {
          "indexed": false,
          "internalType": "bool",
          "name": "approved",
          "type": "bool"
        }
      ],
      "name": "ApprovalForAll",
      "type": "event"
    },
    {
      "anonymous": false,
      "inputs": [
        {
          "indexed": true,
          "internalType": "address",
          "name": "previousOwner",
          "type": "address"
        },
        {
          "indexed": true,
          "internalType": "address",
          "name": "newOwner",
          "type": "address"
        }
      ],
      "name": "OwnershipTransferred",
      "type": "event"
    },
    {
      "anonymous": false,
      "inputs": [
        {
          "indexed": true,
          "internalType": "address",
          "name": "operator",
          "type": "address"
        },
        {
          "indexed": true,
          "internalType": "address",
          "name": "from",
          "type": "address"
        },
        {
          "indexed": true,
          "internalType": "address",
          "name": "to",
          "type": "address"
        },
        {
          "indexed": false,
          "internalType": "uint256[]",
          "name": "ids",
          "type": "uint256[]"
        },
        {
          "indexed": false,
          "internalType": "uint256[]",
          "name": "values",
          "type": "uint256[]"
        }
      ],
      "name": "TransferBatch",
      "type": "event"
    },
    {
      "anonymous": false,
      "inputs": [
        {
          "indexed": true,
          "internalType": "address",
          "name": "operator",
          "type": "address"
        },
        {
          "indexed": true,
          "internalType": "address",
          "name": "from",
          "type": "address"
        },
        {
          "indexed": true,
          "internalType": "address",
          "name": "to",
          "type": "address"
        },
        {
          "indexed": false,
          "internalType": "uint256",
          "name": "id",
          "type": "uint256"
        },
        {
          "indexed": false,
          "internalType": "uint256",
          "name": "value",
          "type": "uint256"
        }
      ],
      "name": "TransferSingle",
      "type": "event"
    },
    {
      "anonymous": false,
      "inputs": [
        {
          "indexed": false,
          "internalType": "string",
          "name": "value",
          "type": "string"
        },
        {
          "indexed": true,
          "internalType": "uint256",
          "name": "id",
          "type": "uint256"
        }
      ],
      "name": "URI",
      "type": "event"
    },
    {
      "inputs": [],
      "name": "AMV_COA",
      "outputs": [
        {
          "internalType": "uint256",
          "name": "",
          "type": "uint256"
        }
      ],
      "stateMutability": "view",
      "type": "function"
    },
    {
      "inputs": [],
      "name": "Architecture",
      "outputs": [
        {
          "internalType": "uint256",
          "name": "",
          "type": "uint256"
        }
      ],
      "stateMutability": "view",
      "type": "function"
    },
    {
      "inputs": [],
      "name": "Arts_and_Letters",
      "outputs": [
        {
          "internalType": "uint256",
          "name": "",
          "type": "uint256"
        }
      ],
      "stateMutability": "view",
      "type": "function"
    },
    {
      "inputs": [],
      "name": "CBA",
      "outputs": [
        {
          "internalType": "uint256",
          "name": "",
          "type": "uint256"
        }
      ],
      "stateMutability": "view",
      "type": "function"
    },
    {
      "inputs": [],
      "name": "CFAD",
      "outputs": [
        {
          "internalType": "uint256",
          "name": "",
          "type": "uint256"
        }
      ],
      "stateMutability": "view",
      "type": "function"
    },
    {
      "inputs": [],
      "name": "CICS",
      "outputs": [
        {
          "internalType": "uint256",
          "name": "",
          "type": "uint256"
        }
      ],
      "stateMutability": "view",
      "type": "function"
    },
    {
      "inputs": [],
      "name": "CRS",
      "outputs": [
        {
          "internalType": "uint256",
          "name": "",
          "type": "uint256"
        }
      ],
      "stateMutability": "view",
      "type": "function"
    },
    {
      "inputs": [],
      "name": "CTHM",
      "outputs": [
        {
          "internalType": "uint256",
          "name": "",
          "type": "uint256"
        }
      ],
      "stateMutability": "view",
      "type": "function"
    },
    {
      "inputs": [],
      "name": "Civil_Law",
      "outputs": [
        {
          "internalType": "uint256",
          "name": "",
          "type": "uint256"
        }
      ],
      "stateMutability": "view",
      "type": "function"
    },
    {
      "inputs": [],
      "name": "CoE",
      "outputs": [
        {
          "internalType": "uint256",
          "name": "",
          "type": "uint256"
        }
      ],
      "stateMutability": "view",
      "type": "function"
    },
    {
      "inputs": [],
      "name": "CoS",
      "outputs": [
        {
          "internalType": "uint256",
          "name": "",
          "type": "uint256"
        }
      ],
      "stateMutability": "view",
      "type": "function"
    },
    {
      "inputs": [],
      "name": "FoE",
      "outputs": [
        {
          "internalType": "uint256",
          "name": "",
          "type": "uint256"
        }
      ],
      "stateMutability": "view",
      "type": "function"
    },
    {
      "inputs": [],
      "name": "FoP",
      "outputs": [
        {
          "internalType": "uint256",
          "name": "",
          "type": "uint256"
        }
      ],
      "stateMutability": "view",
      "type": "function"
    },
    {
      "inputs": [],
      "name": "IPEA",
      "outputs": [
        {
          "internalType": "uint256",
          "name": "",
          "type": "uint256"
        }
      ],
      "stateMutability": "view",
      "type": "function"
    },
    {
      "inputs": [],
      "name": "Medicine_and_Surgery",
      "outputs": [
        {
          "internalType": "uint256",
          "name": "",
          "type": "uint256"
        }
      ],
      "stateMutability": "view",
      "type": "function"
    },
    {
      "inputs": [],
      "name": "Music",
      "outputs": [
        {
          "internalType": "uint256",
          "name": "",
          "type": "uint256"
        }
      ],
      "stateMutability": "view",
      "type": "function"
    },
    {
      "inputs": [],
      "name": "Nursing",
      "outputs": [
        {
          "internalType": "uint256",
          "name": "",
          "type": "uint256"
        }
      ],
      "stateMutability": "view",
      "type": "function"
    },
    {
      "inputs": [
        {
          "internalType": "address",
          "name": "account",
          "type": "address"
        },
        {
          "internalType": "uint256",
          "name": "id",
          "type": "uint256"
        }
      ],
      "name": "balanceOf",
      "outputs": [
        {
          "internalType": "uint256",
          "name": "",
          "type": "uint256"
        }
      ],
      "stateMutability": "view",
      "type": "function"
    },
    {
      "inputs": [
        {
          "internalType": "address[]",
          "name": "accounts",
          "type": "address[]"
        },
        {
          "internalType": "uint256[]",
          "name": "ids",
          "type": "uint256[]"
        }
      ],
      "name": "balanceOfBatch",
      "outputs": [
        {
          "internalType": "uint256[]",
          "name": "",
          "type": "uint256[]"
        }
      ],
      "stateMutability": "view",
      "type": "function"
    },
    {
      "inputs": [
        {
          "internalType": "address",
          "name": "account",
          "type": "address"
        },
        {
          "internalType": "uint256",
          "name": "id",
          "type": "uint256"
        },
        {
          "internalType": "uint256",
          "name": "amount",
          "type": "uint256"
        }
      ],
      "name": "burn",
      "outputs": [],
      "stateMutability": "nonpayable",
      "type": "function"
    },
    {
      "inputs": [
        {
          "internalType": "address",
          "name": "account",
          "type": "address"
        },
        {
          "internalType": "uint256",
          "name": "id",
          "type": "uint256"
        }
      ],
      "name": "checkNFTOwnership",
      "outputs": [
        {
          "internalType": "bool",
          "name": "",
          "type": "bool"
        }
      ],
      "stateMutability": "view",
      "type": "function"
    },
    {
      "inputs": [
        {
          "internalType": "address",
          "name": "",
          "type": "address"
        }
      ],
      "name": "hasMinted",
      "outputs": [
        {
          "internalType": "bool",
          "name": "",
          "type": "bool"
        }
      ],
      "stateMutability": "view",
      "type": "function"
    },
    {
      "inputs": [
        {
          "internalType": "address",
          "name": "account",
          "type": "address"
        },
        {
          "internalType": "address",
          "name": "operator",
          "type": "address"
        }
      ],
      "name": "isApprovedForAll",
      "outputs": [
        {
          "internalType": "bool",
          "name": "",
          "type": "bool"
        }
      ],
      "stateMutability": "view",
      "type": "function"
    },
    {
      "inputs": [
        {
          "internalType": "address",
          "name": "account",
          "type": "address"
        },
        {
          "internalType": "uint256",
          "name": "id",
          "type": "uint256"
        },
        {
          "internalType": "uint256",
          "name": "amount",
          "type": "uint256"
        },
        {
          "internalType": "bytes",
          "name": "data",
          "type": "bytes"
        }
      ],
      "name": "mint",
      "outputs": [],
      "stateMutability": "nonpayable",
      "type": "function"
    },
    {
      "inputs": [],
      "name": "owner",
      "outputs": [
        {
          "internalType": "address",
          "name": "",
          "type": "address"
        }
      ],
      "stateMutability": "view",
      "type": "function"
    },
    {
      "inputs": [],
      "name": "renounceOwnership",
      "outputs": [],
      "stateMutability": "nonpayable",
      "type": "function"
    },
    {
      "inputs": [
        {
          "internalType": "address",
          "name": "from",
          "type": "address"
        },
        {
          "internalType": "address",
          "name": "to",
          "type": "address"
        },
        {
          "internalType": "uint256[]",
          "name": "ids",
          "type": "uint256[]"
        },
        {
          "internalType": "uint256[]",
          "name": "amounts",
          "type": "uint256[]"
        },
        {
          "internalType": "bytes",
          "name": "data",
          "type": "bytes"
        }
      ],
      "name": "safeBatchTransferFrom",
      "outputs": [],
      "stateMutability": "nonpayable",
      "type": "function"
    },
    {
      "inputs": [
        {
          "internalType": "address",
          "name": "from",
          "type": "address"
        },
        {
          "internalType": "address",
          "name": "to",
          "type": "address"
        },
        {
          "internalType": "uint256",
          "name": "id",
          "type": "uint256"
        },
        {
          "internalType": "uint256",
          "name": "amount",
          "type": "uint256"
        },
        {
          "internalType": "bytes",
          "name": "data",
          "type": "bytes"
        }
      ],
      "name": "safeTransferFrom",
      "outputs": [],
      "stateMutability": "nonpayable",
      "type": "function"
    },
    {
      "inputs": [
        {
          "internalType": "address",
          "name": "operator",
          "type": "address"
        },
        {
          "internalType": "bool",
          "name": "approved",
          "type": "bool"
        }
      ],
      "name": "setApprovalForAll",
      "outputs": [],
      "stateMutability": "nonpayable",
      "type": "function"
    },
    {
      "inputs": [
        {
          "internalType": "bytes4",
          "name": "interfaceId",
          "type": "bytes4"
        }
      ],
      "name": "supportsInterface",
      "outputs": [
        {
          "internalType": "bool",
          "name": "",
          "type": "bool"
        }
      ],
      "stateMutability": "view",
      "type": "function"
    },
    {
      "inputs": [],
      "name": "test",
      "outputs": [
        {
          "internalType": "string",
          "name": "",
          "type": "string"
        }
      ],
      "stateMutability": "pure",
      "type": "function"
    },
    {
      "inputs": [
        {
          "internalType": "address",
          "name": "newOwner",
          "type": "address"
        }
      ],
      "name": "transferOwnership",
      "outputs": [],
      "stateMutability": "nonpayable",
      "type": "function"
    },
    {
      "inputs": [
        {
          "internalType": "uint256",
          "name": "",
          "type": "uint256"
        }
      ],
      "name": "uri",
      "outputs": [
        {
          "internalType": "string",
          "name": "",
          "type": "string"
        }
      ],
      "stateMutability": "view",
      "type": "function"
    }
  ],
  "bytecode": "0x60806040523480156200001157600080fd5b5060405180608001604052806051815260200162003b82605191396200003d816200006460201b60201c565b506200005e620000526200007960201b60201c565b6200008160201b60201c565b620004a8565b8060029081620000759190620003c1565b5050565b600033905090565b6000600360009054906101000a900473ffffffffffffffffffffffffffffffffffffffff16905081600360006101000a81548173ffffffffffffffffffffffffffffffffffffffff021916908373ffffffffffffffffffffffffffffffffffffffff1602179055508173ffffffffffffffffffffffffffffffffffffffff168173ffffffffffffffffffffffffffffffffffffffff167f8be0079c531659141344cd1fd0a4f28419497f9722a3daafe3b4186f6b6457e060405160405180910390a35050565b600081519050919050565b7f4e487b7100000000000000000000000000000000000000000000000000000000600052604160045260246000fd5b7f4e487b7100000000000000000000000000000000000000000000000000000000600052602260045260246000fd5b60006002820490506001821680620001c957607f821691505b602082108103620001df57620001de62000181565b5b50919050565b60008190508160005260206000209050919050565b60006020601f8301049050919050565b600082821b905092915050565b600060088302620002497fffffffffffffffffffffffffffffffffffffffffffffffffffffffffffffffff826200020a565b6200025586836200020a565b95508019841693508086168417925050509392505050565b6000819050919050565b6000819050919050565b6000620002a26200029c62000296846200026d565b62000277565b6200026d565b9050919050565b6000819050919050565b620002be8362000281565b620002d6620002cd82620002a9565b84845462000217565b825550505050565b600090565b620002ed620002de565b620002fa818484620002b3565b505050565b5b81811015620003225762000316600082620002e3565b60018101905062000300565b5050565b601f82111562000371576200033b81620001e5565b6200034684620001fa565b8101602085101562000356578190505b6200036e6200036585620001fa565b830182620002ff565b50505b505050565b600082821c905092915050565b6000620003966000198460080262000376565b1980831691505092915050565b6000620003b1838362000383565b9150826002028217905092915050565b620003cc8262000147565b67ffffffffffffffff811115620003e857620003e762000152565b5b620003f48254620001b0565b6200040182828562000326565b600060209050601f83116001811462000439576000841562000424578287015190505b620004308582620003a3565b865550620004a0565b601f1984166200044986620001e5565b60005b8281101562000473578489015182556001820191506020850194506020810190506200044c565b868310156200049357848901516200048f601f89168262000383565b8355505b6001600288020188555050505b505050505050565b6136ca80620004b86000396000f3fe608060405234801561001057600080fd5b50600436106101fa5760003560e01c80637de8a0811161011a578063e51e469e116100ad578063eac11c921161007c578063eac11c92146105ab578063f242432a146105c9578063f2fde38b146105e5578063f5298aca14610601578063f8a8fd6d1461061d576101fa565b8063e51e469e14610521578063e6aa96a51461053f578063e985e9c51461055d578063e9ceafb11461058d576101fa565b8063a22cb465116100e9578063a22cb465146104ab578063a9f82eb9146104c7578063c07dc687146104e5578063d945927c14610503576101fa565b80637de8a081146104335780637e6ad752146104515780638da5cb5b1461046f5780639d28e87e1461048d576101fa565b8063485e6489116101925780636dfd4ecc116101615780636dfd4ecc146103d157806370acb1b0146103ef578063715018a61461040d578063731133e914610417576101fa565b8063485e6489146103475780634d06e0af146103655780634e1273f4146103835780635414e613146103b3576101fa565b806316f14794116101ce57806316f14794146102ad5780632eb2c2d6146102cb57806338e21cce146102e7578063436a281a14610317576101fa565b8062fdd58e146101ff57806301ffc9a71461022f5780630e89341c1461025f578063106661851461028f575b600080fd5b610219600480360381019061021491906120b5565b61063b565b6040516102269190612104565b60405180910390f35b61024960048036038101906102449190612177565b610703565b60405161025691906121bf565b60405180910390f35b610279600480360381019061027491906121da565b6107e5565b6040516102869190612297565b60405180910390f35b610297610879565b6040516102a49190612104565b60405180910390f35b6102b561087e565b6040516102c29190612104565b60405180910390f35b6102e560048036038101906102e091906124b6565b610883565b005b61030160048036038101906102fc9190612585565b610924565b60405161030e91906121bf565b60405180910390f35b610331600480360381019061032c91906120b5565b610944565b60405161033e91906121bf565b60405180910390f35b61034f610960565b60405161035c9190612104565b60405180910390f35b61036d610965565b60405161037a9190612104565b60405180910390f35b61039d60048036038101906103989190612675565b61096a565b6040516103aa91906127ab565b60405180910390f35b6103bb610a83565b6040516103c89190612104565b60405180910390f35b6103d9610a88565b6040516103e69190612104565b60405180910390f35b6103f7610a8d565b6040516104049190612104565b60405180910390f35b610415610a92565b005b610431600480360381019061042c91906127cd565b610aa6565b005b61043b610bf4565b6040516104489190612104565b60405180910390f35b610459610bf9565b6040516104669190612104565b60405180910390f35b610477610bfe565b604051610484919061285f565b60405180910390f35b610495610c28565b6040516104a29190612104565b60405180910390f35b6104c560048036038101906104c091906128a6565b610c2d565b005b6104cf610c43565b6040516104dc9190612104565b60405180910390f35b6104ed610c48565b6040516104fa9190612104565b60405180910390f35b61050b610c4d565b6040516105189190612104565b60405180910390f35b610529610c52565b6040516105369190612104565b60405180910390f35b610547610c57565b6040516105549190612104565b60405180910390f35b610577600480360381019061057291906128e6565b610c5c565b60405161058491906121bf565b60405180910390f35b610595610cf0565b6040516105a29190612104565b60405180910390f35b6105b3610cf5565b6040516105c09190612104565b60405180910390f35b6105e360048036038101906105de9190612926565b610cfa565b005b6105ff60048036038101906105fa9190612585565b610d9b565b005b61061b600480360381019061061691906129bd565b610e1e565b005b610625610ebe565b6040516106329190612297565b60405180910390f35b60008073ffffffffffffffffffffffffffffffffffffffff168373ffffffffffffffffffffffffffffffffffffffff16036106ab576040517f08c379a00000000000000000000000000000000000000000000000000000000081526004016106a290612a82565b60405180910390fd5b60008083815260200190815260200160002060008473ffffffffffffffffffffffffffffffffffffffff1673ffffffffffffffffffffffffffffffffffffffff16815260200190815260200160002054905092915050565b60007fd9b67a26000000000000000000000000000000000000000000000000000000007bffffffffffffffffffffffffffffffffffffffffffffffffffffffff1916827bffffffffffffffffffffffffffffffffffffffffffffffffffffffff191614806107ce57507f0e89341c000000000000000000000000000000000000000000000000000000007bffffffffffffffffffffffffffffffffffffffffffffffffffffffff1916827bffffffffffffffffffffffffffffffffffffffffffffffffffffffff1916145b806107de57506107dd82610ede565b5b9050919050565b6060600280546107f490612ad1565b80601f016020809104026020016040519081016040528092919081815260200182805461082090612ad1565b801561086d5780601f106108425761010080835404028352916020019161086d565b820191906000526020600020905b81548152906001019060200180831161085057829003601f168201915b50505050509050919050565b600b81565b600481565b61088b610f48565b73ffffffffffffffffffffffffffffffffffffffff168573ffffffffffffffffffffffffffffffffffffffff1614806108d157506108d0856108cb610f48565b610c5c565b5b610910576040517f08c379a000000000000000000000000000000000000000000000000000000000815260040161090790612b74565b60405180910390fd5b61091d8585858585610f50565b5050505050565b60046020528060005260406000206000915054906101000a900460ff1681565b600080610951848461063b565b90506000811191505092915050565b600c81565b600381565b606081518351146109b0576040517f08c379a00000000000000000000000000000000000000000000000000000000081526004016109a790612c06565b60405180910390fd5b6000835167ffffffffffffffff8111156109cd576109cc6122be565b5b6040519080825280602002602001820160405280156109fb5781602001602082028036833780820191505090505b50905060005b8451811015610a7857610a48858281518110610a2057610a1f612c26565b5b6020026020010151858381518110610a3b57610a3a612c26565b5b602002602001015161063b565b828281518110610a5b57610a5a612c26565b5b60200260200101818152505080610a7190612c84565b9050610a01565b508091505092915050565b600d81565b600581565b600881565b610a9a611271565b610aa460006112ef565b565b60018310158015610ab8575060118311155b610af7576040517f08c379a0000000000000000000000000000000000000000000000000000000008152600401610aee90612d18565b60405180910390fd5b60001515600460008673ffffffffffffffffffffffffffffffffffffffff1673ffffffffffffffffffffffffffffffffffffffff16815260200190815260200160002060009054906101000a900460ff16151514610b8a576040517f08c379a0000000000000000000000000000000000000000000000000000000008152600401610b8190612d84565b60405180910390fd5b610b96848484846113b5565b6001600460008673ffffffffffffffffffffffffffffffffffffffff1673ffffffffffffffffffffffffffffffffffffffff16815260200190815260200160002060006101000a81548160ff02191690831515021790555050505050565b600281565b601081565b6000600360009054906101000a900473ffffffffffffffffffffffffffffffffffffffff16905090565b600181565b610c3f610c38610f48565b8383611565565b5050565b600a81565b600681565b600981565b600e81565b600f81565b6000600160008473ffffffffffffffffffffffffffffffffffffffff1673ffffffffffffffffffffffffffffffffffffffff16815260200190815260200160002060008373ffffffffffffffffffffffffffffffffffffffff1673ffffffffffffffffffffffffffffffffffffffff16815260200190815260200160002060009054906101000a900460ff16905092915050565b600781565b601181565b610d02610f48565b73ffffffffffffffffffffffffffffffffffffffff168573ffffffffffffffffffffffffffffffffffffffff161480610d485750610d4785610d42610f48565b610c5c565b5b610d87576040517f08c379a0000000000000000000000000000000000000000000000000000000008152600401610d7e90612b74565b60405180910390fd5b610d9485858585856116d1565b5050505050565b610da3611271565b600073ffffffffffffffffffffffffffffffffffffffff168173ffffffffffffffffffffffffffffffffffffffff1603610e12576040517f08c379a0000000000000000000000000000000000000000000000000000000008152600401610e0990612e16565b60405180910390fd5b610e1b816112ef565b50565b8273ffffffffffffffffffffffffffffffffffffffff163373ffffffffffffffffffffffffffffffffffffffff1614610e5657600080fd5b610e6183838361196c565b6000600460008573ffffffffffffffffffffffffffffffffffffffff1673ffffffffffffffffffffffffffffffffffffffff16815260200190815260200160002060006101000a81548160ff021916908315150217905550505050565b606060405180606001604052806024815260200161367160249139905090565b60007f01ffc9a7000000000000000000000000000000000000000000000000000000007bffffffffffffffffffffffffffffffffffffffffffffffffffffffff1916827bffffffffffffffffffffffffffffffffffffffffffffffffffffffff1916149050919050565b600033905090565b8151835114610f94576040517f08c379a0000000000000000000000000000000000000000000000000000000008152600401610f8b90612ea8565b60405180910390fd5b600073ffffffffffffffffffffffffffffffffffffffff168473ffffffffffffffffffffffffffffffffffffffff1603611003576040517f08c379a0000000000000000000000000000000000000000000000000000000008152600401610ffa90612f3a565b60405180910390fd5b600061100d610f48565b905061101d818787878787611bb2565b60005b84518110156111ce57600085828151811061103e5761103d612c26565b5b60200260200101519050600085838151811061105d5761105c612c26565b5b60200260200101519050600080600084815260200190815260200160002060008b73ffffffffffffffffffffffffffffffffffffffff1673ffffffffffffffffffffffffffffffffffffffff168152602001908152602001600020549050818110156110fe576040517f08c379a00000000000000000000000000000000000000000000000000000000081526004016110f590612fcc565b60405180910390fd5b81810360008085815260200190815260200160002060008c73ffffffffffffffffffffffffffffffffffffffff1673ffffffffffffffffffffffffffffffffffffffff168152602001908152602001600020819055508160008085815260200190815260200160002060008b73ffffffffffffffffffffffffffffffffffffffff1673ffffffffffffffffffffffffffffffffffffffff16815260200190815260200160002060008282546111b39190612fec565b92505081905550505050806111c790612c84565b9050611020565b508473ffffffffffffffffffffffffffffffffffffffff168673ffffffffffffffffffffffffffffffffffffffff168273ffffffffffffffffffffffffffffffffffffffff167f4a39dc06d4c0dbc64b70af90fd698a233a518aa5d07e595d983b8c0526c8f7fb8787604051611245929190613020565b60405180910390a461125b818787878787611bba565b611269818787878787611bc2565b505050505050565b611279610f48565b73ffffffffffffffffffffffffffffffffffffffff16611297610bfe565b73ffffffffffffffffffffffffffffffffffffffff16146112ed576040517f08c379a00000000000000000000000000000000000000000000000000000000081526004016112e4906130a3565b60405180910390fd5b565b6000600360009054906101000a900473ffffffffffffffffffffffffffffffffffffffff16905081600360006101000a81548173ffffffffffffffffffffffffffffffffffffffff021916908373ffffffffffffffffffffffffffffffffffffffff1602179055508173ffffffffffffffffffffffffffffffffffffffff168173ffffffffffffffffffffffffffffffffffffffff167f8be0079c531659141344cd1fd0a4f28419497f9722a3daafe3b4186f6b6457e060405160405180910390a35050565b600073ffffffffffffffffffffffffffffffffffffffff168473ffffffffffffffffffffffffffffffffffffffff1603611424576040517f08c379a000000000000000000000000000000000000000000000000000000000815260040161141b90613135565b60405180910390fd5b600061142e610f48565b9050600061143b85611d99565b9050600061144885611d99565b905061145983600089858589611bb2565b8460008088815260200190815260200160002060008973ffffffffffffffffffffffffffffffffffffffff1673ffffffffffffffffffffffffffffffffffffffff16815260200190815260200160002060008282546114b89190612fec565b925050819055508673ffffffffffffffffffffffffffffffffffffffff16600073ffffffffffffffffffffffffffffffffffffffff168473ffffffffffffffffffffffffffffffffffffffff167fc3d58168c5ae7397731d063d5bbf3d657854427343f4c083240f7aacaa2d0f628989604051611536929190613155565b60405180910390a461154d83600089858589611bba565b61155c83600089898989611e13565b50505050505050565b8173ffffffffffffffffffffffffffffffffffffffff168373ffffffffffffffffffffffffffffffffffffffff16036115d3576040517f08c379a00000000000000000000000000000000000000000000000000000000081526004016115ca906131f0565b60405180910390fd5b80600160008573ffffffffffffffffffffffffffffffffffffffff1673ffffffffffffffffffffffffffffffffffffffff16815260200190815260200160002060008473ffffffffffffffffffffffffffffffffffffffff1673ffffffffffffffffffffffffffffffffffffffff16815260200190815260200160002060006101000a81548160ff0219169083151502179055508173ffffffffffffffffffffffffffffffffffffffff168373ffffffffffffffffffffffffffffffffffffffff167f17307eab39ab6107e8899845ad3d59bd9653f200f220920489ca2b5937696c31836040516116c491906121bf565b60405180910390a3505050565b600073ffffffffffffffffffffffffffffffffffffffff168473ffffffffffffffffffffffffffffffffffffffff1603611740576040517f08c379a000000000000000000000000000000000000000000000000000000000815260040161173790612f3a565b60405180910390fd5b600061174a610f48565b9050600061175785611d99565b9050600061176485611d99565b9050611774838989858589611bb2565b600080600088815260200190815260200160002060008a73ffffffffffffffffffffffffffffffffffffffff1673ffffffffffffffffffffffffffffffffffffffff1681526020019081526020016000205490508581101561180b576040517f08c379a000000000000000000000000000000000000000000000000000000000815260040161180290612fcc565b60405180910390fd5b85810360008089815260200190815260200160002060008b73ffffffffffffffffffffffffffffffffffffffff1673ffffffffffffffffffffffffffffffffffffffff168152602001908152602001600020819055508560008089815260200190815260200160002060008a73ffffffffffffffffffffffffffffffffffffffff1673ffffffffffffffffffffffffffffffffffffffff16815260200190815260200160002060008282546118c09190612fec565b925050819055508773ffffffffffffffffffffffffffffffffffffffff168973ffffffffffffffffffffffffffffffffffffffff168573ffffffffffffffffffffffffffffffffffffffff167fc3d58168c5ae7397731d063d5bbf3d657854427343f4c083240f7aacaa2d0f628a8a60405161193d929190613155565b60405180910390a4611953848a8a86868a611bba565b611961848a8a8a8a8a611e13565b505050505050505050565b600073ffffffffffffffffffffffffffffffffffffffff168373ffffffffffffffffffffffffffffffffffffffff16036119db576040517f08c379a00000000000000000000000000000000000000000000000000000000081526004016119d290613282565b60405180910390fd5b60006119e5610f48565b905060006119f284611d99565b905060006119ff84611d99565b9050611a1f83876000858560405180602001604052806000815250611bb2565b600080600087815260200190815260200160002060008873ffffffffffffffffffffffffffffffffffffffff1673ffffffffffffffffffffffffffffffffffffffff16815260200190815260200160002054905084811015611ab6576040517f08c379a0000000000000000000000000000000000000000000000000000000008152600401611aad90613314565b60405180910390fd5b84810360008088815260200190815260200160002060008973ffffffffffffffffffffffffffffffffffffffff1673ffffffffffffffffffffffffffffffffffffffff16815260200190815260200160002081905550600073ffffffffffffffffffffffffffffffffffffffff168773ffffffffffffffffffffffffffffffffffffffff168573ffffffffffffffffffffffffffffffffffffffff167fc3d58168c5ae7397731d063d5bbf3d657854427343f4c083240f7aacaa2d0f628989604051611b83929190613155565b60405180910390a4611ba984886000868660405180602001604052806000815250611bba565b50505050505050565b505050505050565b505050505050565b611be18473ffffffffffffffffffffffffffffffffffffffff16611fea565b15611d91578373ffffffffffffffffffffffffffffffffffffffff1663bc197c8187878686866040518663ffffffff1660e01b8152600401611c27959493929190613389565b6020604051808303816000875af1925050508015611c6357506040513d601f19601f82011682018060405250810190611c609190613406565b60015b611d0857611c6f613440565b806308c379a003611ccb5750611c83613462565b80611c8e5750611ccd565b806040517f08c379a0000000000000000000000000000000000000000000000000000000008152600401611cc29190612297565b60405180910390fd5b505b6040517f08c379a0000000000000000000000000000000000000000000000000000000008152600401611cff90613564565b60405180910390fd5b63bc197c8160e01b7bffffffffffffffffffffffffffffffffffffffffffffffffffffffff1916817bffffffffffffffffffffffffffffffffffffffffffffffffffffffff191614611d8f576040517f08c379a0000000000000000000000000000000000000000000000000000000008152600401611d86906135f6565b60405180910390fd5b505b505050505050565b60606000600167ffffffffffffffff811115611db857611db76122be565b5b604051908082528060200260200182016040528015611de65781602001602082028036833780820191505090505b5090508281600081518110611dfe57611dfd612c26565b5b60200260200101818152505080915050919050565b611e328473ffffffffffffffffffffffffffffffffffffffff16611fea565b15611fe2578373ffffffffffffffffffffffffffffffffffffffff1663f23a6e6187878686866040518663ffffffff1660e01b8152600401611e78959493929190613616565b6020604051808303816000875af1925050508015611eb457506040513d601f19601f82011682018060405250810190611eb19190613406565b60015b611f5957611ec0613440565b806308c379a003611f1c5750611ed4613462565b80611edf5750611f1e565b806040517f08c379a0000000000000000000000000000000000000000000000000000000008152600401611f139190612297565b60405180910390fd5b505b6040517f08c379a0000000000000000000000000000000000000000000000000000000008152600401611f5090613564565b60405180910390fd5b63f23a6e6160e01b7bffffffffffffffffffffffffffffffffffffffffffffffffffffffff1916817bffffffffffffffffffffffffffffffffffffffffffffffffffffffff191614611fe0576040517f08c379a0000000000000000000000000000000000000000000000000000000008152600401611fd7906135f6565b60405180910390fd5b505b505050505050565b6000808273ffffffffffffffffffffffffffffffffffffffff163b119050919050565b6000604051905090565b600080fd5b600080fd5b600073ffffffffffffffffffffffffffffffffffffffff82169050919050565b600061204c82612021565b9050919050565b61205c81612041565b811461206757600080fd5b50565b60008135905061207981612053565b92915050565b6000819050919050565b6120928161207f565b811461209d57600080fd5b50565b6000813590506120af81612089565b92915050565b600080604083850312156120cc576120cb612017565b5b60006120da8582860161206a565b92505060206120eb858286016120a0565b9150509250929050565b6120fe8161207f565b82525050565b600060208201905061211960008301846120f5565b92915050565b60007fffffffff0000000000000000000000000000000000000000000000000000000082169050919050565b6121548161211f565b811461215f57600080fd5b50565b6000813590506121718161214b565b92915050565b60006020828403121561218d5761218c612017565b5b600061219b84828501612162565b91505092915050565b60008115159050919050565b6121b9816121a4565b82525050565b60006020820190506121d460008301846121b0565b92915050565b6000602082840312156121f0576121ef612017565b5b60006121fe848285016120a0565b91505092915050565b600081519050919050565b600082825260208201905092915050565b60005b83811015612241578082015181840152602081019050612226565b60008484015250505050565b6000601f19601f8301169050919050565b600061226982612207565b6122738185612212565b9350612283818560208601612223565b61228c8161224d565b840191505092915050565b600060208201905081810360008301526122b1818461225e565b905092915050565b600080fd5b7f4e487b7100000000000000000000000000000000000000000000000000000000600052604160045260246000fd5b6122f68261224d565b810181811067ffffffffffffffff82111715612315576123146122be565b5b80604052505050565b600061232861200d565b905061233482826122ed565b919050565b600067ffffffffffffffff821115612354576123536122be565b5b602082029050602081019050919050565b600080fd5b600061237d61237884612339565b61231e565b905080838252602082019050602084028301858111156123a05761239f612365565b5b835b818110156123c957806123b588826120a0565b8452602084019350506020810190506123a2565b5050509392505050565b600082601f8301126123e8576123e76122b9565b5b81356123f884826020860161236a565b91505092915050565b600080fd5b600067ffffffffffffffff821115612421576124206122be565b5b61242a8261224d565b9050602081019050919050565b82818337600083830152505050565b600061245961245484612406565b61231e565b90508281526020810184848401111561247557612474612401565b5b612480848285612437565b509392505050565b600082601f83011261249d5761249c6122b9565b5b81356124ad848260208601612446565b91505092915050565b600080600080600060a086880312156124d2576124d1612017565b5b60006124e08882890161206a565b95505060206124f18882890161206a565b945050604086013567ffffffffffffffff8111156125125761251161201c565b5b61251e888289016123d3565b935050606086013567ffffffffffffffff81111561253f5761253e61201c565b5b61254b888289016123d3565b925050608086013567ffffffffffffffff81111561256c5761256b61201c565b5b61257888828901612488565b9150509295509295909350565b60006020828403121561259b5761259a612017565b5b60006125a98482850161206a565b91505092915050565b600067ffffffffffffffff8211156125cd576125cc6122be565b5b602082029050602081019050919050565b60006125f16125ec846125b2565b61231e565b9050808382526020820190506020840283018581111561261457612613612365565b5b835b8181101561263d5780612629888261206a565b845260208401935050602081019050612616565b5050509392505050565b600082601f83011261265c5761265b6122b9565b5b813561266c8482602086016125de565b91505092915050565b6000806040838503121561268c5761268b612017565b5b600083013567ffffffffffffffff8111156126aa576126a961201c565b5b6126b685828601612647565b925050602083013567ffffffffffffffff8111156126d7576126d661201c565b5b6126e3858286016123d3565b9150509250929050565b600081519050919050565b600082825260208201905092915050565b6000819050602082019050919050565b6127228161207f565b82525050565b60006127348383612719565b60208301905092915050565b6000602082019050919050565b6000612758826126ed565b61276281856126f8565b935061276d83612709565b8060005b8381101561279e5781516127858882612728565b975061279083612740565b925050600181019050612771565b5085935050505092915050565b600060208201905081810360008301526127c5818461274d565b905092915050565b600080600080608085870312156127e7576127e6612017565b5b60006127f58782880161206a565b9450506020612806878288016120a0565b9350506040612817878288016120a0565b925050606085013567ffffffffffffffff8111156128385761283761201c565b5b61284487828801612488565b91505092959194509250565b61285981612041565b82525050565b60006020820190506128746000830184612850565b92915050565b612883816121a4565b811461288e57600080fd5b50565b6000813590506128a08161287a565b92915050565b600080604083850312156128bd576128bc612017565b5b60006128cb8582860161206a565b92505060206128dc85828601612891565b9150509250929050565b600080604083850312156128fd576128fc612017565b5b600061290b8582860161206a565b925050602061291c8582860161206a565b9150509250929050565b600080600080600060a0868803121561294257612941612017565b5b60006129508882890161206a565b95505060206129618882890161206a565b9450506040612972888289016120a0565b9350506060612983888289016120a0565b925050608086013567ffffffffffffffff8111156129a4576129a361201c565b5b6129b088828901612488565b9150509295509295909350565b6000806000606084860312156129d6576129d5612017565b5b60006129e48682870161206a565b93505060206129f5868287016120a0565b9250506040612a06868287016120a0565b9150509250925092565b7f455243313135353a2061646472657373207a65726f206973206e6f742061207660008201527f616c6964206f776e657200000000000000000000000000000000000000000000602082015250565b6000612a6c602a83612212565b9150612a7782612a10565b604082019050919050565b60006020820190508181036000830152612a9b81612a5f565b9050919050565b7f4e487b7100000000000000000000000000000000000000000000000000000000600052602260045260246000fd5b60006002820490506001821680612ae957607f821691505b602082108103612afc57612afb612aa2565b5b50919050565b7f455243313135353a2063616c6c6572206973206e6f7420746f6b656e206f776e60008201527f6572206f7220617070726f766564000000000000000000000000000000000000602082015250565b6000612b5e602e83612212565b9150612b6982612b02565b604082019050919050565b60006020820190508181036000830152612b8d81612b51565b9050919050565b7f455243313135353a206163636f756e747320616e6420696473206c656e67746860008201527f206d69736d617463680000000000000000000000000000000000000000000000602082015250565b6000612bf0602983612212565b9150612bfb82612b94565b604082019050919050565b60006020820190508181036000830152612c1f81612be3565b9050919050565b7f4e487b7100000000000000000000000000000000000000000000000000000000600052603260045260246000fd5b7f4e487b7100000000000000000000000000000000000000000000000000000000600052601160045260246000fd5b6000612c8f8261207f565b91507fffffffffffffffffffffffffffffffffffffffffffffffffffffffffffffffff8203612cc157612cc0612c55565b5b600182019050919050565b7f496e76616c696420636f6c6c6567652069642100000000000000000000000000600082015250565b6000612d02601383612212565b9150612d0d82612ccc565b602082019050919050565b60006020820190508181036000830152612d3181612cf5565b9050919050565b7f557365722068617320616c7265616479206d696e74656420616e204e46542100600082015250565b6000612d6e601f83612212565b9150612d7982612d38565b602082019050919050565b60006020820190508181036000830152612d9d81612d61565b9050919050565b7f4f776e61626c653a206e6577206f776e657220697320746865207a65726f206160008201527f6464726573730000000000000000000000000000000000000000000000000000602082015250565b6000612e00602683612212565b9150612e0b82612da4565b604082019050919050565b60006020820190508181036000830152612e2f81612df3565b9050919050565b7f455243313135353a2069647320616e6420616d6f756e7473206c656e6774682060008201527f6d69736d61746368000000000000000000000000000000000000000000000000602082015250565b6000612e92602883612212565b9150612e9d82612e36565b604082019050919050565b60006020820190508181036000830152612ec181612e85565b9050919050565b7f455243313135353a207472616e7366657220746f20746865207a65726f20616460008201527f6472657373000000000000000000000000000000000000000000000000000000602082015250565b6000612f24602583612212565b9150612f2f82612ec8565b604082019050919050565b60006020820190508181036000830152612f5381612f17565b9050919050565b7f455243313135353a20696e73756666696369656e742062616c616e636520666f60008201527f72207472616e7366657200000000000000000000000000000000000000000000602082015250565b6000612fb6602a83612212565b9150612fc182612f5a565b604082019050919050565b60006020820190508181036000830152612fe581612fa9565b9050919050565b6000612ff78261207f565b91506130028361207f565b925082820190508082111561301a57613019612c55565b5b92915050565b6000604082019050818103600083015261303a818561274d565b9050818103602083015261304e818461274d565b90509392505050565b7f4f776e61626c653a2063616c6c6572206973206e6f7420746865206f776e6572600082015250565b600061308d602083612212565b915061309882613057565b602082019050919050565b600060208201905081810360008301526130bc81613080565b9050919050565b7f455243313135353a206d696e7420746f20746865207a65726f2061646472657360008201527f7300000000000000000000000000000000000000000000000000000000000000602082015250565b600061311f602183612212565b915061312a826130c3565b604082019050919050565b6000602082019050818103600083015261314e81613112565b9050919050565b600060408201905061316a60008301856120f5565b61317760208301846120f5565b9392505050565b7f455243313135353a2073657474696e6720617070726f76616c2073746174757360008201527f20666f722073656c660000000000000000000000000000000000000000000000602082015250565b60006131da602983612212565b91506131e58261317e565b604082019050919050565b60006020820190508181036000830152613209816131cd565b9050919050565b7f455243313135353a206275726e2066726f6d20746865207a65726f206164647260008201527f6573730000000000000000000000000000000000000000000000000000000000602082015250565b600061326c602383612212565b915061327782613210565b604082019050919050565b6000602082019050818103600083015261329b8161325f565b9050919050565b7f455243313135353a206275726e20616d6f756e7420657863656564732062616c60008201527f616e636500000000000000000000000000000000000000000000000000000000602082015250565b60006132fe602483612212565b9150613309826132a2565b604082019050919050565b6000602082019050818103600083015261332d816132f1565b9050919050565b600081519050919050565b600082825260208201905092915050565b600061335b82613334565b613365818561333f565b9350613375818560208601612223565b61337e8161224d565b840191505092915050565b600060a08201905061339e6000830188612850565b6133ab6020830187612850565b81810360408301526133bd818661274d565b905081810360608301526133d1818561274d565b905081810360808301526133e58184613350565b90509695505050505050565b6000815190506134008161214b565b92915050565b60006020828403121561341c5761341b612017565b5b600061342a848285016133f1565b91505092915050565b60008160e01c9050919050565b600060033d111561345f5760046000803e61345c600051613433565b90505b90565b600060443d106134ef5761347461200d565b60043d036004823e80513d602482011167ffffffffffffffff8211171561349c5750506134ef565b808201805167ffffffffffffffff8111156134ba57505050506134ef565b80602083010160043d0385018111156134d75750505050506134ef565b6134e6826020018501866122ed565b82955050505050505b90565b7f455243313135353a207472616e7366657220746f206e6f6e2d4552433131353560008201527f526563656976657220696d706c656d656e746572000000000000000000000000602082015250565b600061354e603483612212565b9150613559826134f2565b604082019050919050565b6000602082019050818103600083015261357d81613541565b9050919050565b7f455243313135353a204552433131353552656365697665722072656a6563746560008201527f6420746f6b656e73000000000000000000000000000000000000000000000000602082015250565b60006135e0602883612212565b91506135eb82613584565b604082019050919050565b6000602082019050818103600083015261360f816135d3565b9050919050565b600060a08201905061362b6000830188612850565b6136386020830187612850565b61364560408301866120f5565b61365260608301856120f5565b81810360808301526136648184613350565b9050969550505050505056fe436f6e6e656374656420746f20436f6c6c65676520736d61727420636f6e747261637421a2646970667358221220ded4d3ff248db6a86979153c63c0502b24e7ccf407fe66339407d83575ce356064736f6c6343000812003368747470733a2f2f6d792d6a736f6e2d7365727665722e74797069636f64652e636f6d2f636564726963717569746f722f626c6f636b636861696e2d7765622d6170702f636f6c6c656765732f7b69647d",
  "linkReferences": {},
  "deployedLinkReferences": {}
}