{
  "_format": "hh-sol-artifact-1",
  "contractName": "College",
  "sourceName": "contracts/College.sol",
  "abi": [
    {
      "inputs": [],
      "stateMutability": "nonpayable",
      "type": "constructor"
    },
    {
      "anonymous": false,
      "inputs": [
        {
          "indexed": true,
          "internalType": "address",
          "name": "account",
          "type": "address"
        },
        {
          "indexed": true,
          "internalType": "address",
          "name": "operator",
          "type": "address"
        },
        {
          "indexed": false,
          "internalType": "bool",
          "name": "approved",
          "type": "bool"
        }
      ],
      "name": "ApprovalForAll",
      "type": "event"
    },
    {
      "anonymous": false,
      "inputs": [
        {
          "indexed": true,
          "internalType": "address",
          "name": "previousOwner",
          "type": "address"
        },
        {
          "indexed": true,
          "internalType": "address",
          "name": "newOwner",
          "type": "address"
        }
      ],
      "name": "OwnershipTransferred",
      "type": "event"
    },
    {
      "anonymous": false,
      "inputs": [
        {
          "indexed": true,
          "internalType": "address",
          "name": "operator",
          "type": "address"
        },
        {
          "indexed": true,
          "internalType": "address",
          "name": "from",
          "type": "address"
        },
        {
          "indexed": true,
          "internalType": "address",
          "name": "to",
          "type": "address"
        },
        {
          "indexed": false,
          "internalType": "uint256[]",
          "name": "ids",
          "type": "uint256[]"
        },
        {
          "indexed": false,
          "internalType": "uint256[]",
          "name": "values",
          "type": "uint256[]"
        }
      ],
      "name": "TransferBatch",
      "type": "event"
    },
    {
      "anonymous": false,
      "inputs": [
        {
          "indexed": true,
          "internalType": "address",
          "name": "operator",
          "type": "address"
        },
        {
          "indexed": true,
          "internalType": "address",
          "name": "from",
          "type": "address"
        },
        {
          "indexed": true,
          "internalType": "address",
          "name": "to",
          "type": "address"
        },
        {
          "indexed": false,
          "internalType": "uint256",
          "name": "id",
          "type": "uint256"
        },
        {
          "indexed": false,
          "internalType": "uint256",
          "name": "value",
          "type": "uint256"
        }
      ],
      "name": "TransferSingle",
      "type": "event"
    },
    {
      "anonymous": false,
      "inputs": [
        {
          "indexed": false,
          "internalType": "string",
          "name": "value",
          "type": "string"
        },
        {
          "indexed": true,
          "internalType": "uint256",
          "name": "id",
          "type": "uint256"
        }
      ],
      "name": "URI",
      "type": "event"
    },
    {
      "inputs": [],
      "name": "AMV_COA",
      "outputs": [
        {
          "internalType": "uint256",
          "name": "",
          "type": "uint256"
        }
      ],
      "stateMutability": "view",
      "type": "function"
    },
    {
      "inputs": [],
      "name": "Architecture",
      "outputs": [
        {
          "internalType": "uint256",
          "name": "",
          "type": "uint256"
        }
      ],
      "stateMutability": "view",
      "type": "function"
    },
    {
      "inputs": [],
      "name": "Arts_and_Letters",
      "outputs": [
        {
          "internalType": "uint256",
          "name": "",
          "type": "uint256"
        }
      ],
      "stateMutability": "view",
      "type": "function"
    },
    {
      "inputs": [],
      "name": "CBA",
      "outputs": [
        {
          "internalType": "uint256",
          "name": "",
          "type": "uint256"
        }
      ],
      "stateMutability": "view",
      "type": "function"
    },
    {
      "inputs": [],
      "name": "CFAD",
      "outputs": [
        {
          "internalType": "uint256",
          "name": "",
          "type": "uint256"
        }
      ],
      "stateMutability": "view",
      "type": "function"
    },
    {
      "inputs": [],
      "name": "CICS",
      "outputs": [
        {
          "internalType": "uint256",
          "name": "",
          "type": "uint256"
        }
      ],
      "stateMutability": "view",
      "type": "function"
    },
    {
      "inputs": [],
      "name": "CRS",
      "outputs": [
        {
          "internalType": "uint256",
          "name": "",
          "type": "uint256"
        }
      ],
      "stateMutability": "view",
      "type": "function"
    },
    {
      "inputs": [],
      "name": "CTHM",
      "outputs": [
        {
          "internalType": "uint256",
          "name": "",
          "type": "uint256"
        }
      ],
      "stateMutability": "view",
      "type": "function"
    },
    {
      "inputs": [],
      "name": "Civil_Law",
      "outputs": [
        {
          "internalType": "uint256",
          "name": "",
          "type": "uint256"
        }
      ],
      "stateMutability": "view",
      "type": "function"
    },
    {
      "inputs": [],
      "name": "CoE",
      "outputs": [
        {
          "internalType": "uint256",
          "name": "",
          "type": "uint256"
        }
      ],
      "stateMutability": "view",
      "type": "function"
    },
    {
      "inputs": [],
      "name": "CoS",
      "outputs": [
        {
          "internalType": "uint256",
          "name": "",
          "type": "uint256"
        }
      ],
      "stateMutability": "view",
      "type": "function"
    },
    {
      "inputs": [],
      "name": "FoE",
      "outputs": [
        {
          "internalType": "uint256",
          "name": "",
          "type": "uint256"
        }
      ],
      "stateMutability": "view",
      "type": "function"
    },
    {
      "inputs": [],
      "name": "FoP",
      "outputs": [
        {
          "internalType": "uint256",
          "name": "",
          "type": "uint256"
        }
      ],
      "stateMutability": "view",
      "type": "function"
    },
    {
      "inputs": [],
      "name": "IPEA",
      "outputs": [
        {
          "internalType": "uint256",
          "name": "",
          "type": "uint256"
        }
      ],
      "stateMutability": "view",
      "type": "function"
    },
    {
      "inputs": [],
      "name": "Medicine_and_Surgery",
      "outputs": [
        {
          "internalType": "uint256",
          "name": "",
          "type": "uint256"
        }
      ],
      "stateMutability": "view",
      "type": "function"
    },
    {
      "inputs": [],
      "name": "Music",
      "outputs": [
        {
          "internalType": "uint256",
          "name": "",
          "type": "uint256"
        }
      ],
      "stateMutability": "view",
      "type": "function"
    },
    {
      "inputs": [],
      "name": "Nursing",
      "outputs": [
        {
          "internalType": "uint256",
          "name": "",
          "type": "uint256"
        }
      ],
      "stateMutability": "view",
      "type": "function"
    },
    {
      "inputs": [
        {
          "internalType": "address",
          "name": "account",
          "type": "address"
        },
        {
          "internalType": "uint256",
          "name": "id",
          "type": "uint256"
        }
      ],
      "name": "balanceOf",
      "outputs": [
        {
          "internalType": "uint256",
          "name": "",
          "type": "uint256"
        }
      ],
      "stateMutability": "view",
      "type": "function"
    },
    {
      "inputs": [
        {
          "internalType": "address[]",
          "name": "accounts",
          "type": "address[]"
        },
        {
          "internalType": "uint256[]",
          "name": "ids",
          "type": "uint256[]"
        }
      ],
      "name": "balanceOfBatch",
      "outputs": [
        {
          "internalType": "uint256[]",
          "name": "",
          "type": "uint256[]"
        }
      ],
      "stateMutability": "view",
      "type": "function"
    },
    {
      "inputs": [
        {
          "internalType": "address",
          "name": "account",
          "type": "address"
        },
        {
          "internalType": "uint256",
          "name": "id",
          "type": "uint256"
        },
        {
          "internalType": "uint256",
          "name": "amount",
          "type": "uint256"
        }
      ],
      "name": "burn",
      "outputs": [],
      "stateMutability": "nonpayable",
      "type": "function"
    },
    {
      "inputs": [
        {
          "internalType": "address",
          "name": "account",
          "type": "address"
        },
        {
          "internalType": "uint256",
          "name": "id",
          "type": "uint256"
        }
      ],
      "name": "checkNFTOwnership",
      "outputs": [
        {
          "internalType": "bool",
          "name": "",
          "type": "bool"
        }
      ],
      "stateMutability": "view",
      "type": "function"
    },
    {
      "inputs": [],
      "name": "hasUserMinted",
      "outputs": [
        {
          "internalType": "bool",
          "name": "",
          "type": "bool"
        }
      ],
      "stateMutability": "view",
      "type": "function"
    },
    {
      "inputs": [
        {
          "internalType": "address",
          "name": "account",
          "type": "address"
        },
        {
          "internalType": "address",
          "name": "operator",
          "type": "address"
        }
      ],
      "name": "isApprovedForAll",
      "outputs": [
        {
          "internalType": "bool",
          "name": "",
          "type": "bool"
        }
      ],
      "stateMutability": "view",
      "type": "function"
    },
    {
      "inputs": [
        {
          "internalType": "address",
          "name": "account",
          "type": "address"
        },
        {
          "internalType": "uint256",
          "name": "id",
          "type": "uint256"
        },
        {
          "internalType": "uint256",
          "name": "amount",
          "type": "uint256"
        },
        {
          "internalType": "bytes",
          "name": "data",
          "type": "bytes"
        }
      ],
      "name": "mint",
      "outputs": [],
      "stateMutability": "nonpayable",
      "type": "function"
    },
    {
      "inputs": [],
      "name": "owner",
      "outputs": [
        {
          "internalType": "address",
          "name": "",
          "type": "address"
        }
      ],
      "stateMutability": "view",
      "type": "function"
    },
    {
      "inputs": [],
      "name": "renounceOwnership",
      "outputs": [],
      "stateMutability": "nonpayable",
      "type": "function"
    },
    {
      "inputs": [
        {
          "internalType": "address",
          "name": "from",
          "type": "address"
        },
        {
          "internalType": "address",
          "name": "to",
          "type": "address"
        },
        {
          "internalType": "uint256[]",
          "name": "ids",
          "type": "uint256[]"
        },
        {
          "internalType": "uint256[]",
          "name": "amounts",
          "type": "uint256[]"
        },
        {
          "internalType": "bytes",
          "name": "data",
          "type": "bytes"
        }
      ],
      "name": "safeBatchTransferFrom",
      "outputs": [],
      "stateMutability": "nonpayable",
      "type": "function"
    },
    {
      "inputs": [
        {
          "internalType": "address",
          "name": "from",
          "type": "address"
        },
        {
          "internalType": "address",
          "name": "to",
          "type": "address"
        },
        {
          "internalType": "uint256",
          "name": "id",
          "type": "uint256"
        },
        {
          "internalType": "uint256",
          "name": "amount",
          "type": "uint256"
        },
        {
          "internalType": "bytes",
          "name": "data",
          "type": "bytes"
        }
      ],
      "name": "safeTransferFrom",
      "outputs": [],
      "stateMutability": "nonpayable",
      "type": "function"
    },
    {
      "inputs": [
        {
          "internalType": "address",
          "name": "operator",
          "type": "address"
        },
        {
          "internalType": "bool",
          "name": "approved",
          "type": "bool"
        }
      ],
      "name": "setApprovalForAll",
      "outputs": [],
      "stateMutability": "nonpayable",
      "type": "function"
    },
    {
      "inputs": [
        {
          "internalType": "bytes4",
          "name": "interfaceId",
          "type": "bytes4"
        }
      ],
      "name": "supportsInterface",
      "outputs": [
        {
          "internalType": "bool",
          "name": "",
          "type": "bool"
        }
      ],
      "stateMutability": "view",
      "type": "function"
    },
    {
      "inputs": [],
      "name": "test",
      "outputs": [
        {
          "internalType": "string",
          "name": "",
          "type": "string"
        }
      ],
      "stateMutability": "pure",
      "type": "function"
    },
    {
      "inputs": [
        {
          "internalType": "address",
          "name": "newOwner",
          "type": "address"
        }
      ],
      "name": "transferOwnership",
      "outputs": [],
      "stateMutability": "nonpayable",
      "type": "function"
    },
    {
      "inputs": [
        {
          "internalType": "uint256",
          "name": "",
          "type": "uint256"
        }
      ],
      "name": "uri",
      "outputs": [
        {
          "internalType": "string",
          "name": "",
          "type": "string"
        }
      ],
      "stateMutability": "view",
      "type": "function"
    }
  ],
  "bytecode": "0x60806040526000600360146101000a81548160ff0219169083151502179055503480156200002c57600080fd5b50604051806080016040528060518152602001620047c8605191396200005881620002f360201b60201c565b50620000796200006d6200030860201b60201c565b6200031060201b60201c565b6200009d3360018060405180602001604052806000815250620003d660201b60201c565b620000c2336002600160405180602001604052806000815250620003d660201b60201c565b620000e7336003600160405180602001604052806000815250620003d660201b60201c565b6200010c336004600160405180602001604052806000815250620003d660201b60201c565b62000131336005600160405180602001604052806000815250620003d660201b60201c565b62000156336006600160405180602001604052806000815250620003d660201b60201c565b6200017b336007600160405180602001604052806000815250620003d660201b60201c565b620001a0336008600160405180602001604052806000815250620003d660201b60201c565b620001c5336009600160405180602001604052806000815250620003d660201b60201c565b620001ea33600a600160405180602001604052806000815250620003d660201b60201c565b6200020f33600b600160405180602001604052806000815250620003d660201b60201c565b6200023433600c600160405180602001604052806000815250620003d660201b60201c565b6200025933600d600160405180602001604052806000815250620003d660201b60201c565b6200027e33600e600160405180602001604052806000815250620003d660201b60201c565b620002a333600f600160405180602001604052806000815250620003d660201b60201c565b620002c8336010600160405180602001604052806000815250620003d660201b60201c565b620002ed336011600160405180602001604052806000815250620003d660201b60201c565b620011c4565b806002908162000304919062000ae4565b5050565b600033905090565b6000600360009054906101000a900473ffffffffffffffffffffffffffffffffffffffff16905081600360006101000a81548173ffffffffffffffffffffffffffffffffffffffff021916908373ffffffffffffffffffffffffffffffffffffffff1602179055508173ffffffffffffffffffffffffffffffffffffffff168173ffffffffffffffffffffffffffffffffffffffff167f8be0079c531659141344cd1fd0a4f28419497f9722a3daafe3b4186f6b6457e060405160405180910390a35050565b600073ffffffffffffffffffffffffffffffffffffffff168473ffffffffffffffffffffffffffffffffffffffff160362000448576040517f08c379a00000000000000000000000000000000000000000000000000000000081526004016200043f9062000c52565b60405180910390fd5b60006200045a6200030860201b60201c565b905060006200046f85620005bd60201b60201c565b905060006200048485620005bd60201b60201c565b90506200049d836000898585896200063e60201b60201c565b8460008088815260200190815260200160002060008973ffffffffffffffffffffffffffffffffffffffff1673ffffffffffffffffffffffffffffffffffffffff1681526020019081526020016000206000828254620004fe919062000ca3565b925050819055508673ffffffffffffffffffffffffffffffffffffffff16600073ffffffffffffffffffffffffffffffffffffffff168473ffffffffffffffffffffffffffffffffffffffff167fc3d58168c5ae7397731d063d5bbf3d657854427343f4c083240f7aacaa2d0f6289896040516200057e92919062000cef565b60405180910390a46200059d836000898585896200064660201b60201c565b620005b4836000898989896200064e60201b60201c565b50505050505050565b60606000600167ffffffffffffffff811115620005df57620005de62000875565b5b6040519080825280602002602001820160405280156200060e5781602001602082028036833780820191505090505b509050828160008151811062000629576200062862000d1c565b5b60200260200101818152505080915050919050565b505050505050565b505050505050565b6200067a8473ffffffffffffffffffffffffffffffffffffffff166200084760201b62000e081760201c565b156200083f578373ffffffffffffffffffffffffffffffffffffffff1663f23a6e6187878686866040518663ffffffff1660e01b8152600401620006c395949392919062000e2a565b6020604051808303816000875af19250505080156200070257506040513d601f19601f82011682018060405250810190620006ff919062000efa565b60015b620007b3576200071162000f39565b806308c379a0036200077457506200072862000f94565b8062000735575062000776565b806040517f08c379a00000000000000000000000000000000000000000000000000000000081526004016200076b919062001070565b60405180910390fd5b505b6040517f08c379a0000000000000000000000000000000000000000000000000000000008152600401620007aa906200110a565b60405180910390fd5b63f23a6e6160e01b7bffffffffffffffffffffffffffffffffffffffffffffffffffffffff1916817bffffffffffffffffffffffffffffffffffffffffffffffffffffffff1916146200083d576040517f08c379a00000000000000000000000000000000000000000000000000000000081526004016200083490620011a2565b60405180910390fd5b505b505050505050565b6000808273ffffffffffffffffffffffffffffffffffffffff163b119050919050565b600081519050919050565b7f4e487b7100000000000000000000000000000000000000000000000000000000600052604160045260246000fd5b7f4e487b7100000000000000000000000000000000000000000000000000000000600052602260045260246000fd5b60006002820490506001821680620008ec57607f821691505b602082108103620009025762000901620008a4565b5b50919050565b60008190508160005260206000209050919050565b60006020601f8301049050919050565b600082821b905092915050565b6000600883026200096c7fffffffffffffffffffffffffffffffffffffffffffffffffffffffffffffffff826200092d565b6200097886836200092d565b95508019841693508086168417925050509392505050565b6000819050919050565b6000819050919050565b6000620009c5620009bf620009b98462000990565b6200099a565b62000990565b9050919050565b6000819050919050565b620009e183620009a4565b620009f9620009f082620009cc565b8484546200093a565b825550505050565b600090565b62000a1062000a01565b62000a1d818484620009d6565b505050565b5b8181101562000a455762000a3960008262000a06565b60018101905062000a23565b5050565b601f82111562000a945762000a5e8162000908565b62000a69846200091d565b8101602085101562000a79578190505b62000a9162000a88856200091d565b83018262000a22565b50505b505050565b600082821c905092915050565b600062000ab96000198460080262000a99565b1980831691505092915050565b600062000ad4838362000aa6565b9150826002028217905092915050565b62000aef826200086a565b67ffffffffffffffff81111562000b0b5762000b0a62000875565b5b62000b178254620008d3565b62000b2482828562000a49565b600060209050601f83116001811462000b5c576000841562000b47578287015190505b62000b53858262000ac6565b86555062000bc3565b601f19841662000b6c8662000908565b60005b8281101562000b965784890151825560018201915060208501945060208101905062000b6f565b8683101562000bb6578489015162000bb2601f89168262000aa6565b8355505b6001600288020188555050505b505050505050565b600082825260208201905092915050565b7f455243313135353a206d696e7420746f20746865207a65726f2061646472657360008201527f7300000000000000000000000000000000000000000000000000000000000000602082015250565b600062000c3a60218362000bcb565b915062000c478262000bdc565b604082019050919050565b6000602082019050818103600083015262000c6d8162000c2b565b9050919050565b7f4e487b7100000000000000000000000000000000000000000000000000000000600052601160045260246000fd5b600062000cb08262000990565b915062000cbd8362000990565b925082820190508082111562000cd85762000cd762000c74565b5b92915050565b62000ce98162000990565b82525050565b600060408201905062000d06600083018562000cde565b62000d15602083018462000cde565b9392505050565b7f4e487b7100000000000000000000000000000000000000000000000000000000600052603260045260246000fd5b600073ffffffffffffffffffffffffffffffffffffffff82169050919050565b600062000d788262000d4b565b9050919050565b62000d8a8162000d6b565b82525050565b600081519050919050565b600082825260208201905092915050565b60005b8381101562000dcc57808201518184015260208101905062000daf565b60008484015250505050565b6000601f19601f8301169050919050565b600062000df68262000d90565b62000e02818562000d9b565b935062000e1481856020860162000dac565b62000e1f8162000dd8565b840191505092915050565b600060a08201905062000e41600083018862000d7f565b62000e50602083018762000d7f565b62000e5f604083018662000cde565b62000e6e606083018562000cde565b818103608083015262000e82818462000de9565b90509695505050505050565b6000604051905090565b600080fd5b60007fffffffff0000000000000000000000000000000000000000000000000000000082169050919050565b62000ed48162000e9d565b811462000ee057600080fd5b50565b60008151905062000ef48162000ec9565b92915050565b60006020828403121562000f135762000f1262000e98565b5b600062000f238482850162000ee3565b91505092915050565b60008160e01c9050919050565b600060033d111562000f5b5760046000803e62000f5860005162000f2c565b90505b90565b62000f698262000dd8565b810181811067ffffffffffffffff8211171562000f8b5762000f8a62000875565b5b80604052505050565b600060443d106200102c5762000fa962000e8e565b60043d036004823e80513d602482011167ffffffffffffffff8211171562000fd35750506200102c565b808201805167ffffffffffffffff81111562000ff357505050506200102c565b80602083010160043d038501811115620010125750505050506200102c565b620010238260200185018662000f5e565b82955050505050505b90565b60006200103c826200086a565b62001048818562000bcb565b93506200105a81856020860162000dac565b620010658162000dd8565b840191505092915050565b600060208201905081810360008301526200108c81846200102f565b905092915050565b7f455243313135353a207472616e7366657220746f206e6f6e2d4552433131353560008201527f526563656976657220696d706c656d656e746572000000000000000000000000602082015250565b6000620010f260348362000bcb565b9150620010ff8262001094565b604082019050919050565b600060208201905081810360008301526200112581620010e3565b9050919050565b7f455243313135353a204552433131353552656365697665722072656a6563746560008201527f6420746f6b656e73000000000000000000000000000000000000000000000000602082015250565b60006200118a60288362000bcb565b915062001197826200112c565b604082019050919050565b60006020820190508181036000830152620011bd816200117b565b9050919050565b6135f480620011d46000396000f3fe608060405234801561001057600080fd5b50600436106101fa5760003560e01c80637e6ad7521161011a578063e6aa96a5116100ad578063ef7d81a41161007c578063ef7d81a414610599578063f242432a146105b7578063f2fde38b146105d3578063f5298aca146105ef578063f8a8fd6d1461060b576101fa565b8063e6aa96a51461050f578063e985e9c51461052d578063e9ceafb11461055d578063eac11c921461057b576101fa565b8063a9f82eb9116100e9578063a9f82eb914610497578063c07dc687146104b5578063d945927c146104d3578063e51e469e146104f1576101fa565b80637e6ad752146104215780638da5cb5b1461043f5780639d28e87e1461045d578063a22cb4651461047b576101fa565b80634d06e0af1161019257806370acb1b01161016157806370acb1b0146103bf578063715018a6146103dd578063731133e9146103e75780637de8a08114610403576101fa565b80634d06e0af146103355780634e1273f4146103535780635414e613146103835780636dfd4ecc146103a1576101fa565b806316f14794116101ce57806316f14794146102ad5780632eb2c2d6146102cb578063436a281a146102e7578063485e648914610317576101fa565b8062fdd58e146101ff57806301ffc9a71461022f5780630e89341c1461025f578063106661851461028f575b600080fd5b61021960048036038101906102149190611fdf565b610629565b604051610226919061202e565b60405180910390f35b610249600480360381019061024491906120a1565b6106f1565b60405161025691906120e9565b60405180910390f35b61027960048036038101906102749190612104565b6107d3565b60405161028691906121c1565b60405180910390f35b610297610867565b6040516102a4919061202e565b60405180910390f35b6102b561086c565b6040516102c2919061202e565b60405180910390f35b6102e560048036038101906102e091906123e0565b610871565b005b61030160048036038101906102fc9190611fdf565b610912565b60405161030e91906120e9565b60405180910390f35b61031f61092e565b60405161032c919061202e565b60405180910390f35b61033d610933565b60405161034a919061202e565b60405180910390f35b61036d60048036038101906103689190612572565b610938565b60405161037a91906126a8565b60405180910390f35b61038b610a51565b604051610398919061202e565b60405180910390f35b6103a9610a56565b6040516103b6919061202e565b60405180910390f35b6103c7610a5b565b6040516103d4919061202e565b60405180910390f35b6103e5610a60565b005b61040160048036038101906103fc91906126ca565b610a74565b005b61040b610b48565b604051610418919061202e565b60405180910390f35b610429610b4d565b604051610436919061202e565b60405180910390f35b610447610b52565b604051610454919061275c565b60405180910390f35b610465610b7c565b604051610472919061202e565b60405180910390f35b610495600480360381019061049091906127a3565b610b81565b005b61049f610b97565b6040516104ac919061202e565b60405180910390f35b6104bd610b9c565b6040516104ca919061202e565b60405180910390f35b6104db610ba1565b6040516104e8919061202e565b60405180910390f35b6104f9610ba6565b604051610506919061202e565b60405180910390f35b610517610bab565b604051610524919061202e565b60405180910390f35b610547600480360381019061054291906127e3565b610bb0565b60405161055491906120e9565b60405180910390f35b610565610c44565b604051610572919061202e565b60405180910390f35b610583610c49565b604051610590919061202e565b60405180910390f35b6105a1610c4e565b6040516105ae91906120e9565b60405180910390f35b6105d160048036038101906105cc9190612823565b610c61565b005b6105ed60048036038101906105e891906128ba565b610d02565b005b610609600480360381019061060491906128e7565b610d85565b005b610613610de8565b60405161062091906121c1565b60405180910390f35b60008073ffffffffffffffffffffffffffffffffffffffff168373ffffffffffffffffffffffffffffffffffffffff1603610699576040517f08c379a0000000000000000000000000000000000000000000000000000000008152600401610690906129ac565b60405180910390fd5b60008083815260200190815260200160002060008473ffffffffffffffffffffffffffffffffffffffff1673ffffffffffffffffffffffffffffffffffffffff16815260200190815260200160002054905092915050565b60007fd9b67a26000000000000000000000000000000000000000000000000000000007bffffffffffffffffffffffffffffffffffffffffffffffffffffffff1916827bffffffffffffffffffffffffffffffffffffffffffffffffffffffff191614806107bc57507f0e89341c000000000000000000000000000000000000000000000000000000007bffffffffffffffffffffffffffffffffffffffffffffffffffffffff1916827bffffffffffffffffffffffffffffffffffffffffffffffffffffffff1916145b806107cc57506107cb82610e2b565b5b9050919050565b6060600280546107e2906129fb565b80601f016020809104026020016040519081016040528092919081815260200182805461080e906129fb565b801561085b5780601f106108305761010080835404028352916020019161085b565b820191906000526020600020905b81548152906001019060200180831161083e57829003601f168201915b50505050509050919050565b600b81565b600481565b610879610e95565b73ffffffffffffffffffffffffffffffffffffffff168573ffffffffffffffffffffffffffffffffffffffff1614806108bf57506108be856108b9610e95565b610bb0565b5b6108fe576040517f08c379a00000000000000000000000000000000000000000000000000000000081526004016108f590612a9e565b60405180910390fd5b61090b8585858585610e9d565b5050505050565b60008061091f8484610629565b90506000811191505092915050565b600c81565b600381565b6060815183511461097e576040517f08c379a000000000000000000000000000000000000000000000000000000000815260040161097590612b30565b60405180910390fd5b6000835167ffffffffffffffff81111561099b5761099a6121e8565b5b6040519080825280602002602001820160405280156109c95781602001602082028036833780820191505090505b50905060005b8451811015610a4657610a168582815181106109ee576109ed612b50565b5b6020026020010151858381518110610a0957610a08612b50565b5b6020026020010151610629565b828281518110610a2957610a28612b50565b5b60200260200101818152505080610a3f90612bae565b90506109cf565b508091505092915050565b600d81565b600581565b600881565b610a686111be565b610a72600061123c565b565b60018310158015610a86575060118311155b610ac5576040517f08c379a0000000000000000000000000000000000000000000000000000000008152600401610abc90612c42565b60405180910390fd5b60001515600360149054906101000a900460ff16151514610b1b576040517f08c379a0000000000000000000000000000000000000000000000000000000008152600401610b1290612cae565b60405180910390fd5b610b2784848484611302565b6001600360146101000a81548160ff02191690831515021790555050505050565b600281565b601081565b6000600360009054906101000a900473ffffffffffffffffffffffffffffffffffffffff16905090565b600181565b610b93610b8c610e95565b83836114b2565b5050565b600a81565b600681565b600981565b600e81565b600f81565b6000600160008473ffffffffffffffffffffffffffffffffffffffff1673ffffffffffffffffffffffffffffffffffffffff16815260200190815260200160002060008373ffffffffffffffffffffffffffffffffffffffff1673ffffffffffffffffffffffffffffffffffffffff16815260200190815260200160002060009054906101000a900460ff16905092915050565b600781565b601181565b600360149054906101000a900460ff1681565b610c69610e95565b73ffffffffffffffffffffffffffffffffffffffff168573ffffffffffffffffffffffffffffffffffffffff161480610caf5750610cae85610ca9610e95565b610bb0565b5b610cee576040517f08c379a0000000000000000000000000000000000000000000000000000000008152600401610ce590612a9e565b60405180910390fd5b610cfb858585858561161e565b5050505050565b610d0a6111be565b600073ffffffffffffffffffffffffffffffffffffffff168173ffffffffffffffffffffffffffffffffffffffff1603610d79576040517f08c379a0000000000000000000000000000000000000000000000000000000008152600401610d7090612d40565b60405180910390fd5b610d828161123c565b50565b8273ffffffffffffffffffffffffffffffffffffffff163373ffffffffffffffffffffffffffffffffffffffff1614610dbd57600080fd5b610dc88383836118b9565b6000600360146101000a81548160ff021916908315150217905550505050565b606060405180606001604052806024815260200161359b60249139905090565b6000808273ffffffffffffffffffffffffffffffffffffffff163b119050919050565b60007f01ffc9a7000000000000000000000000000000000000000000000000000000007bffffffffffffffffffffffffffffffffffffffffffffffffffffffff1916827bffffffffffffffffffffffffffffffffffffffffffffffffffffffff1916149050919050565b600033905090565b8151835114610ee1576040517f08c379a0000000000000000000000000000000000000000000000000000000008152600401610ed890612dd2565b60405180910390fd5b600073ffffffffffffffffffffffffffffffffffffffff168473ffffffffffffffffffffffffffffffffffffffff1603610f50576040517f08c379a0000000000000000000000000000000000000000000000000000000008152600401610f4790612e64565b60405180910390fd5b6000610f5a610e95565b9050610f6a818787878787611aff565b60005b845181101561111b576000858281518110610f8b57610f8a612b50565b5b602002602001015190506000858381518110610faa57610fa9612b50565b5b60200260200101519050600080600084815260200190815260200160002060008b73ffffffffffffffffffffffffffffffffffffffff1673ffffffffffffffffffffffffffffffffffffffff1681526020019081526020016000205490508181101561104b576040517f08c379a000000000000000000000000000000000000000000000000000000000815260040161104290612ef6565b60405180910390fd5b81810360008085815260200190815260200160002060008c73ffffffffffffffffffffffffffffffffffffffff1673ffffffffffffffffffffffffffffffffffffffff168152602001908152602001600020819055508160008085815260200190815260200160002060008b73ffffffffffffffffffffffffffffffffffffffff1673ffffffffffffffffffffffffffffffffffffffff16815260200190815260200160002060008282546111009190612f16565b925050819055505050508061111490612bae565b9050610f6d565b508473ffffffffffffffffffffffffffffffffffffffff168673ffffffffffffffffffffffffffffffffffffffff168273ffffffffffffffffffffffffffffffffffffffff167f4a39dc06d4c0dbc64b70af90fd698a233a518aa5d07e595d983b8c0526c8f7fb8787604051611192929190612f4a565b60405180910390a46111a8818787878787611b07565b6111b6818787878787611b0f565b505050505050565b6111c6610e95565b73ffffffffffffffffffffffffffffffffffffffff166111e4610b52565b73ffffffffffffffffffffffffffffffffffffffff161461123a576040517f08c379a000000000000000000000000000000000000000000000000000000000815260040161123190612fcd565b60405180910390fd5b565b6000600360009054906101000a900473ffffffffffffffffffffffffffffffffffffffff16905081600360006101000a81548173ffffffffffffffffffffffffffffffffffffffff021916908373ffffffffffffffffffffffffffffffffffffffff1602179055508173ffffffffffffffffffffffffffffffffffffffff168173ffffffffffffffffffffffffffffffffffffffff167f8be0079c531659141344cd1fd0a4f28419497f9722a3daafe3b4186f6b6457e060405160405180910390a35050565b600073ffffffffffffffffffffffffffffffffffffffff168473ffffffffffffffffffffffffffffffffffffffff1603611371576040517f08c379a00000000000000000000000000000000000000000000000000000000081526004016113689061305f565b60405180910390fd5b600061137b610e95565b9050600061138885611ce6565b9050600061139585611ce6565b90506113a683600089858589611aff565b8460008088815260200190815260200160002060008973ffffffffffffffffffffffffffffffffffffffff1673ffffffffffffffffffffffffffffffffffffffff16815260200190815260200160002060008282546114059190612f16565b925050819055508673ffffffffffffffffffffffffffffffffffffffff16600073ffffffffffffffffffffffffffffffffffffffff168473ffffffffffffffffffffffffffffffffffffffff167fc3d58168c5ae7397731d063d5bbf3d657854427343f4c083240f7aacaa2d0f62898960405161148392919061307f565b60405180910390a461149a83600089858589611b07565b6114a983600089898989611d60565b50505050505050565b8173ffffffffffffffffffffffffffffffffffffffff168373ffffffffffffffffffffffffffffffffffffffff1603611520576040517f08c379a00000000000000000000000000000000000000000000000000000000081526004016115179061311a565b60405180910390fd5b80600160008573ffffffffffffffffffffffffffffffffffffffff1673ffffffffffffffffffffffffffffffffffffffff16815260200190815260200160002060008473ffffffffffffffffffffffffffffffffffffffff1673ffffffffffffffffffffffffffffffffffffffff16815260200190815260200160002060006101000a81548160ff0219169083151502179055508173ffffffffffffffffffffffffffffffffffffffff168373ffffffffffffffffffffffffffffffffffffffff167f17307eab39ab6107e8899845ad3d59bd9653f200f220920489ca2b5937696c318360405161161191906120e9565b60405180910390a3505050565b600073ffffffffffffffffffffffffffffffffffffffff168473ffffffffffffffffffffffffffffffffffffffff160361168d576040517f08c379a000000000000000000000000000000000000000000000000000000000815260040161168490612e64565b60405180910390fd5b6000611697610e95565b905060006116a485611ce6565b905060006116b185611ce6565b90506116c1838989858589611aff565b600080600088815260200190815260200160002060008a73ffffffffffffffffffffffffffffffffffffffff1673ffffffffffffffffffffffffffffffffffffffff16815260200190815260200160002054905085811015611758576040517f08c379a000000000000000000000000000000000000000000000000000000000815260040161174f90612ef6565b60405180910390fd5b85810360008089815260200190815260200160002060008b73ffffffffffffffffffffffffffffffffffffffff1673ffffffffffffffffffffffffffffffffffffffff168152602001908152602001600020819055508560008089815260200190815260200160002060008a73ffffffffffffffffffffffffffffffffffffffff1673ffffffffffffffffffffffffffffffffffffffff168152602001908152602001600020600082825461180d9190612f16565b925050819055508773ffffffffffffffffffffffffffffffffffffffff168973ffffffffffffffffffffffffffffffffffffffff168573ffffffffffffffffffffffffffffffffffffffff167fc3d58168c5ae7397731d063d5bbf3d657854427343f4c083240f7aacaa2d0f628a8a60405161188a92919061307f565b60405180910390a46118a0848a8a86868a611b07565b6118ae848a8a8a8a8a611d60565b505050505050505050565b600073ffffffffffffffffffffffffffffffffffffffff168373ffffffffffffffffffffffffffffffffffffffff1603611928576040517f08c379a000000000000000000000000000000000000000000000000000000000815260040161191f906131ac565b60405180910390fd5b6000611932610e95565b9050600061193f84611ce6565b9050600061194c84611ce6565b905061196c83876000858560405180602001604052806000815250611aff565b600080600087815260200190815260200160002060008873ffffffffffffffffffffffffffffffffffffffff1673ffffffffffffffffffffffffffffffffffffffff16815260200190815260200160002054905084811015611a03576040517f08c379a00000000000000000000000000000000000000000000000000000000081526004016119fa9061323e565b60405180910390fd5b84810360008088815260200190815260200160002060008973ffffffffffffffffffffffffffffffffffffffff1673ffffffffffffffffffffffffffffffffffffffff16815260200190815260200160002081905550600073ffffffffffffffffffffffffffffffffffffffff168773ffffffffffffffffffffffffffffffffffffffff168573ffffffffffffffffffffffffffffffffffffffff167fc3d58168c5ae7397731d063d5bbf3d657854427343f4c083240f7aacaa2d0f628989604051611ad092919061307f565b60405180910390a4611af684886000868660405180602001604052806000815250611b07565b50505050505050565b505050505050565b505050505050565b611b2e8473ffffffffffffffffffffffffffffffffffffffff16610e08565b15611cde578373ffffffffffffffffffffffffffffffffffffffff1663bc197c8187878686866040518663ffffffff1660e01b8152600401611b749594939291906132b3565b6020604051808303816000875af1925050508015611bb057506040513d601f19601f82011682018060405250810190611bad9190613330565b60015b611c5557611bbc61336a565b806308c379a003611c185750611bd061338c565b80611bdb5750611c1a565b806040517f08c379a0000000000000000000000000000000000000000000000000000000008152600401611c0f91906121c1565b60405180910390fd5b505b6040517f08c379a0000000000000000000000000000000000000000000000000000000008152600401611c4c9061348e565b60405180910390fd5b63bc197c8160e01b7bffffffffffffffffffffffffffffffffffffffffffffffffffffffff1916817bffffffffffffffffffffffffffffffffffffffffffffffffffffffff191614611cdc576040517f08c379a0000000000000000000000000000000000000000000000000000000008152600401611cd390613520565b60405180910390fd5b505b505050505050565b60606000600167ffffffffffffffff811115611d0557611d046121e8565b5b604051908082528060200260200182016040528015611d335781602001602082028036833780820191505090505b5090508281600081518110611d4b57611d4a612b50565b5b60200260200101818152505080915050919050565b611d7f8473ffffffffffffffffffffffffffffffffffffffff16610e08565b15611f2f578373ffffffffffffffffffffffffffffffffffffffff1663f23a6e6187878686866040518663ffffffff1660e01b8152600401611dc5959493929190613540565b6020604051808303816000875af1925050508015611e0157506040513d601f19601f82011682018060405250810190611dfe9190613330565b60015b611ea657611e0d61336a565b806308c379a003611e695750611e2161338c565b80611e2c5750611e6b565b806040517f08c379a0000000000000000000000000000000000000000000000000000000008152600401611e6091906121c1565b60405180910390fd5b505b6040517f08c379a0000000000000000000000000000000000000000000000000000000008152600401611e9d9061348e565b60405180910390fd5b63f23a6e6160e01b7bffffffffffffffffffffffffffffffffffffffffffffffffffffffff1916817bffffffffffffffffffffffffffffffffffffffffffffffffffffffff191614611f2d576040517f08c379a0000000000000000000000000000000000000000000000000000000008152600401611f2490613520565b60405180910390fd5b505b505050505050565b6000604051905090565b600080fd5b600080fd5b600073ffffffffffffffffffffffffffffffffffffffff82169050919050565b6000611f7682611f4b565b9050919050565b611f8681611f6b565b8114611f9157600080fd5b50565b600081359050611fa381611f7d565b92915050565b6000819050919050565b611fbc81611fa9565b8114611fc757600080fd5b50565b600081359050611fd981611fb3565b92915050565b60008060408385031215611ff657611ff5611f41565b5b600061200485828601611f94565b925050602061201585828601611fca565b9150509250929050565b61202881611fa9565b82525050565b6000602082019050612043600083018461201f565b92915050565b60007fffffffff0000000000000000000000000000000000000000000000000000000082169050919050565b61207e81612049565b811461208957600080fd5b50565b60008135905061209b81612075565b92915050565b6000602082840312156120b7576120b6611f41565b5b60006120c58482850161208c565b91505092915050565b60008115159050919050565b6120e3816120ce565b82525050565b60006020820190506120fe60008301846120da565b92915050565b60006020828403121561211a57612119611f41565b5b600061212884828501611fca565b91505092915050565b600081519050919050565b600082825260208201905092915050565b60005b8381101561216b578082015181840152602081019050612150565b60008484015250505050565b6000601f19601f8301169050919050565b600061219382612131565b61219d818561213c565b93506121ad81856020860161214d565b6121b681612177565b840191505092915050565b600060208201905081810360008301526121db8184612188565b905092915050565b600080fd5b7f4e487b7100000000000000000000000000000000000000000000000000000000600052604160045260246000fd5b61222082612177565b810181811067ffffffffffffffff8211171561223f5761223e6121e8565b5b80604052505050565b6000612252611f37565b905061225e8282612217565b919050565b600067ffffffffffffffff82111561227e5761227d6121e8565b5b602082029050602081019050919050565b600080fd5b60006122a76122a284612263565b612248565b905080838252602082019050602084028301858111156122ca576122c961228f565b5b835b818110156122f357806122df8882611fca565b8452602084019350506020810190506122cc565b5050509392505050565b600082601f830112612312576123116121e3565b5b8135612322848260208601612294565b91505092915050565b600080fd5b600067ffffffffffffffff82111561234b5761234a6121e8565b5b61235482612177565b9050602081019050919050565b82818337600083830152505050565b600061238361237e84612330565b612248565b90508281526020810184848401111561239f5761239e61232b565b5b6123aa848285612361565b509392505050565b600082601f8301126123c7576123c66121e3565b5b81356123d7848260208601612370565b91505092915050565b600080600080600060a086880312156123fc576123fb611f41565b5b600061240a88828901611f94565b955050602061241b88828901611f94565b945050604086013567ffffffffffffffff81111561243c5761243b611f46565b5b612448888289016122fd565b935050606086013567ffffffffffffffff81111561246957612468611f46565b5b612475888289016122fd565b925050608086013567ffffffffffffffff81111561249657612495611f46565b5b6124a2888289016123b2565b9150509295509295909350565b600067ffffffffffffffff8211156124ca576124c96121e8565b5b602082029050602081019050919050565b60006124ee6124e9846124af565b612248565b905080838252602082019050602084028301858111156125115761251061228f565b5b835b8181101561253a57806125268882611f94565b845260208401935050602081019050612513565b5050509392505050565b600082601f830112612559576125586121e3565b5b81356125698482602086016124db565b91505092915050565b6000806040838503121561258957612588611f41565b5b600083013567ffffffffffffffff8111156125a7576125a6611f46565b5b6125b385828601612544565b925050602083013567ffffffffffffffff8111156125d4576125d3611f46565b5b6125e0858286016122fd565b9150509250929050565b600081519050919050565b600082825260208201905092915050565b6000819050602082019050919050565b61261f81611fa9565b82525050565b60006126318383612616565b60208301905092915050565b6000602082019050919050565b6000612655826125ea565b61265f81856125f5565b935061266a83612606565b8060005b8381101561269b5781516126828882612625565b975061268d8361263d565b92505060018101905061266e565b5085935050505092915050565b600060208201905081810360008301526126c2818461264a565b905092915050565b600080600080608085870312156126e4576126e3611f41565b5b60006126f287828801611f94565b945050602061270387828801611fca565b935050604061271487828801611fca565b925050606085013567ffffffffffffffff81111561273557612734611f46565b5b612741878288016123b2565b91505092959194509250565b61275681611f6b565b82525050565b6000602082019050612771600083018461274d565b92915050565b612780816120ce565b811461278b57600080fd5b50565b60008135905061279d81612777565b92915050565b600080604083850312156127ba576127b9611f41565b5b60006127c885828601611f94565b92505060206127d98582860161278e565b9150509250929050565b600080604083850312156127fa576127f9611f41565b5b600061280885828601611f94565b925050602061281985828601611f94565b9150509250929050565b600080600080600060a0868803121561283f5761283e611f41565b5b600061284d88828901611f94565b955050602061285e88828901611f94565b945050604061286f88828901611fca565b935050606061288088828901611fca565b925050608086013567ffffffffffffffff8111156128a1576128a0611f46565b5b6128ad888289016123b2565b9150509295509295909350565b6000602082840312156128d0576128cf611f41565b5b60006128de84828501611f94565b91505092915050565b600080600060608486031215612900576128ff611f41565b5b600061290e86828701611f94565b935050602061291f86828701611fca565b925050604061293086828701611fca565b9150509250925092565b7f455243313135353a2061646472657373207a65726f206973206e6f742061207660008201527f616c6964206f776e657200000000000000000000000000000000000000000000602082015250565b6000612996602a8361213c565b91506129a18261293a565b604082019050919050565b600060208201905081810360008301526129c581612989565b9050919050565b7f4e487b7100000000000000000000000000000000000000000000000000000000600052602260045260246000fd5b60006002820490506001821680612a1357607f821691505b602082108103612a2657612a256129cc565b5b50919050565b7f455243313135353a2063616c6c6572206973206e6f7420746f6b656e206f776e60008201527f6572206f7220617070726f766564000000000000000000000000000000000000602082015250565b6000612a88602e8361213c565b9150612a9382612a2c565b604082019050919050565b60006020820190508181036000830152612ab781612a7b565b9050919050565b7f455243313135353a206163636f756e747320616e6420696473206c656e67746860008201527f206d69736d617463680000000000000000000000000000000000000000000000602082015250565b6000612b1a60298361213c565b9150612b2582612abe565b604082019050919050565b60006020820190508181036000830152612b4981612b0d565b9050919050565b7f4e487b7100000000000000000000000000000000000000000000000000000000600052603260045260246000fd5b7f4e487b7100000000000000000000000000000000000000000000000000000000600052601160045260246000fd5b6000612bb982611fa9565b91507fffffffffffffffffffffffffffffffffffffffffffffffffffffffffffffffff8203612beb57612bea612b7f565b5b600182019050919050565b7f496e76616c696420636f6c6c6567652069642100000000000000000000000000600082015250565b6000612c2c60138361213c565b9150612c3782612bf6565b602082019050919050565b60006020820190508181036000830152612c5b81612c1f565b9050919050565b7f557365722068617320616c7265616479206d696e74656420616e204e46542100600082015250565b6000612c98601f8361213c565b9150612ca382612c62565b602082019050919050565b60006020820190508181036000830152612cc781612c8b565b9050919050565b7f4f776e61626c653a206e6577206f776e657220697320746865207a65726f206160008201527f6464726573730000000000000000000000000000000000000000000000000000602082015250565b6000612d2a60268361213c565b9150612d3582612cce565b604082019050919050565b60006020820190508181036000830152612d5981612d1d565b9050919050565b7f455243313135353a2069647320616e6420616d6f756e7473206c656e6774682060008201527f6d69736d61746368000000000000000000000000000000000000000000000000602082015250565b6000612dbc60288361213c565b9150612dc782612d60565b604082019050919050565b60006020820190508181036000830152612deb81612daf565b9050919050565b7f455243313135353a207472616e7366657220746f20746865207a65726f20616460008201527f6472657373000000000000000000000000000000000000000000000000000000602082015250565b6000612e4e60258361213c565b9150612e5982612df2565b604082019050919050565b60006020820190508181036000830152612e7d81612e41565b9050919050565b7f455243313135353a20696e73756666696369656e742062616c616e636520666f60008201527f72207472616e7366657200000000000000000000000000000000000000000000602082015250565b6000612ee0602a8361213c565b9150612eeb82612e84565b604082019050919050565b60006020820190508181036000830152612f0f81612ed3565b9050919050565b6000612f2182611fa9565b9150612f2c83611fa9565b9250828201905080821115612f4457612f43612b7f565b5b92915050565b60006040820190508181036000830152612f64818561264a565b90508181036020830152612f78818461264a565b90509392505050565b7f4f776e61626c653a2063616c6c6572206973206e6f7420746865206f776e6572600082015250565b6000612fb760208361213c565b9150612fc282612f81565b602082019050919050565b60006020820190508181036000830152612fe681612faa565b9050919050565b7f455243313135353a206d696e7420746f20746865207a65726f2061646472657360008201527f7300000000000000000000000000000000000000000000000000000000000000602082015250565b600061304960218361213c565b915061305482612fed565b604082019050919050565b600060208201905081810360008301526130788161303c565b9050919050565b6000604082019050613094600083018561201f565b6130a1602083018461201f565b9392505050565b7f455243313135353a2073657474696e6720617070726f76616c2073746174757360008201527f20666f722073656c660000000000000000000000000000000000000000000000602082015250565b600061310460298361213c565b915061310f826130a8565b604082019050919050565b60006020820190508181036000830152613133816130f7565b9050919050565b7f455243313135353a206275726e2066726f6d20746865207a65726f206164647260008201527f6573730000000000000000000000000000000000000000000000000000000000602082015250565b600061319660238361213c565b91506131a18261313a565b604082019050919050565b600060208201905081810360008301526131c581613189565b9050919050565b7f455243313135353a206275726e20616d6f756e7420657863656564732062616c60008201527f616e636500000000000000000000000000000000000000000000000000000000602082015250565b600061322860248361213c565b9150613233826131cc565b604082019050919050565b600060208201905081810360008301526132578161321b565b9050919050565b600081519050919050565b600082825260208201905092915050565b60006132858261325e565b61328f8185613269565b935061329f81856020860161214d565b6132a881612177565b840191505092915050565b600060a0820190506132c8600083018861274d565b6132d5602083018761274d565b81810360408301526132e7818661264a565b905081810360608301526132fb818561264a565b9050818103608083015261330f818461327a565b90509695505050505050565b60008151905061332a81612075565b92915050565b60006020828403121561334657613345611f41565b5b60006133548482850161331b565b91505092915050565b60008160e01c9050919050565b600060033d11156133895760046000803e61338660005161335d565b90505b90565b600060443d106134195761339e611f37565b60043d036004823e80513d602482011167ffffffffffffffff821117156133c6575050613419565b808201805167ffffffffffffffff8111156133e45750505050613419565b80602083010160043d038501811115613401575050505050613419565b61341082602001850186612217565b82955050505050505b90565b7f455243313135353a207472616e7366657220746f206e6f6e2d4552433131353560008201527f526563656976657220696d706c656d656e746572000000000000000000000000602082015250565b600061347860348361213c565b91506134838261341c565b604082019050919050565b600060208201905081810360008301526134a78161346b565b9050919050565b7f455243313135353a204552433131353552656365697665722072656a6563746560008201527f6420746f6b656e73000000000000000000000000000000000000000000000000602082015250565b600061350a60288361213c565b9150613515826134ae565b604082019050919050565b60006020820190508181036000830152613539816134fd565b9050919050565b600060a082019050613555600083018861274d565b613562602083018761274d565b61356f604083018661201f565b61357c606083018561201f565b818103608083015261358e818461327a565b9050969550505050505056fe436f6e6e656374656420746f20436f6c6c65676520736d61727420636f6e747261637421a2646970667358221220edba25567bade4d65705bfe548e8f268e31afb6f31ef3774c248855b3cb04efc64736f6c6343000812003368747470733a2f2f6d792d6a736f6e2d7365727665722e74797069636f64652e636f6d2f636564726963717569746f722f626c6f636b636861696e2d7765622d6170702f636f6c6c656765732f7b69647d",
  "linkReferences": {},
  "deployedLinkReferences": {}
}