{
  "_format": "hh-sol-artifact-1",
  "contractName": "College",
  "sourceName": "contracts/College.sol",
  "abi": [
    {
      "inputs": [],
      "stateMutability": "nonpayable",
      "type": "constructor"
    },
    {
      "anonymous": false,
      "inputs": [
        {
          "indexed": true,
          "internalType": "address",
          "name": "account",
          "type": "address"
        },
        {
          "indexed": true,
          "internalType": "address",
          "name": "operator",
          "type": "address"
        },
        {
          "indexed": false,
          "internalType": "bool",
          "name": "approved",
          "type": "bool"
        }
      ],
      "name": "ApprovalForAll",
      "type": "event"
    },
    {
      "anonymous": false,
      "inputs": [
        {
          "indexed": true,
          "internalType": "address",
          "name": "previousOwner",
          "type": "address"
        },
        {
          "indexed": true,
          "internalType": "address",
          "name": "newOwner",
          "type": "address"
        }
      ],
      "name": "OwnershipTransferred",
      "type": "event"
    },
    {
      "anonymous": false,
      "inputs": [
        {
          "indexed": true,
          "internalType": "address",
          "name": "operator",
          "type": "address"
        },
        {
          "indexed": true,
          "internalType": "address",
          "name": "from",
          "type": "address"
        },
        {
          "indexed": true,
          "internalType": "address",
          "name": "to",
          "type": "address"
        },
        {
          "indexed": false,
          "internalType": "uint256[]",
          "name": "ids",
          "type": "uint256[]"
        },
        {
          "indexed": false,
          "internalType": "uint256[]",
          "name": "values",
          "type": "uint256[]"
        }
      ],
      "name": "TransferBatch",
      "type": "event"
    },
    {
      "anonymous": false,
      "inputs": [
        {
          "indexed": true,
          "internalType": "address",
          "name": "operator",
          "type": "address"
        },
        {
          "indexed": true,
          "internalType": "address",
          "name": "from",
          "type": "address"
        },
        {
          "indexed": true,
          "internalType": "address",
          "name": "to",
          "type": "address"
        },
        {
          "indexed": false,
          "internalType": "uint256",
          "name": "id",
          "type": "uint256"
        },
        {
          "indexed": false,
          "internalType": "uint256",
          "name": "value",
          "type": "uint256"
        }
      ],
      "name": "TransferSingle",
      "type": "event"
    },
    {
      "anonymous": false,
      "inputs": [
        {
          "indexed": false,
          "internalType": "string",
          "name": "value",
          "type": "string"
        },
        {
          "indexed": true,
          "internalType": "uint256",
          "name": "id",
          "type": "uint256"
        }
      ],
      "name": "URI",
      "type": "event"
    },
    {
      "inputs": [
        {
          "internalType": "string",
          "name": "_name",
          "type": "string"
        },
        {
          "internalType": "string",
          "name": "_program",
          "type": "string"
        },
        {
          "internalType": "string",
          "name": "_imageUrl",
          "type": "string"
        }
      ],
      "name": "addCandidate",
      "outputs": [],
      "stateMutability": "nonpayable",
      "type": "function"
    },
    {
      "inputs": [
        {
          "internalType": "address",
          "name": "account",
          "type": "address"
        },
        {
          "internalType": "uint256",
          "name": "id",
          "type": "uint256"
        }
      ],
      "name": "balanceOf",
      "outputs": [
        {
          "internalType": "uint256",
          "name": "",
          "type": "uint256"
        }
      ],
      "stateMutability": "view",
      "type": "function"
    },
    {
      "inputs": [
        {
          "internalType": "address[]",
          "name": "accounts",
          "type": "address[]"
        },
        {
          "internalType": "uint256[]",
          "name": "ids",
          "type": "uint256[]"
        }
      ],
      "name": "balanceOfBatch",
      "outputs": [
        {
          "internalType": "uint256[]",
          "name": "",
          "type": "uint256[]"
        }
      ],
      "stateMutability": "view",
      "type": "function"
    },
    {
      "inputs": [
        {
          "internalType": "address",
          "name": "account",
          "type": "address"
        },
        {
          "internalType": "uint256",
          "name": "id",
          "type": "uint256"
        },
        {
          "internalType": "uint256",
          "name": "amount",
          "type": "uint256"
        }
      ],
      "name": "burn",
      "outputs": [],
      "stateMutability": "nonpayable",
      "type": "function"
    },
    {
      "inputs": [
        {
          "internalType": "address",
          "name": "account",
          "type": "address"
        },
        {
          "internalType": "uint256",
          "name": "id",
          "type": "uint256"
        }
      ],
      "name": "checkNFTOwnership",
      "outputs": [
        {
          "internalType": "bool",
          "name": "",
          "type": "bool"
        }
      ],
      "stateMutability": "view",
      "type": "function"
    },
    {
      "inputs": [],
      "name": "endVoting",
      "outputs": [
        {
          "components": [
            {
              "internalType": "string",
              "name": "name",
              "type": "string"
            },
            {
              "internalType": "string",
              "name": "program",
              "type": "string"
            },
            {
              "internalType": "string",
              "name": "imageUrl",
              "type": "string"
            },
            {
              "internalType": "uint256",
              "name": "voteCount",
              "type": "uint256"
            }
          ],
          "internalType": "struct College.Candidate[]",
          "name": "",
          "type": "tuple[]"
        }
      ],
      "stateMutability": "view",
      "type": "function"
    },
    {
      "inputs": [],
      "name": "getAllCandidates",
      "outputs": [
        {
          "components": [
            {
              "internalType": "string",
              "name": "name",
              "type": "string"
            },
            {
              "internalType": "string",
              "name": "program",
              "type": "string"
            },
            {
              "internalType": "string",
              "name": "imageUrl",
              "type": "string"
            },
            {
              "internalType": "uint256",
              "name": "voteCount",
              "type": "uint256"
            }
          ],
          "internalType": "struct College.Candidate[]",
          "name": "",
          "type": "tuple[]"
        }
      ],
      "stateMutability": "view",
      "type": "function"
    },
    {
      "inputs": [
        {
          "internalType": "address",
          "name": "account",
          "type": "address"
        }
      ],
      "name": "getOwnedNFT",
      "outputs": [
        {
          "internalType": "uint256",
          "name": "",
          "type": "uint256"
        }
      ],
      "stateMutability": "view",
      "type": "function"
    },
    {
      "inputs": [
        {
          "internalType": "address",
          "name": "",
          "type": "address"
        }
      ],
      "name": "hasVoted",
      "outputs": [
        {
          "internalType": "bool",
          "name": "",
          "type": "bool"
        }
      ],
      "stateMutability": "view",
      "type": "function"
    },
    {
      "inputs": [
        {
          "internalType": "address",
          "name": "account",
          "type": "address"
        },
        {
          "internalType": "address",
          "name": "operator",
          "type": "address"
        }
      ],
      "name": "isApprovedForAll",
      "outputs": [
        {
          "internalType": "bool",
          "name": "",
          "type": "bool"
        }
      ],
      "stateMutability": "view",
      "type": "function"
    },
    {
      "inputs": [
        {
          "internalType": "address",
          "name": "account",
          "type": "address"
        },
        {
          "internalType": "uint256",
          "name": "id",
          "type": "uint256"
        },
        {
          "internalType": "uint256",
          "name": "amount",
          "type": "uint256"
        },
        {
          "internalType": "bytes",
          "name": "data",
          "type": "bytes"
        }
      ],
      "name": "mint",
      "outputs": [],
      "stateMutability": "nonpayable",
      "type": "function"
    },
    {
      "inputs": [],
      "name": "name",
      "outputs": [
        {
          "internalType": "string",
          "name": "",
          "type": "string"
        }
      ],
      "stateMutability": "view",
      "type": "function"
    },
    {
      "inputs": [],
      "name": "owner",
      "outputs": [
        {
          "internalType": "address",
          "name": "",
          "type": "address"
        }
      ],
      "stateMutability": "view",
      "type": "function"
    },
    {
      "inputs": [
        {
          "internalType": "uint256",
          "name": "_id",
          "type": "uint256"
        }
      ],
      "name": "removeCandidate",
      "outputs": [],
      "stateMutability": "nonpayable",
      "type": "function"
    },
    {
      "inputs": [],
      "name": "renounceOwnership",
      "outputs": [],
      "stateMutability": "nonpayable",
      "type": "function"
    },
    {
      "inputs": [],
      "name": "resetVoting",
      "outputs": [],
      "stateMutability": "nonpayable",
      "type": "function"
    },
    {
      "inputs": [
        {
          "internalType": "address",
          "name": "from",
          "type": "address"
        },
        {
          "internalType": "address",
          "name": "to",
          "type": "address"
        },
        {
          "internalType": "uint256[]",
          "name": "ids",
          "type": "uint256[]"
        },
        {
          "internalType": "uint256[]",
          "name": "amounts",
          "type": "uint256[]"
        },
        {
          "internalType": "bytes",
          "name": "data",
          "type": "bytes"
        }
      ],
      "name": "safeBatchTransferFrom",
      "outputs": [],
      "stateMutability": "nonpayable",
      "type": "function"
    },
    {
      "inputs": [
        {
          "internalType": "address",
          "name": "from",
          "type": "address"
        },
        {
          "internalType": "address",
          "name": "to",
          "type": "address"
        },
        {
          "internalType": "uint256",
          "name": "id",
          "type": "uint256"
        },
        {
          "internalType": "uint256",
          "name": "amount",
          "type": "uint256"
        },
        {
          "internalType": "bytes",
          "name": "data",
          "type": "bytes"
        }
      ],
      "name": "safeTransferFrom",
      "outputs": [],
      "stateMutability": "nonpayable",
      "type": "function"
    },
    {
      "inputs": [
        {
          "internalType": "address",
          "name": "operator",
          "type": "address"
        },
        {
          "internalType": "bool",
          "name": "approved",
          "type": "bool"
        }
      ],
      "name": "setApprovalForAll",
      "outputs": [],
      "stateMutability": "nonpayable",
      "type": "function"
    },
    {
      "inputs": [
        {
          "internalType": "bytes4",
          "name": "interfaceId",
          "type": "bytes4"
        }
      ],
      "name": "supportsInterface",
      "outputs": [
        {
          "internalType": "bool",
          "name": "",
          "type": "bool"
        }
      ],
      "stateMutability": "view",
      "type": "function"
    },
    {
      "inputs": [],
      "name": "test",
      "outputs": [
        {
          "internalType": "string",
          "name": "",
          "type": "string"
        }
      ],
      "stateMutability": "pure",
      "type": "function"
    },
    {
      "inputs": [
        {
          "internalType": "address",
          "name": "newOwner",
          "type": "address"
        }
      ],
      "name": "transferOwnership",
      "outputs": [],
      "stateMutability": "nonpayable",
      "type": "function"
    },
    {
      "inputs": [
        {
          "internalType": "uint256",
          "name": "",
          "type": "uint256"
        }
      ],
      "name": "uri",
      "outputs": [
        {
          "internalType": "string",
          "name": "",
          "type": "string"
        }
      ],
      "stateMutability": "view",
      "type": "function"
    },
    {
      "inputs": [
        {
          "internalType": "uint256",
          "name": "_id",
          "type": "uint256"
        }
      ],
      "name": "voteCandidate",
      "outputs": [],
      "stateMutability": "nonpayable",
      "type": "function"
    }
  ],
  "bytecode": "0x60806040526040518060400160405280600a81526020017f424f544f6d6173696e6f00000000000000000000000000000000000000000000815250600490816200004a91906200040d565b5060006007553480156200005d57600080fd5b506040518060800160405280605181526020016200544a605191396200008981620000b060201b60201c565b50620000aa6200009e620000c560201b60201c565b620000cd60201b60201c565b620004f4565b8060029081620000c191906200040d565b5050565b600033905090565b6000600360009054906101000a900473ffffffffffffffffffffffffffffffffffffffff16905081600360006101000a81548173ffffffffffffffffffffffffffffffffffffffff021916908373ffffffffffffffffffffffffffffffffffffffff1602179055508173ffffffffffffffffffffffffffffffffffffffff168173ffffffffffffffffffffffffffffffffffffffff167f8be0079c531659141344cd1fd0a4f28419497f9722a3daafe3b4186f6b6457e060405160405180910390a35050565b600081519050919050565b7f4e487b7100000000000000000000000000000000000000000000000000000000600052604160045260246000fd5b7f4e487b7100000000000000000000000000000000000000000000000000000000600052602260045260246000fd5b600060028204905060018216806200021557607f821691505b6020821081036200022b576200022a620001cd565b5b50919050565b60008190508160005260206000209050919050565b60006020601f8301049050919050565b600082821b905092915050565b600060088302620002957fffffffffffffffffffffffffffffffffffffffffffffffffffffffffffffffff8262000256565b620002a1868362000256565b95508019841693508086168417925050509392505050565b6000819050919050565b6000819050919050565b6000620002ee620002e8620002e284620002b9565b620002c3565b620002b9565b9050919050565b6000819050919050565b6200030a83620002cd565b620003226200031982620002f5565b84845462000263565b825550505050565b600090565b620003396200032a565b62000346818484620002ff565b505050565b5b818110156200036e57620003626000826200032f565b6001810190506200034c565b5050565b601f821115620003bd57620003878162000231565b620003928462000246565b81016020851015620003a2578190505b620003ba620003b18562000246565b8301826200034b565b50505b505050565b600082821c905092915050565b6000620003e260001984600802620003c2565b1980831691505092915050565b6000620003fd8383620003cf565b9150826002028217905092915050565b620004188262000193565b67ffffffffffffffff8111156200043457620004336200019e565b5b620004408254620001fc565b6200044d82828562000372565b600060209050601f83116001811462000485576000841562000470578287015190505b6200047c8582620003ef565b865550620004ec565b601f198416620004958662000231565b60005b82811015620004bf5784890151825560018201915060208501945060208101905062000498565b86831015620004df5784890151620004db601f891682620003cf565b8355505b6001600288020188555050505b505050505050565b614f4680620005046000396000f3fe608060405234801561001057600080fd5b50600436106101575760003560e01c8063731133e9116100c3578063c3403ddf1161007c578063c3403ddf146103c2578063e985e9c5146103e0578063f242432a14610410578063f2fde38b1461042c578063f5298aca14610448578063f8a8fd6d1461046457610157565b8063731133e91461032a578063856e698c146103465780638c08a4dc146103505780638da5cb5b1461036c578063a22cb4651461038a578063ad71f8dc146103a657610157565b80630e89341c116101155780630e89341c146102565780632e6997fe146102865780632eb2c2d6146102a4578063436a281a146102c05780634e1273f4146102f0578063715018a61461032057610157565b8062fdd58e1461015c57806301ffc9a71461018c57806306fdde03146101bc57806309e9d7e2146101da57806309eef43e146101f65780630d10964114610226575b600080fd5b61017660048036038101906101719190612e0d565b610482565b6040516101839190612e5c565b60405180910390f35b6101a660048036038101906101a19190612ecf565b61054a565b6040516101b39190612f17565b60405180910390f35b6101c461062c565b6040516101d19190612fc2565b60405180910390f35b6101f460048036038101906101ef9190612fe4565b6106ba565b005b610210600480360381019061020b9190613011565b610899565b60405161021d9190612f17565b60405180910390f35b610240600480360381019061023b9190613011565b6108b9565b60405161024d9190612e5c565b60405180910390f35b610270600480360381019061026b9190612fe4565b6108ff565b60405161027d9190612fc2565b60405180910390f35b61028e610993565b60405161029b91906131ca565b60405180910390f35b6102be60048036038101906102b991906133e9565b610c22565b005b6102da60048036038101906102d59190612e0d565b610cc3565b6040516102e79190612f17565b60405180910390f35b61030a6004803603810190610305919061357b565b610cdf565b60405161031791906136a2565b60405180910390f35b610328610df8565b005b610344600480360381019061033f91906136c4565b610e0c565b005b61034e610f5a565b005b61036a60048036038101906103659190612fe4565b61110a565b005b61037461135e565b6040516103819190613756565b60405180910390f35b6103a4600480360381019061039f919061379d565b611388565b005b6103c060048036038101906103bb919061387e565b61139e565b005b6103ca6114b6565b6040516103d791906131ca565b60405180910390f35b6103fa60048036038101906103f59190613925565b611918565b6040516104079190612f17565b60405180910390f35b61042a60048036038101906104259190613965565b6119ac565b005b61044660048036038101906104419190613011565b611a4d565b005b610462600480360381019061045d91906139fc565b611ad0565b005b61046c611b70565b6040516104799190612fc2565b60405180910390f35b60008073ffffffffffffffffffffffffffffffffffffffff168373ffffffffffffffffffffffffffffffffffffffff16036104f2576040517f08c379a00000000000000000000000000000000000000000000000000000000081526004016104e990613ac1565b60405180910390fd5b60008083815260200190815260200160002060008473ffffffffffffffffffffffffffffffffffffffff1673ffffffffffffffffffffffffffffffffffffffff16815260200190815260200160002054905092915050565b60007fd9b67a26000000000000000000000000000000000000000000000000000000007bffffffffffffffffffffffffffffffffffffffffffffffffffffffff1916827bffffffffffffffffffffffffffffffffffffffffffffffffffffffff1916148061061557507f0e89341c000000000000000000000000000000000000000000000000000000007bffffffffffffffffffffffffffffffffffffffffffffffffffffffff1916827bffffffffffffffffffffffffffffffffffffffffffffffffffffffff1916145b80610625575061062482611b90565b5b9050919050565b6004805461063990613b10565b80601f016020809104026020016040519081016040528092919081815260200182805461066590613b10565b80156106b25780601f10610687576101008083540402835291602001916106b2565b820191906000526020600020905b81548152906001019060200180831161069557829003601f168201915b505050505081565b6106c261135e565b73ffffffffffffffffffffffffffffffffffffffff163373ffffffffffffffffffffffffffffffffffffffff161461072f576040517f08c379a000000000000000000000000000000000000000000000000000000000815260040161072690613bb3565b60405180910390fd5b60008111801561074157506007548111155b610780576040517f08c379a000000000000000000000000000000000000000000000000000000000815260040161077790613c1f565b60405180910390fd5b60008190505b60075481101561082157600660006001836107a19190613c6e565b815260200190815260200160002060066000838152602001908152602001600020600082018160000190816107d69190613e64565b50600182018160010190816107eb9190613e64565b50600282018160020190816108009190613e64565b5060038201548160030155905050808061081990613f4c565b915050610786565b506007600081548092919061083590613f94565b919050555060066000600160075461084d9190613c6e565b81526020019081526020016000206000808201600061086c9190612cbf565b60018201600061087c9190612cbf565b60028201600061088c9190612cbf565b6003820160009055505050565b60086020528060005260406000206000915054906101000a900460ff1681565b600080600190505b601181116108f4576108d38382610cc3565b156108e157809150506108fa565b80806108ec90613f4c565b9150506108c1565b50600090505b919050565b60606002805461090e90613b10565b80601f016020809104026020016040519081016040528092919081815260200182805461093a90613b10565b80156109875780601f1061095c57610100808354040283529160200191610987565b820191906000526020600020905b81548152906001019060200180831161096a57829003601f168201915b50505050509050919050565b6060600060075467ffffffffffffffff8111156109b3576109b26131f1565b5b6040519080825280602002602001820160405280156109ec57816020015b6109d9612cff565b8152602001906001900390816109d15790505b5090506000600190505b6007548111610c1a5760066000828152602001908152602001600020604051806080016040529081600082018054610a2d90613b10565b80601f0160208091040260200160405190810160405280929190818152602001828054610a5990613b10565b8015610aa65780601f10610a7b57610100808354040283529160200191610aa6565b820191906000526020600020905b815481529060010190602001808311610a8957829003601f168201915b50505050508152602001600182018054610abf90613b10565b80601f0160208091040260200160405190810160405280929190818152602001828054610aeb90613b10565b8015610b385780601f10610b0d57610100808354040283529160200191610b38565b820191906000526020600020905b815481529060010190602001808311610b1b57829003601f168201915b50505050508152602001600282018054610b5190613b10565b80601f0160208091040260200160405190810160405280929190818152602001828054610b7d90613b10565b8015610bca5780601f10610b9f57610100808354040283529160200191610bca565b820191906000526020600020905b815481529060010190602001808311610bad57829003601f168201915b5050505050815260200160038201548152505082600183610beb9190613fbd565b81518110610bfc57610bfb613ff1565b5b60200260200101819052508080610c1290613f4c565b9150506109f6565b508091505090565b610c2a611bfa565b73ffffffffffffffffffffffffffffffffffffffff168573ffffffffffffffffffffffffffffffffffffffff161480610c705750610c6f85610c6a611bfa565b611918565b5b610caf576040517f08c379a0000000000000000000000000000000000000000000000000000000008152600401610ca690614092565b60405180910390fd5b610cbc8585858585611c02565b5050505050565b600080610cd08484610482565b90506000811191505092915050565b60608151835114610d25576040517f08c379a0000000000000000000000000000000000000000000000000000000008152600401610d1c90614124565b60405180910390fd5b6000835167ffffffffffffffff811115610d4257610d416131f1565b5b604051908082528060200260200182016040528015610d705781602001602082028036833780820191505090505b50905060005b8451811015610ded57610dbd858281518110610d9557610d94613ff1565b5b6020026020010151858381518110610db057610daf613ff1565b5b6020026020010151610482565b828281518110610dd057610dcf613ff1565b5b60200260200101818152505080610de690613f4c565b9050610d76565b508091505092915050565b610e00611f23565b610e0a6000611fa1565b565b60018310158015610e1e575060118311155b610e5d576040517f08c379a0000000000000000000000000000000000000000000000000000000008152600401610e5490614190565b60405180910390fd5b60001515600560008673ffffffffffffffffffffffffffffffffffffffff1673ffffffffffffffffffffffffffffffffffffffff16815260200190815260200160002060009054906101000a900460ff16151514610ef0576040517f08c379a0000000000000000000000000000000000000000000000000000000008152600401610ee7906141fc565b60405180910390fd5b610efc84848484612067565b6001600560008673ffffffffffffffffffffffffffffffffffffffff1673ffffffffffffffffffffffffffffffffffffffff16815260200190815260200160002060006101000a81548160ff02191690831515021790555050505050565b610f6261135e565b73ffffffffffffffffffffffffffffffffffffffff163373ffffffffffffffffffffffffffffffffffffffff1614610fcf576040517f08c379a0000000000000000000000000000000000000000000000000000000008152600401610fc69061428e565b60405180910390fd5b6000600190505b60075481116110405760066000828152602001908152602001600020600080820160006110039190612cbf565b6001820160006110139190612cbf565b6002820160006110239190612cbf565b60038201600090555050808061103890613f4c565b915050610fd6565b50600060078190555060005b6009805490508110156110f957600860006009838154811061107157611070613ff1565b5b9060005260206000200160009054906101000a900473ffffffffffffffffffffffffffffffffffffffff1673ffffffffffffffffffffffffffffffffffffffff1673ffffffffffffffffffffffffffffffffffffffff16815260200190815260200160002060006101000a81549060ff021916905580806110f190613f4c565b91505061104c565b50600960006111089190612d27565b565b600860003373ffffffffffffffffffffffffffffffffffffffff1673ffffffffffffffffffffffffffffffffffffffff16815260200190815260200160002060009054906101000a900460ff1615611197576040517f08c379a000000000000000000000000000000000000000000000000000000000815260040161118e906142fa565b60405180910390fd5b600560003373ffffffffffffffffffffffffffffffffffffffff1673ffffffffffffffffffffffffffffffffffffffff16815260200190815260200160002060009054906101000a900460ff16611223576040517f08c379a000000000000000000000000000000000000000000000000000000000815260040161121a90614366565b60405180910390fd5b60008111801561123557506007548111155b611274576040517f08c379a000000000000000000000000000000000000000000000000000000000815260040161126b90613c1f565b60405180910390fd5b60066000828152602001908152602001600020600301600081548092919061129b90613f4c565b91905055506001600860003373ffffffffffffffffffffffffffffffffffffffff1673ffffffffffffffffffffffffffffffffffffffff16815260200190815260200160002060006101000a81548160ff0219169083151502179055506009339080600181540180825580915050600190039060005260206000200160009091909190916101000a81548173ffffffffffffffffffffffffffffffffffffffff021916908373ffffffffffffffffffffffffffffffffffffffff16021790555050565b6000600360009054906101000a900473ffffffffffffffffffffffffffffffffffffffff16905090565b61139a611393611bfa565b8383612217565b5050565b6113a661135e565b73ffffffffffffffffffffffffffffffffffffffff163373ffffffffffffffffffffffffffffffffffffffff1614611413576040517f08c379a000000000000000000000000000000000000000000000000000000000815260040161140a906143f8565b60405180910390fd5b6007600081548092919061142690613f4c565b91905055506040518060800160405280848152602001838152602001828152602001600081525060066000600754815260200190815260200160002060008201518160000190816114779190614418565b50602082015181600101908161148d9190614418565b5060408201518160020190816114a39190614418565b5060608201518160030155905050505050565b60606114c061135e565b73ffffffffffffffffffffffffffffffffffffffff163373ffffffffffffffffffffffffffffffffffffffff161461152d576040517f08c379a00000000000000000000000000000000000000000000000000000000081526004016115249061455c565b60405180910390fd5b600060075411611572576040517f08c379a0000000000000000000000000000000000000000000000000000000008152600401611569906145c8565b60405180910390fd5b6000600980549050116115ba576040517f08c379a00000000000000000000000000000000000000000000000000000000081526004016115b190614634565b60405180910390fd5b6000806000600190505b600754811161161857826006600083815260200190815260200160002060030154111561160557600660008281526020019081526020016000206003015492505b808061161090613f4c565b9150506115c4565b506000600190505b6007548111611668578260066000838152602001908152602001600020600301540361165557818061165190613f4c565b9250505b808061166090613f4c565b915050611620565b5060008167ffffffffffffffff811115611685576116846131f1565b5b6040519080825280602002602001820160405280156116be57816020015b6116ab612cff565b8152602001906001900390816116a35790505b509050600080600190505b600754811161190d57846006600083815260200190815260200160002060030154036118fa576006600082815260200190815260200160002060405180608001604052908160008201805461171d90613b10565b80601f016020809104026020016040519081016040528092919081815260200182805461174990613b10565b80156117965780601f1061176b57610100808354040283529160200191611796565b820191906000526020600020905b81548152906001019060200180831161177957829003601f168201915b505050505081526020016001820180546117af90613b10565b80601f01602080910402602001604051908101604052809291908181526020018280546117db90613b10565b80156118285780601f106117fd57610100808354040283529160200191611828565b820191906000526020600020905b81548152906001019060200180831161180b57829003601f168201915b5050505050815260200160028201805461184190613b10565b80601f016020809104026020016040519081016040528092919081815260200182805461186d90613b10565b80156118ba5780601f1061188f576101008083540402835291602001916118ba565b820191906000526020600020905b81548152906001019060200180831161189d57829003601f168201915b505050505081526020016003820154815250508383815181106118e0576118df613ff1565b5b602002602001018190525081806118f690613f4c565b9250505b808061190590613f4c565b9150506116c9565b508194505050505090565b6000600160008473ffffffffffffffffffffffffffffffffffffffff1673ffffffffffffffffffffffffffffffffffffffff16815260200190815260200160002060008373ffffffffffffffffffffffffffffffffffffffff1673ffffffffffffffffffffffffffffffffffffffff16815260200190815260200160002060009054906101000a900460ff16905092915050565b6119b4611bfa565b73ffffffffffffffffffffffffffffffffffffffff168573ffffffffffffffffffffffffffffffffffffffff1614806119fa57506119f9856119f4611bfa565b611918565b5b611a39576040517f08c379a0000000000000000000000000000000000000000000000000000000008152600401611a3090614092565b60405180910390fd5b611a468585858585612383565b5050505050565b611a55611f23565b600073ffffffffffffffffffffffffffffffffffffffff168173ffffffffffffffffffffffffffffffffffffffff1603611ac4576040517f08c379a0000000000000000000000000000000000000000000000000000000008152600401611abb906146c6565b60405180910390fd5b611acd81611fa1565b50565b8273ffffffffffffffffffffffffffffffffffffffff163373ffffffffffffffffffffffffffffffffffffffff1614611b0857600080fd5b611b1383838361261e565b6000600560008573ffffffffffffffffffffffffffffffffffffffff1673ffffffffffffffffffffffffffffffffffffffff16815260200190815260200160002060006101000a81548160ff021916908315150217905550505050565b6060604051806060016040528060248152602001614eed60249139905090565b60007f01ffc9a7000000000000000000000000000000000000000000000000000000007bffffffffffffffffffffffffffffffffffffffffffffffffffffffff1916827bffffffffffffffffffffffffffffffffffffffffffffffffffffffff1916149050919050565b600033905090565b8151835114611c46576040517f08c379a0000000000000000000000000000000000000000000000000000000008152600401611c3d90614758565b60405180910390fd5b600073ffffffffffffffffffffffffffffffffffffffff168473ffffffffffffffffffffffffffffffffffffffff1603611cb5576040517f08c379a0000000000000000000000000000000000000000000000000000000008152600401611cac906147ea565b60405180910390fd5b6000611cbf611bfa565b9050611ccf818787878787612864565b60005b8451811015611e80576000858281518110611cf057611cef613ff1565b5b602002602001015190506000858381518110611d0f57611d0e613ff1565b5b60200260200101519050600080600084815260200190815260200160002060008b73ffffffffffffffffffffffffffffffffffffffff1673ffffffffffffffffffffffffffffffffffffffff16815260200190815260200160002054905081811015611db0576040517f08c379a0000000000000000000000000000000000000000000000000000000008152600401611da79061487c565b60405180910390fd5b81810360008085815260200190815260200160002060008c73ffffffffffffffffffffffffffffffffffffffff1673ffffffffffffffffffffffffffffffffffffffff168152602001908152602001600020819055508160008085815260200190815260200160002060008b73ffffffffffffffffffffffffffffffffffffffff1673ffffffffffffffffffffffffffffffffffffffff1681526020019081526020016000206000828254611e659190613c6e565b9250508190555050505080611e7990613f4c565b9050611cd2565b508473ffffffffffffffffffffffffffffffffffffffff168673ffffffffffffffffffffffffffffffffffffffff168273ffffffffffffffffffffffffffffffffffffffff167f4a39dc06d4c0dbc64b70af90fd698a233a518aa5d07e595d983b8c0526c8f7fb8787604051611ef792919061489c565b60405180910390a4611f0d81878787878761286c565b611f1b818787878787612874565b505050505050565b611f2b611bfa565b73ffffffffffffffffffffffffffffffffffffffff16611f4961135e565b73ffffffffffffffffffffffffffffffffffffffff1614611f9f576040517f08c379a0000000000000000000000000000000000000000000000000000000008152600401611f969061491f565b60405180910390fd5b565b6000600360009054906101000a900473ffffffffffffffffffffffffffffffffffffffff16905081600360006101000a81548173ffffffffffffffffffffffffffffffffffffffff021916908373ffffffffffffffffffffffffffffffffffffffff1602179055508173ffffffffffffffffffffffffffffffffffffffff168173ffffffffffffffffffffffffffffffffffffffff167f8be0079c531659141344cd1fd0a4f28419497f9722a3daafe3b4186f6b6457e060405160405180910390a35050565b600073ffffffffffffffffffffffffffffffffffffffff168473ffffffffffffffffffffffffffffffffffffffff16036120d6576040517f08c379a00000000000000000000000000000000000000000000000000000000081526004016120cd906149b1565b60405180910390fd5b60006120e0611bfa565b905060006120ed85612a4b565b905060006120fa85612a4b565b905061210b83600089858589612864565b8460008088815260200190815260200160002060008973ffffffffffffffffffffffffffffffffffffffff1673ffffffffffffffffffffffffffffffffffffffff168152602001908152602001600020600082825461216a9190613c6e565b925050819055508673ffffffffffffffffffffffffffffffffffffffff16600073ffffffffffffffffffffffffffffffffffffffff168473ffffffffffffffffffffffffffffffffffffffff167fc3d58168c5ae7397731d063d5bbf3d657854427343f4c083240f7aacaa2d0f6289896040516121e89291906149d1565b60405180910390a46121ff8360008985858961286c565b61220e83600089898989612ac5565b50505050505050565b8173ffffffffffffffffffffffffffffffffffffffff168373ffffffffffffffffffffffffffffffffffffffff1603612285576040517f08c379a000000000000000000000000000000000000000000000000000000000815260040161227c90614a6c565b60405180910390fd5b80600160008573ffffffffffffffffffffffffffffffffffffffff1673ffffffffffffffffffffffffffffffffffffffff16815260200190815260200160002060008473ffffffffffffffffffffffffffffffffffffffff1673ffffffffffffffffffffffffffffffffffffffff16815260200190815260200160002060006101000a81548160ff0219169083151502179055508173ffffffffffffffffffffffffffffffffffffffff168373ffffffffffffffffffffffffffffffffffffffff167f17307eab39ab6107e8899845ad3d59bd9653f200f220920489ca2b5937696c31836040516123769190612f17565b60405180910390a3505050565b600073ffffffffffffffffffffffffffffffffffffffff168473ffffffffffffffffffffffffffffffffffffffff16036123f2576040517f08c379a00000000000000000000000000000000000000000000000000000000081526004016123e9906147ea565b60405180910390fd5b60006123fc611bfa565b9050600061240985612a4b565b9050600061241685612a4b565b9050612426838989858589612864565b600080600088815260200190815260200160002060008a73ffffffffffffffffffffffffffffffffffffffff1673ffffffffffffffffffffffffffffffffffffffff168152602001908152602001600020549050858110156124bd576040517f08c379a00000000000000000000000000000000000000000000000000000000081526004016124b49061487c565b60405180910390fd5b85810360008089815260200190815260200160002060008b73ffffffffffffffffffffffffffffffffffffffff1673ffffffffffffffffffffffffffffffffffffffff168152602001908152602001600020819055508560008089815260200190815260200160002060008a73ffffffffffffffffffffffffffffffffffffffff1673ffffffffffffffffffffffffffffffffffffffff16815260200190815260200160002060008282546125729190613c6e565b925050819055508773ffffffffffffffffffffffffffffffffffffffff168973ffffffffffffffffffffffffffffffffffffffff168573ffffffffffffffffffffffffffffffffffffffff167fc3d58168c5ae7397731d063d5bbf3d657854427343f4c083240f7aacaa2d0f628a8a6040516125ef9291906149d1565b60405180910390a4612605848a8a86868a61286c565b612613848a8a8a8a8a612ac5565b505050505050505050565b600073ffffffffffffffffffffffffffffffffffffffff168373ffffffffffffffffffffffffffffffffffffffff160361268d576040517f08c379a000000000000000000000000000000000000000000000000000000000815260040161268490614afe565b60405180910390fd5b6000612697611bfa565b905060006126a484612a4b565b905060006126b184612a4b565b90506126d183876000858560405180602001604052806000815250612864565b600080600087815260200190815260200160002060008873ffffffffffffffffffffffffffffffffffffffff1673ffffffffffffffffffffffffffffffffffffffff16815260200190815260200160002054905084811015612768576040517f08c379a000000000000000000000000000000000000000000000000000000000815260040161275f90614b90565b60405180910390fd5b84810360008088815260200190815260200160002060008973ffffffffffffffffffffffffffffffffffffffff1673ffffffffffffffffffffffffffffffffffffffff16815260200190815260200160002081905550600073ffffffffffffffffffffffffffffffffffffffff168773ffffffffffffffffffffffffffffffffffffffff168573ffffffffffffffffffffffffffffffffffffffff167fc3d58168c5ae7397731d063d5bbf3d657854427343f4c083240f7aacaa2d0f6289896040516128359291906149d1565b60405180910390a461285b8488600086866040518060200160405280600081525061286c565b50505050505050565b505050505050565b505050505050565b6128938473ffffffffffffffffffffffffffffffffffffffff16612c9c565b15612a43578373ffffffffffffffffffffffffffffffffffffffff1663bc197c8187878686866040518663ffffffff1660e01b81526004016128d9959493929190614c05565b6020604051808303816000875af192505050801561291557506040513d601f19601f820116820180604052508101906129129190614c82565b60015b6129ba57612921614cbc565b806308c379a00361297d5750612935614cde565b80612940575061297f565b806040517f08c379a00000000000000000000000000000000000000000000000000000000081526004016129749190612fc2565b60405180910390fd5b505b6040517f08c379a00000000000000000000000000000000000000000000000000000000081526004016129b190614de0565b60405180910390fd5b63bc197c8160e01b7bffffffffffffffffffffffffffffffffffffffffffffffffffffffff1916817bffffffffffffffffffffffffffffffffffffffffffffffffffffffff191614612a41576040517f08c379a0000000000000000000000000000000000000000000000000000000008152600401612a3890614e72565b60405180910390fd5b505b505050505050565b60606000600167ffffffffffffffff811115612a6a57612a696131f1565b5b604051908082528060200260200182016040528015612a985781602001602082028036833780820191505090505b5090508281600081518110612ab057612aaf613ff1565b5b60200260200101818152505080915050919050565b612ae48473ffffffffffffffffffffffffffffffffffffffff16612c9c565b15612c94578373ffffffffffffffffffffffffffffffffffffffff1663f23a6e6187878686866040518663ffffffff1660e01b8152600401612b2a959493929190614e92565b6020604051808303816000875af1925050508015612b6657506040513d601f19601f82011682018060405250810190612b639190614c82565b60015b612c0b57612b72614cbc565b806308c379a003612bce5750612b86614cde565b80612b915750612bd0565b806040517f08c379a0000000000000000000000000000000000000000000000000000000008152600401612bc59190612fc2565b60405180910390fd5b505b6040517f08c379a0000000000000000000000000000000000000000000000000000000008152600401612c0290614de0565b60405180910390fd5b63f23a6e6160e01b7bffffffffffffffffffffffffffffffffffffffffffffffffffffffff1916817bffffffffffffffffffffffffffffffffffffffffffffffffffffffff191614612c92576040517f08c379a0000000000000000000000000000000000000000000000000000000008152600401612c8990614e72565b60405180910390fd5b505b505050505050565b6000808273ffffffffffffffffffffffffffffffffffffffff163b119050919050565b508054612ccb90613b10565b6000825580601f10612cdd5750612cfc565b601f016020900490600052602060002090810190612cfb9190612d48565b5b50565b6040518060800160405280606081526020016060815260200160608152602001600081525090565b5080546000825590600052602060002090810190612d459190612d48565b50565b5b80821115612d61576000816000905550600101612d49565b5090565b6000604051905090565b600080fd5b600080fd5b600073ffffffffffffffffffffffffffffffffffffffff82169050919050565b6000612da482612d79565b9050919050565b612db481612d99565b8114612dbf57600080fd5b50565b600081359050612dd181612dab565b92915050565b6000819050919050565b612dea81612dd7565b8114612df557600080fd5b50565b600081359050612e0781612de1565b92915050565b60008060408385031215612e2457612e23612d6f565b5b6000612e3285828601612dc2565b9250506020612e4385828601612df8565b9150509250929050565b612e5681612dd7565b82525050565b6000602082019050612e716000830184612e4d565b92915050565b60007fffffffff0000000000000000000000000000000000000000000000000000000082169050919050565b612eac81612e77565b8114612eb757600080fd5b50565b600081359050612ec981612ea3565b92915050565b600060208284031215612ee557612ee4612d6f565b5b6000612ef384828501612eba565b91505092915050565b60008115159050919050565b612f1181612efc565b82525050565b6000602082019050612f2c6000830184612f08565b92915050565b600081519050919050565b600082825260208201905092915050565b60005b83811015612f6c578082015181840152602081019050612f51565b60008484015250505050565b6000601f19601f8301169050919050565b6000612f9482612f32565b612f9e8185612f3d565b9350612fae818560208601612f4e565b612fb781612f78565b840191505092915050565b60006020820190508181036000830152612fdc8184612f89565b905092915050565b600060208284031215612ffa57612ff9612d6f565b5b600061300884828501612df8565b91505092915050565b60006020828403121561302757613026612d6f565b5b600061303584828501612dc2565b91505092915050565b600081519050919050565b600082825260208201905092915050565b6000819050602082019050919050565b600082825260208201905092915050565b600061308682612f32565b613090818561306a565b93506130a0818560208601612f4e565b6130a981612f78565b840191505092915050565b6130bd81612dd7565b82525050565b600060808301600083015184820360008601526130e0828261307b565b915050602083015184820360208601526130fa828261307b565b91505060408301518482036040860152613114828261307b565b915050606083015161312960608601826130b4565b508091505092915050565b600061314083836130c3565b905092915050565b6000602082019050919050565b60006131608261303e565b61316a8185613049565b93508360208202850161317c8561305a565b8060005b858110156131b857848403895281516131998582613134565b94506131a483613148565b925060208a01995050600181019050613180565b50829750879550505050505092915050565b600060208201905081810360008301526131e48184613155565b905092915050565b600080fd5b7f4e487b7100000000000000000000000000000000000000000000000000000000600052604160045260246000fd5b61322982612f78565b810181811067ffffffffffffffff82111715613248576132476131f1565b5b80604052505050565b600061325b612d65565b90506132678282613220565b919050565b600067ffffffffffffffff821115613287576132866131f1565b5b602082029050602081019050919050565b600080fd5b60006132b06132ab8461326c565b613251565b905080838252602082019050602084028301858111156132d3576132d2613298565b5b835b818110156132fc57806132e88882612df8565b8452602084019350506020810190506132d5565b5050509392505050565b600082601f83011261331b5761331a6131ec565b5b813561332b84826020860161329d565b91505092915050565b600080fd5b600067ffffffffffffffff821115613354576133536131f1565b5b61335d82612f78565b9050602081019050919050565b82818337600083830152505050565b600061338c61338784613339565b613251565b9050828152602081018484840111156133a8576133a7613334565b5b6133b384828561336a565b509392505050565b600082601f8301126133d0576133cf6131ec565b5b81356133e0848260208601613379565b91505092915050565b600080600080600060a0868803121561340557613404612d6f565b5b600061341388828901612dc2565b955050602061342488828901612dc2565b945050604086013567ffffffffffffffff81111561344557613444612d74565b5b61345188828901613306565b935050606086013567ffffffffffffffff81111561347257613471612d74565b5b61347e88828901613306565b925050608086013567ffffffffffffffff81111561349f5761349e612d74565b5b6134ab888289016133bb565b9150509295509295909350565b600067ffffffffffffffff8211156134d3576134d26131f1565b5b602082029050602081019050919050565b60006134f76134f2846134b8565b613251565b9050808382526020820190506020840283018581111561351a57613519613298565b5b835b81811015613543578061352f8882612dc2565b84526020840193505060208101905061351c565b5050509392505050565b600082601f830112613562576135616131ec565b5b81356135728482602086016134e4565b91505092915050565b6000806040838503121561359257613591612d6f565b5b600083013567ffffffffffffffff8111156135b0576135af612d74565b5b6135bc8582860161354d565b925050602083013567ffffffffffffffff8111156135dd576135dc612d74565b5b6135e985828601613306565b9150509250929050565b600081519050919050565b600082825260208201905092915050565b6000819050602082019050919050565b600061362b83836130b4565b60208301905092915050565b6000602082019050919050565b600061364f826135f3565b61365981856135fe565b93506136648361360f565b8060005b8381101561369557815161367c888261361f565b975061368783613637565b925050600181019050613668565b5085935050505092915050565b600060208201905081810360008301526136bc8184613644565b905092915050565b600080600080608085870312156136de576136dd612d6f565b5b60006136ec87828801612dc2565b94505060206136fd87828801612df8565b935050604061370e87828801612df8565b925050606085013567ffffffffffffffff81111561372f5761372e612d74565b5b61373b878288016133bb565b91505092959194509250565b61375081612d99565b82525050565b600060208201905061376b6000830184613747565b92915050565b61377a81612efc565b811461378557600080fd5b50565b60008135905061379781613771565b92915050565b600080604083850312156137b4576137b3612d6f565b5b60006137c285828601612dc2565b92505060206137d385828601613788565b9150509250929050565b600067ffffffffffffffff8211156137f8576137f76131f1565b5b61380182612f78565b9050602081019050919050565b600061382161381c846137dd565b613251565b90508281526020810184848401111561383d5761383c613334565b5b61384884828561336a565b509392505050565b600082601f830112613865576138646131ec565b5b813561387584826020860161380e565b91505092915050565b60008060006060848603121561389757613896612d6f565b5b600084013567ffffffffffffffff8111156138b5576138b4612d74565b5b6138c186828701613850565b935050602084013567ffffffffffffffff8111156138e2576138e1612d74565b5b6138ee86828701613850565b925050604084013567ffffffffffffffff81111561390f5761390e612d74565b5b61391b86828701613850565b9150509250925092565b6000806040838503121561393c5761393b612d6f565b5b600061394a85828601612dc2565b925050602061395b85828601612dc2565b9150509250929050565b600080600080600060a0868803121561398157613980612d6f565b5b600061398f88828901612dc2565b95505060206139a088828901612dc2565b94505060406139b188828901612df8565b93505060606139c288828901612df8565b925050608086013567ffffffffffffffff8111156139e3576139e2612d74565b5b6139ef888289016133bb565b9150509295509295909350565b600080600060608486031215613a1557613a14612d6f565b5b6000613a2386828701612dc2565b9350506020613a3486828701612df8565b9250506040613a4586828701612df8565b9150509250925092565b7f455243313135353a2061646472657373207a65726f206973206e6f742061207660008201527f616c6964206f776e657200000000000000000000000000000000000000000000602082015250565b6000613aab602a83612f3d565b9150613ab682613a4f565b604082019050919050565b60006020820190508181036000830152613ada81613a9e565b9050919050565b7f4e487b7100000000000000000000000000000000000000000000000000000000600052602260045260246000fd5b60006002820490506001821680613b2857607f821691505b602082108103613b3b57613b3a613ae1565b5b50919050565b7f4f6e6c792074686520636f6e7472616374206f776e65722063616e2072656d6f60008201527f76652063616e6469646174657321000000000000000000000000000000000000602082015250565b6000613b9d602e83612f3d565b9150613ba882613b41565b604082019050919050565b60006020820190508181036000830152613bcc81613b90565b9050919050565b7f496e76616c69642063616e646964617465204944210000000000000000000000600082015250565b6000613c09601583612f3d565b9150613c1482613bd3565b602082019050919050565b60006020820190508181036000830152613c3881613bfc565b9050919050565b7f4e487b7100000000000000000000000000000000000000000000000000000000600052601160045260246000fd5b6000613c7982612dd7565b9150613c8483612dd7565b9250828201905080821115613c9c57613c9b613c3f565b5b92915050565b600081549050613cb181613b10565b9050919050565b60008190508160005260206000209050919050565b60006020601f8301049050919050565b600082821b905092915050565b600060088302613d1a7fffffffffffffffffffffffffffffffffffffffffffffffffffffffffffffffff82613cdd565b613d248683613cdd565b95508019841693508086168417925050509392505050565b6000819050919050565b6000613d61613d5c613d5784612dd7565b613d3c565b612dd7565b9050919050565b6000819050919050565b613d7b83613d46565b613d8f613d8782613d68565b848454613cea565b825550505050565b600090565b613da4613d97565b613daf818484613d72565b505050565b5b81811015613dd357613dc8600082613d9c565b600181019050613db5565b5050565b601f821115613e1857613de981613cb8565b613df284613ccd565b81016020851015613e01578190505b613e15613e0d85613ccd565b830182613db4565b50505b505050565b600082821c905092915050565b6000613e3b60001984600802613e1d565b1980831691505092915050565b6000613e548383613e2a565b9150826002028217905092915050565b818103613e72575050613f4a565b613e7b82613ca2565b67ffffffffffffffff811115613e9457613e936131f1565b5b613e9e8254613b10565b613ea9828285613dd7565b6000601f831160018114613ed85760008415613ec6578287015490505b613ed08582613e48565b865550613f43565b601f198416613ee687613cb8565b9650613ef186613cb8565b60005b82811015613f1957848901548255600182019150600185019450602081019050613ef4565b86831015613f365784890154613f32601f891682613e2a565b8355505b6001600288020188555050505b5050505050505b565b6000613f5782612dd7565b91507fffffffffffffffffffffffffffffffffffffffffffffffffffffffffffffffff8203613f8957613f88613c3f565b5b600182019050919050565b6000613f9f82612dd7565b915060008203613fb257613fb1613c3f565b5b600182039050919050565b6000613fc882612dd7565b9150613fd383612dd7565b9250828203905081811115613feb57613fea613c3f565b5b92915050565b7f4e487b7100000000000000000000000000000000000000000000000000000000600052603260045260246000fd5b7f455243313135353a2063616c6c6572206973206e6f7420746f6b656e206f776e60008201527f6572206f7220617070726f766564000000000000000000000000000000000000602082015250565b600061407c602e83612f3d565b915061408782614020565b604082019050919050565b600060208201905081810360008301526140ab8161406f565b9050919050565b7f455243313135353a206163636f756e747320616e6420696473206c656e67746860008201527f206d69736d617463680000000000000000000000000000000000000000000000602082015250565b600061410e602983612f3d565b9150614119826140b2565b604082019050919050565b6000602082019050818103600083015261413d81614101565b9050919050565b7f496e76616c696420636f6c6c6567652069642100000000000000000000000000600082015250565b600061417a601383612f3d565b915061418582614144565b602082019050919050565b600060208201905081810360008301526141a98161416d565b9050919050565b7f596f7527766520616c7265616479206d696e74656420616e204e465421000000600082015250565b60006141e6601d83612f3d565b91506141f1826141b0565b602082019050919050565b60006020820190508181036000830152614215816141d9565b9050919050565b7f4f6e6c792074686520636f6e7472616374206f776e65722063616e207265736560008201527f742074686520636f6e7472616374210000000000000000000000000000000000602082015250565b6000614278602f83612f3d565b91506142838261421c565b604082019050919050565b600060208201905081810360008301526142a78161426b565b9050919050565b7f596f7527766520616c726561647920766f746564210000000000000000000000600082015250565b60006142e4601583612f3d565b91506142ef826142ae565b602082019050919050565b60006020820190508181036000830152614313816142d7565b9050919050565b7f596f75206d757374206861766520616e204e465420746f20766f746521000000600082015250565b6000614350601d83612f3d565b915061435b8261431a565b602082019050919050565b6000602082019050818103600083015261437f81614343565b9050919050565b7f4f6e6c792074686520636f6e7472616374206f776e65722063616e206164642060008201527f63616e6469646174657321000000000000000000000000000000000000000000602082015250565b60006143e2602b83612f3d565b91506143ed82614386565b604082019050919050565b60006020820190508181036000830152614411816143d5565b9050919050565b61442182612f32565b67ffffffffffffffff81111561443a576144396131f1565b5b6144448254613b10565b61444f828285613dd7565b600060209050601f8311600181146144825760008415614470578287015190505b61447a8582613e48565b8655506144e2565b601f19841661449086613cb8565b60005b828110156144b857848901518255600182019150602085019450602081019050614493565b868310156144d557848901516144d1601f891682613e2a565b8355505b6001600288020188555050505b505050505050565b7f4f6e6c792074686520636f6e7472616374206f776e65722063616e20656e642060008201527f74686520766f74696e6721000000000000000000000000000000000000000000602082015250565b6000614546602b83612f3d565b9150614551826144ea565b604082019050919050565b6000602082019050818103600083015261457581614539565b9050919050565b7f546865726520617265206e6f2063616e64696461746573210000000000000000600082015250565b60006145b2601883612f3d565b91506145bd8261457c565b602082019050919050565b600060208201905081810360008301526145e1816145a5565b9050919050565b7f4e6f206f6e652068617320766f74656420796574210000000000000000000000600082015250565b600061461e601583612f3d565b9150614629826145e8565b602082019050919050565b6000602082019050818103600083015261464d81614611565b9050919050565b7f4f776e61626c653a206e6577206f776e657220697320746865207a65726f206160008201527f6464726573730000000000000000000000000000000000000000000000000000602082015250565b60006146b0602683612f3d565b91506146bb82614654565b604082019050919050565b600060208201905081810360008301526146df816146a3565b9050919050565b7f455243313135353a2069647320616e6420616d6f756e7473206c656e6774682060008201527f6d69736d61746368000000000000000000000000000000000000000000000000602082015250565b6000614742602883612f3d565b915061474d826146e6565b604082019050919050565b6000602082019050818103600083015261477181614735565b9050919050565b7f455243313135353a207472616e7366657220746f20746865207a65726f20616460008201527f6472657373000000000000000000000000000000000000000000000000000000602082015250565b60006147d4602583612f3d565b91506147df82614778565b604082019050919050565b60006020820190508181036000830152614803816147c7565b9050919050565b7f455243313135353a20696e73756666696369656e742062616c616e636520666f60008201527f72207472616e7366657200000000000000000000000000000000000000000000602082015250565b6000614866602a83612f3d565b91506148718261480a565b604082019050919050565b6000602082019050818103600083015261489581614859565b9050919050565b600060408201905081810360008301526148b68185613644565b905081810360208301526148ca8184613644565b90509392505050565b7f4f776e61626c653a2063616c6c6572206973206e6f7420746865206f776e6572600082015250565b6000614909602083612f3d565b9150614914826148d3565b602082019050919050565b60006020820190508181036000830152614938816148fc565b9050919050565b7f455243313135353a206d696e7420746f20746865207a65726f2061646472657360008201527f7300000000000000000000000000000000000000000000000000000000000000602082015250565b600061499b602183612f3d565b91506149a68261493f565b604082019050919050565b600060208201905081810360008301526149ca8161498e565b9050919050565b60006040820190506149e66000830185612e4d565b6149f36020830184612e4d565b9392505050565b7f455243313135353a2073657474696e6720617070726f76616c2073746174757360008201527f20666f722073656c660000000000000000000000000000000000000000000000602082015250565b6000614a56602983612f3d565b9150614a61826149fa565b604082019050919050565b60006020820190508181036000830152614a8581614a49565b9050919050565b7f455243313135353a206275726e2066726f6d20746865207a65726f206164647260008201527f6573730000000000000000000000000000000000000000000000000000000000602082015250565b6000614ae8602383612f3d565b9150614af382614a8c565b604082019050919050565b60006020820190508181036000830152614b1781614adb565b9050919050565b7f455243313135353a206275726e20616d6f756e7420657863656564732062616c60008201527f616e636500000000000000000000000000000000000000000000000000000000602082015250565b6000614b7a602483612f3d565b9150614b8582614b1e565b604082019050919050565b60006020820190508181036000830152614ba981614b6d565b9050919050565b600081519050919050565b600082825260208201905092915050565b6000614bd782614bb0565b614be18185614bbb565b9350614bf1818560208601612f4e565b614bfa81612f78565b840191505092915050565b600060a082019050614c1a6000830188613747565b614c276020830187613747565b8181036040830152614c398186613644565b90508181036060830152614c4d8185613644565b90508181036080830152614c618184614bcc565b90509695505050505050565b600081519050614c7c81612ea3565b92915050565b600060208284031215614c9857614c97612d6f565b5b6000614ca684828501614c6d565b91505092915050565b60008160e01c9050919050565b600060033d1115614cdb5760046000803e614cd8600051614caf565b90505b90565b600060443d10614d6b57614cf0612d65565b60043d036004823e80513d602482011167ffffffffffffffff82111715614d18575050614d6b565b808201805167ffffffffffffffff811115614d365750505050614d6b565b80602083010160043d038501811115614d53575050505050614d6b565b614d6282602001850186613220565b82955050505050505b90565b7f455243313135353a207472616e7366657220746f206e6f6e2d4552433131353560008201527f526563656976657220696d706c656d656e746572000000000000000000000000602082015250565b6000614dca603483612f3d565b9150614dd582614d6e565b604082019050919050565b60006020820190508181036000830152614df981614dbd565b9050919050565b7f455243313135353a204552433131353552656365697665722072656a6563746560008201527f6420746f6b656e73000000000000000000000000000000000000000000000000602082015250565b6000614e5c602883612f3d565b9150614e6782614e00565b604082019050919050565b60006020820190508181036000830152614e8b81614e4f565b9050919050565b600060a082019050614ea76000830188613747565b614eb46020830187613747565b614ec16040830186612e4d565b614ece6060830185612e4d565b8181036080830152614ee08184614bcc565b9050969550505050505056fe436f6e6e656374656420746f20436f6c6c65676520736d61727420636f6e747261637421a26469706673582212202b727b767f4a7209e297652e6d2f7ae882aaf4fe3e2fbbb9d98b737b3e1cd74064736f6c6343000812003368747470733a2f2f6d792d6a736f6e2d7365727665722e74797069636f64652e636f6d2f636564726963717569746f722f626c6f636b636861696e2d7765622d6170702f636f6c6c656765732f7b69647d",
  "linkReferences": {},
  "deployedLinkReferences": {}
}