{
  "_format": "hh-sol-artifact-1",
  "contractName": "College",
  "sourceName": "contracts/College.sol",
  "abi": [
    {
      "inputs": [],
      "stateMutability": "nonpayable",
      "type": "constructor"
    },
    {
      "anonymous": false,
      "inputs": [
        {
          "indexed": true,
          "internalType": "address",
          "name": "account",
          "type": "address"
        },
        {
          "indexed": true,
          "internalType": "address",
          "name": "operator",
          "type": "address"
        },
        {
          "indexed": false,
          "internalType": "bool",
          "name": "approved",
          "type": "bool"
        }
      ],
      "name": "ApprovalForAll",
      "type": "event"
    },
    {
      "anonymous": false,
      "inputs": [
        {
          "indexed": true,
          "internalType": "address",
          "name": "previousOwner",
          "type": "address"
        },
        {
          "indexed": true,
          "internalType": "address",
          "name": "newOwner",
          "type": "address"
        }
      ],
      "name": "OwnershipTransferred",
      "type": "event"
    },
    {
      "anonymous": false,
      "inputs": [
        {
          "indexed": true,
          "internalType": "address",
          "name": "operator",
          "type": "address"
        },
        {
          "indexed": true,
          "internalType": "address",
          "name": "from",
          "type": "address"
        },
        {
          "indexed": true,
          "internalType": "address",
          "name": "to",
          "type": "address"
        },
        {
          "indexed": false,
          "internalType": "uint256[]",
          "name": "ids",
          "type": "uint256[]"
        },
        {
          "indexed": false,
          "internalType": "uint256[]",
          "name": "values",
          "type": "uint256[]"
        }
      ],
      "name": "TransferBatch",
      "type": "event"
    },
    {
      "anonymous": false,
      "inputs": [
        {
          "indexed": true,
          "internalType": "address",
          "name": "operator",
          "type": "address"
        },
        {
          "indexed": true,
          "internalType": "address",
          "name": "from",
          "type": "address"
        },
        {
          "indexed": true,
          "internalType": "address",
          "name": "to",
          "type": "address"
        },
        {
          "indexed": false,
          "internalType": "uint256",
          "name": "id",
          "type": "uint256"
        },
        {
          "indexed": false,
          "internalType": "uint256",
          "name": "value",
          "type": "uint256"
        }
      ],
      "name": "TransferSingle",
      "type": "event"
    },
    {
      "anonymous": false,
      "inputs": [
        {
          "indexed": false,
          "internalType": "string",
          "name": "value",
          "type": "string"
        },
        {
          "indexed": true,
          "internalType": "uint256",
          "name": "id",
          "type": "uint256"
        }
      ],
      "name": "URI",
      "type": "event"
    },
    {
      "inputs": [],
      "name": "AMV_COA",
      "outputs": [
        {
          "internalType": "uint256",
          "name": "",
          "type": "uint256"
        }
      ],
      "stateMutability": "view",
      "type": "function"
    },
    {
      "inputs": [],
      "name": "Architecture",
      "outputs": [
        {
          "internalType": "uint256",
          "name": "",
          "type": "uint256"
        }
      ],
      "stateMutability": "view",
      "type": "function"
    },
    {
      "inputs": [],
      "name": "Arts_and_Letters",
      "outputs": [
        {
          "internalType": "uint256",
          "name": "",
          "type": "uint256"
        }
      ],
      "stateMutability": "view",
      "type": "function"
    },
    {
      "inputs": [],
      "name": "CBA",
      "outputs": [
        {
          "internalType": "uint256",
          "name": "",
          "type": "uint256"
        }
      ],
      "stateMutability": "view",
      "type": "function"
    },
    {
      "inputs": [],
      "name": "CFAD",
      "outputs": [
        {
          "internalType": "uint256",
          "name": "",
          "type": "uint256"
        }
      ],
      "stateMutability": "view",
      "type": "function"
    },
    {
      "inputs": [],
      "name": "CICS",
      "outputs": [
        {
          "internalType": "uint256",
          "name": "",
          "type": "uint256"
        }
      ],
      "stateMutability": "view",
      "type": "function"
    },
    {
      "inputs": [],
      "name": "CRS",
      "outputs": [
        {
          "internalType": "uint256",
          "name": "",
          "type": "uint256"
        }
      ],
      "stateMutability": "view",
      "type": "function"
    },
    {
      "inputs": [],
      "name": "CTHM",
      "outputs": [
        {
          "internalType": "uint256",
          "name": "",
          "type": "uint256"
        }
      ],
      "stateMutability": "view",
      "type": "function"
    },
    {
      "inputs": [],
      "name": "Civil_Law",
      "outputs": [
        {
          "internalType": "uint256",
          "name": "",
          "type": "uint256"
        }
      ],
      "stateMutability": "view",
      "type": "function"
    },
    {
      "inputs": [],
      "name": "CoE",
      "outputs": [
        {
          "internalType": "uint256",
          "name": "",
          "type": "uint256"
        }
      ],
      "stateMutability": "view",
      "type": "function"
    },
    {
      "inputs": [],
      "name": "CoS",
      "outputs": [
        {
          "internalType": "uint256",
          "name": "",
          "type": "uint256"
        }
      ],
      "stateMutability": "view",
      "type": "function"
    },
    {
      "inputs": [],
      "name": "FoE",
      "outputs": [
        {
          "internalType": "uint256",
          "name": "",
          "type": "uint256"
        }
      ],
      "stateMutability": "view",
      "type": "function"
    },
    {
      "inputs": [],
      "name": "FoP",
      "outputs": [
        {
          "internalType": "uint256",
          "name": "",
          "type": "uint256"
        }
      ],
      "stateMutability": "view",
      "type": "function"
    },
    {
      "inputs": [],
      "name": "IPEA",
      "outputs": [
        {
          "internalType": "uint256",
          "name": "",
          "type": "uint256"
        }
      ],
      "stateMutability": "view",
      "type": "function"
    },
    {
      "inputs": [],
      "name": "Medicine_and_Surgery",
      "outputs": [
        {
          "internalType": "uint256",
          "name": "",
          "type": "uint256"
        }
      ],
      "stateMutability": "view",
      "type": "function"
    },
    {
      "inputs": [],
      "name": "Music",
      "outputs": [
        {
          "internalType": "uint256",
          "name": "",
          "type": "uint256"
        }
      ],
      "stateMutability": "view",
      "type": "function"
    },
    {
      "inputs": [],
      "name": "Nursing",
      "outputs": [
        {
          "internalType": "uint256",
          "name": "",
          "type": "uint256"
        }
      ],
      "stateMutability": "view",
      "type": "function"
    },
    {
      "inputs": [
        {
          "internalType": "address",
          "name": "account",
          "type": "address"
        },
        {
          "internalType": "uint256",
          "name": "id",
          "type": "uint256"
        }
      ],
      "name": "balanceOf",
      "outputs": [
        {
          "internalType": "uint256",
          "name": "",
          "type": "uint256"
        }
      ],
      "stateMutability": "view",
      "type": "function"
    },
    {
      "inputs": [
        {
          "internalType": "address[]",
          "name": "accounts",
          "type": "address[]"
        },
        {
          "internalType": "uint256[]",
          "name": "ids",
          "type": "uint256[]"
        }
      ],
      "name": "balanceOfBatch",
      "outputs": [
        {
          "internalType": "uint256[]",
          "name": "",
          "type": "uint256[]"
        }
      ],
      "stateMutability": "view",
      "type": "function"
    },
    {
      "inputs": [
        {
          "internalType": "address",
          "name": "account",
          "type": "address"
        },
        {
          "internalType": "uint256",
          "name": "id",
          "type": "uint256"
        },
        {
          "internalType": "uint256",
          "name": "amount",
          "type": "uint256"
        }
      ],
      "name": "burn",
      "outputs": [],
      "stateMutability": "nonpayable",
      "type": "function"
    },
    {
      "inputs": [
        {
          "internalType": "address",
          "name": "account",
          "type": "address"
        },
        {
          "internalType": "uint256",
          "name": "id",
          "type": "uint256"
        }
      ],
      "name": "checkNFTOwnership",
      "outputs": [
        {
          "internalType": "bool",
          "name": "",
          "type": "bool"
        }
      ],
      "stateMutability": "view",
      "type": "function"
    },
    {
      "inputs": [
        {
          "internalType": "address",
          "name": "",
          "type": "address"
        }
      ],
      "name": "hasMinted",
      "outputs": [
        {
          "internalType": "bool",
          "name": "",
          "type": "bool"
        }
      ],
      "stateMutability": "view",
      "type": "function"
    },
    {
      "inputs": [
        {
          "internalType": "address",
          "name": "account",
          "type": "address"
        },
        {
          "internalType": "address",
          "name": "operator",
          "type": "address"
        }
      ],
      "name": "isApprovedForAll",
      "outputs": [
        {
          "internalType": "bool",
          "name": "",
          "type": "bool"
        }
      ],
      "stateMutability": "view",
      "type": "function"
    },
    {
      "inputs": [
        {
          "internalType": "address",
          "name": "account",
          "type": "address"
        },
        {
          "internalType": "uint256",
          "name": "id",
          "type": "uint256"
        },
        {
          "internalType": "uint256",
          "name": "amount",
          "type": "uint256"
        },
        {
          "internalType": "bytes",
          "name": "data",
          "type": "bytes"
        }
      ],
      "name": "mint",
      "outputs": [],
      "stateMutability": "nonpayable",
      "type": "function"
    },
    {
      "inputs": [],
      "name": "name",
      "outputs": [
        {
          "internalType": "string",
          "name": "",
          "type": "string"
        }
      ],
      "stateMutability": "view",
      "type": "function"
    },
    {
      "inputs": [],
      "name": "owner",
      "outputs": [
        {
          "internalType": "address",
          "name": "",
          "type": "address"
        }
      ],
      "stateMutability": "view",
      "type": "function"
    },
    {
      "inputs": [],
      "name": "renounceOwnership",
      "outputs": [],
      "stateMutability": "nonpayable",
      "type": "function"
    },
    {
      "inputs": [
        {
          "internalType": "address",
          "name": "from",
          "type": "address"
        },
        {
          "internalType": "address",
          "name": "to",
          "type": "address"
        },
        {
          "internalType": "uint256[]",
          "name": "ids",
          "type": "uint256[]"
        },
        {
          "internalType": "uint256[]",
          "name": "amounts",
          "type": "uint256[]"
        },
        {
          "internalType": "bytes",
          "name": "data",
          "type": "bytes"
        }
      ],
      "name": "safeBatchTransferFrom",
      "outputs": [],
      "stateMutability": "nonpayable",
      "type": "function"
    },
    {
      "inputs": [
        {
          "internalType": "address",
          "name": "from",
          "type": "address"
        },
        {
          "internalType": "address",
          "name": "to",
          "type": "address"
        },
        {
          "internalType": "uint256",
          "name": "id",
          "type": "uint256"
        },
        {
          "internalType": "uint256",
          "name": "amount",
          "type": "uint256"
        },
        {
          "internalType": "bytes",
          "name": "data",
          "type": "bytes"
        }
      ],
      "name": "safeTransferFrom",
      "outputs": [],
      "stateMutability": "nonpayable",
      "type": "function"
    },
    {
      "inputs": [
        {
          "internalType": "address",
          "name": "operator",
          "type": "address"
        },
        {
          "internalType": "bool",
          "name": "approved",
          "type": "bool"
        }
      ],
      "name": "setApprovalForAll",
      "outputs": [],
      "stateMutability": "nonpayable",
      "type": "function"
    },
    {
      "inputs": [
        {
          "internalType": "bytes4",
          "name": "interfaceId",
          "type": "bytes4"
        }
      ],
      "name": "supportsInterface",
      "outputs": [
        {
          "internalType": "bool",
          "name": "",
          "type": "bool"
        }
      ],
      "stateMutability": "view",
      "type": "function"
    },
    {
      "inputs": [],
      "name": "test",
      "outputs": [
        {
          "internalType": "string",
          "name": "",
          "type": "string"
        }
      ],
      "stateMutability": "pure",
      "type": "function"
    },
    {
      "inputs": [
        {
          "internalType": "address",
          "name": "newOwner",
          "type": "address"
        }
      ],
      "name": "transferOwnership",
      "outputs": [],
      "stateMutability": "nonpayable",
      "type": "function"
    },
    {
      "inputs": [
        {
          "internalType": "uint256",
          "name": "",
          "type": "uint256"
        }
      ],
      "name": "uri",
      "outputs": [
        {
          "internalType": "string",
          "name": "",
          "type": "string"
        }
      ],
      "stateMutability": "view",
      "type": "function"
    }
  ],
  "bytecode": "0x60806040526040518060400160405280600a81526020017f424f544f6d6173696e6f00000000000000000000000000000000000000000000815250600490816200004a919062000408565b503480156200005857600080fd5b5060405180608001604052806051815260200162003c80605191396200008481620000ab60201b60201c565b50620000a562000099620000c060201b60201c565b620000c860201b60201c565b620004ef565b8060029081620000bc919062000408565b5050565b600033905090565b6000600360009054906101000a900473ffffffffffffffffffffffffffffffffffffffff16905081600360006101000a81548173ffffffffffffffffffffffffffffffffffffffff021916908373ffffffffffffffffffffffffffffffffffffffff1602179055508173ffffffffffffffffffffffffffffffffffffffff168173ffffffffffffffffffffffffffffffffffffffff167f8be0079c531659141344cd1fd0a4f28419497f9722a3daafe3b4186f6b6457e060405160405180910390a35050565b600081519050919050565b7f4e487b7100000000000000000000000000000000000000000000000000000000600052604160045260246000fd5b7f4e487b7100000000000000000000000000000000000000000000000000000000600052602260045260246000fd5b600060028204905060018216806200021057607f821691505b602082108103620002265762000225620001c8565b5b50919050565b60008190508160005260206000209050919050565b60006020601f8301049050919050565b600082821b905092915050565b600060088302620002907fffffffffffffffffffffffffffffffffffffffffffffffffffffffffffffffff8262000251565b6200029c868362000251565b95508019841693508086168417925050509392505050565b6000819050919050565b6000819050919050565b6000620002e9620002e3620002dd84620002b4565b620002be565b620002b4565b9050919050565b6000819050919050565b6200030583620002c8565b6200031d6200031482620002f0565b8484546200025e565b825550505050565b600090565b6200033462000325565b62000341818484620002fa565b505050565b5b8181101562000369576200035d6000826200032a565b60018101905062000347565b5050565b601f821115620003b85762000382816200022c565b6200038d8462000241565b810160208510156200039d578190505b620003b5620003ac8562000241565b83018262000346565b50505b505050565b600082821c905092915050565b6000620003dd60001984600802620003bd565b1980831691505092915050565b6000620003f88383620003ca565b9150826002028217905092915050565b62000413826200018e565b67ffffffffffffffff8111156200042f576200042e62000199565b5b6200043b8254620001f7565b620004488282856200036d565b600060209050601f8311600181146200048057600084156200046b578287015190505b620004778582620003ea565b865550620004e7565b601f19841662000490866200022c565b60005b82811015620004ba5784890151825560018201915060208501945060208101905062000493565b86831015620004da5784890151620004d6601f891682620003ca565b8355505b6001600288020188555050505b505050505050565b61378180620004ff6000396000f3fe608060405234801561001057600080fd5b50600436106102055760003560e01c80637de8a0811161011a578063e51e469e116100ad578063eac11c921161007c578063eac11c92146105d4578063f242432a146105f2578063f2fde38b1461060e578063f5298aca1461062a578063f8a8fd6d1461064657610205565b8063e51e469e1461054a578063e6aa96a514610568578063e985e9c514610586578063e9ceafb1146105b657610205565b8063a22cb465116100e9578063a22cb465146104d4578063a9f82eb9146104f0578063c07dc6871461050e578063d945927c1461052c57610205565b80637de8a0811461045c5780637e6ad7521461047a5780638da5cb5b146104985780639d28e87e146104b657610205565b8063436a281a1161019d5780635414e6131161016c5780635414e613146103dc5780636dfd4ecc146103fa57806370acb1b014610418578063715018a614610436578063731133e91461044057610205565b8063436a281a14610340578063485e6489146103705780634d06e0af1461038e5780634e1273f4146103ac57610205565b806310666185116101d957806310666185146102b857806316f14794146102d65780632eb2c2d6146102f457806338e21cce1461031057610205565b8062fdd58e1461020a57806301ffc9a71461023a57806306fdde031461026a5780630e89341c14610288575b600080fd5b610224600480360381019061021f919061216c565b610664565b60405161023191906121bb565b60405180910390f35b610254600480360381019061024f919061222e565b61072c565b6040516102619190612276565b60405180910390f35b61027261080e565b60405161027f9190612321565b60405180910390f35b6102a2600480360381019061029d9190612343565b61089c565b6040516102af9190612321565b60405180910390f35b6102c0610930565b6040516102cd91906121bb565b60405180910390f35b6102de610935565b6040516102eb91906121bb565b60405180910390f35b61030e6004803603810190610309919061256d565b61093a565b005b61032a6004803603810190610325919061263c565b6109db565b6040516103379190612276565b60405180910390f35b61035a6004803603810190610355919061216c565b6109fb565b6040516103679190612276565b60405180910390f35b610378610a17565b60405161038591906121bb565b60405180910390f35b610396610a1c565b6040516103a391906121bb565b60405180910390f35b6103c660048036038101906103c1919061272c565b610a21565b6040516103d39190612862565b60405180910390f35b6103e4610b3a565b6040516103f191906121bb565b60405180910390f35b610402610b3f565b60405161040f91906121bb565b60405180910390f35b610420610b44565b60405161042d91906121bb565b60405180910390f35b61043e610b49565b005b61045a60048036038101906104559190612884565b610b5d565b005b610464610cab565b60405161047191906121bb565b60405180910390f35b610482610cb0565b60405161048f91906121bb565b60405180910390f35b6104a0610cb5565b6040516104ad9190612916565b60405180910390f35b6104be610cdf565b6040516104cb91906121bb565b60405180910390f35b6104ee60048036038101906104e9919061295d565b610ce4565b005b6104f8610cfa565b60405161050591906121bb565b60405180910390f35b610516610cff565b60405161052391906121bb565b60405180910390f35b610534610d04565b60405161054191906121bb565b60405180910390f35b610552610d09565b60405161055f91906121bb565b60405180910390f35b610570610d0e565b60405161057d91906121bb565b60405180910390f35b6105a0600480360381019061059b919061299d565b610d13565b6040516105ad9190612276565b60405180910390f35b6105be610da7565b6040516105cb91906121bb565b60405180910390f35b6105dc610dac565b6040516105e991906121bb565b60405180910390f35b61060c600480360381019061060791906129dd565b610db1565b005b6106286004803603810190610623919061263c565b610e52565b005b610644600480360381019061063f9190612a74565b610ed5565b005b61064e610f75565b60405161065b9190612321565b60405180910390f35b60008073ffffffffffffffffffffffffffffffffffffffff168373ffffffffffffffffffffffffffffffffffffffff16036106d4576040517f08c379a00000000000000000000000000000000000000000000000000000000081526004016106cb90612b39565b60405180910390fd5b60008083815260200190815260200160002060008473ffffffffffffffffffffffffffffffffffffffff1673ffffffffffffffffffffffffffffffffffffffff16815260200190815260200160002054905092915050565b60007fd9b67a26000000000000000000000000000000000000000000000000000000007bffffffffffffffffffffffffffffffffffffffffffffffffffffffff1916827bffffffffffffffffffffffffffffffffffffffffffffffffffffffff191614806107f757507f0e89341c000000000000000000000000000000000000000000000000000000007bffffffffffffffffffffffffffffffffffffffffffffffffffffffff1916827bffffffffffffffffffffffffffffffffffffffffffffffffffffffff1916145b80610807575061080682610f95565b5b9050919050565b6004805461081b90612b88565b80601f016020809104026020016040519081016040528092919081815260200182805461084790612b88565b80156108945780601f1061086957610100808354040283529160200191610894565b820191906000526020600020905b81548152906001019060200180831161087757829003601f168201915b505050505081565b6060600280546108ab90612b88565b80601f01602080910402602001604051908101604052809291908181526020018280546108d790612b88565b80156109245780601f106108f957610100808354040283529160200191610924565b820191906000526020600020905b81548152906001019060200180831161090757829003601f168201915b50505050509050919050565b600b81565b600481565b610942610fff565b73ffffffffffffffffffffffffffffffffffffffff168573ffffffffffffffffffffffffffffffffffffffff161480610988575061098785610982610fff565b610d13565b5b6109c7576040517f08c379a00000000000000000000000000000000000000000000000000000000081526004016109be90612c2b565b60405180910390fd5b6109d48585858585611007565b5050505050565b60056020528060005260406000206000915054906101000a900460ff1681565b600080610a088484610664565b90506000811191505092915050565b600c81565b600381565b60608151835114610a67576040517f08c379a0000000000000000000000000000000000000000000000000000000008152600401610a5e90612cbd565b60405180910390fd5b6000835167ffffffffffffffff811115610a8457610a83612375565b5b604051908082528060200260200182016040528015610ab25781602001602082028036833780820191505090505b50905060005b8451811015610b2f57610aff858281518110610ad757610ad6612cdd565b5b6020026020010151858381518110610af257610af1612cdd565b5b6020026020010151610664565b828281518110610b1257610b11612cdd565b5b60200260200101818152505080610b2890612d3b565b9050610ab8565b508091505092915050565b600d81565b600581565b600881565b610b51611328565b610b5b60006113a6565b565b60018310158015610b6f575060118311155b610bae576040517f08c379a0000000000000000000000000000000000000000000000000000000008152600401610ba590612dcf565b60405180910390fd5b60001515600560008673ffffffffffffffffffffffffffffffffffffffff1673ffffffffffffffffffffffffffffffffffffffff16815260200190815260200160002060009054906101000a900460ff16151514610c41576040517f08c379a0000000000000000000000000000000000000000000000000000000008152600401610c3890612e3b565b60405180910390fd5b610c4d8484848461146c565b6001600560008673ffffffffffffffffffffffffffffffffffffffff1673ffffffffffffffffffffffffffffffffffffffff16815260200190815260200160002060006101000a81548160ff02191690831515021790555050505050565b600281565b601081565b6000600360009054906101000a900473ffffffffffffffffffffffffffffffffffffffff16905090565b600181565b610cf6610cef610fff565b838361161c565b5050565b600a81565b600681565b600981565b600e81565b600f81565b6000600160008473ffffffffffffffffffffffffffffffffffffffff1673ffffffffffffffffffffffffffffffffffffffff16815260200190815260200160002060008373ffffffffffffffffffffffffffffffffffffffff1673ffffffffffffffffffffffffffffffffffffffff16815260200190815260200160002060009054906101000a900460ff16905092915050565b600781565b601181565b610db9610fff565b73ffffffffffffffffffffffffffffffffffffffff168573ffffffffffffffffffffffffffffffffffffffff161480610dff5750610dfe85610df9610fff565b610d13565b5b610e3e576040517f08c379a0000000000000000000000000000000000000000000000000000000008152600401610e3590612c2b565b60405180910390fd5b610e4b8585858585611788565b5050505050565b610e5a611328565b600073ffffffffffffffffffffffffffffffffffffffff168173ffffffffffffffffffffffffffffffffffffffff1603610ec9576040517f08c379a0000000000000000000000000000000000000000000000000000000008152600401610ec090612ecd565b60405180910390fd5b610ed2816113a6565b50565b8273ffffffffffffffffffffffffffffffffffffffff163373ffffffffffffffffffffffffffffffffffffffff1614610f0d57600080fd5b610f18838383611a23565b6000600560008573ffffffffffffffffffffffffffffffffffffffff1673ffffffffffffffffffffffffffffffffffffffff16815260200190815260200160002060006101000a81548160ff021916908315150217905550505050565b606060405180606001604052806024815260200161372860249139905090565b60007f01ffc9a7000000000000000000000000000000000000000000000000000000007bffffffffffffffffffffffffffffffffffffffffffffffffffffffff1916827bffffffffffffffffffffffffffffffffffffffffffffffffffffffff1916149050919050565b600033905090565b815183511461104b576040517f08c379a000000000000000000000000000000000000000000000000000000000815260040161104290612f5f565b60405180910390fd5b600073ffffffffffffffffffffffffffffffffffffffff168473ffffffffffffffffffffffffffffffffffffffff16036110ba576040517f08c379a00000000000000000000000000000000000000000000000000000000081526004016110b190612ff1565b60405180910390fd5b60006110c4610fff565b90506110d4818787878787611c69565b60005b84518110156112855760008582815181106110f5576110f4612cdd565b5b60200260200101519050600085838151811061111457611113612cdd565b5b60200260200101519050600080600084815260200190815260200160002060008b73ffffffffffffffffffffffffffffffffffffffff1673ffffffffffffffffffffffffffffffffffffffff168152602001908152602001600020549050818110156111b5576040517f08c379a00000000000000000000000000000000000000000000000000000000081526004016111ac90613083565b60405180910390fd5b81810360008085815260200190815260200160002060008c73ffffffffffffffffffffffffffffffffffffffff1673ffffffffffffffffffffffffffffffffffffffff168152602001908152602001600020819055508160008085815260200190815260200160002060008b73ffffffffffffffffffffffffffffffffffffffff1673ffffffffffffffffffffffffffffffffffffffff168152602001908152602001600020600082825461126a91906130a3565b925050819055505050508061127e90612d3b565b90506110d7565b508473ffffffffffffffffffffffffffffffffffffffff168673ffffffffffffffffffffffffffffffffffffffff168273ffffffffffffffffffffffffffffffffffffffff167f4a39dc06d4c0dbc64b70af90fd698a233a518aa5d07e595d983b8c0526c8f7fb87876040516112fc9291906130d7565b60405180910390a4611312818787878787611c71565b611320818787878787611c79565b505050505050565b611330610fff565b73ffffffffffffffffffffffffffffffffffffffff1661134e610cb5565b73ffffffffffffffffffffffffffffffffffffffff16146113a4576040517f08c379a000000000000000000000000000000000000000000000000000000000815260040161139b9061315a565b60405180910390fd5b565b6000600360009054906101000a900473ffffffffffffffffffffffffffffffffffffffff16905081600360006101000a81548173ffffffffffffffffffffffffffffffffffffffff021916908373ffffffffffffffffffffffffffffffffffffffff1602179055508173ffffffffffffffffffffffffffffffffffffffff168173ffffffffffffffffffffffffffffffffffffffff167f8be0079c531659141344cd1fd0a4f28419497f9722a3daafe3b4186f6b6457e060405160405180910390a35050565b600073ffffffffffffffffffffffffffffffffffffffff168473ffffffffffffffffffffffffffffffffffffffff16036114db576040517f08c379a00000000000000000000000000000000000000000000000000000000081526004016114d2906131ec565b60405180910390fd5b60006114e5610fff565b905060006114f285611e50565b905060006114ff85611e50565b905061151083600089858589611c69565b8460008088815260200190815260200160002060008973ffffffffffffffffffffffffffffffffffffffff1673ffffffffffffffffffffffffffffffffffffffff168152602001908152602001600020600082825461156f91906130a3565b925050819055508673ffffffffffffffffffffffffffffffffffffffff16600073ffffffffffffffffffffffffffffffffffffffff168473ffffffffffffffffffffffffffffffffffffffff167fc3d58168c5ae7397731d063d5bbf3d657854427343f4c083240f7aacaa2d0f6289896040516115ed92919061320c565b60405180910390a461160483600089858589611c71565b61161383600089898989611eca565b50505050505050565b8173ffffffffffffffffffffffffffffffffffffffff168373ffffffffffffffffffffffffffffffffffffffff160361168a576040517f08c379a0000000000000000000000000000000000000000000000000000000008152600401611681906132a7565b60405180910390fd5b80600160008573ffffffffffffffffffffffffffffffffffffffff1673ffffffffffffffffffffffffffffffffffffffff16815260200190815260200160002060008473ffffffffffffffffffffffffffffffffffffffff1673ffffffffffffffffffffffffffffffffffffffff16815260200190815260200160002060006101000a81548160ff0219169083151502179055508173ffffffffffffffffffffffffffffffffffffffff168373ffffffffffffffffffffffffffffffffffffffff167f17307eab39ab6107e8899845ad3d59bd9653f200f220920489ca2b5937696c318360405161177b9190612276565b60405180910390a3505050565b600073ffffffffffffffffffffffffffffffffffffffff168473ffffffffffffffffffffffffffffffffffffffff16036117f7576040517f08c379a00000000000000000000000000000000000000000000000000000000081526004016117ee90612ff1565b60405180910390fd5b6000611801610fff565b9050600061180e85611e50565b9050600061181b85611e50565b905061182b838989858589611c69565b600080600088815260200190815260200160002060008a73ffffffffffffffffffffffffffffffffffffffff1673ffffffffffffffffffffffffffffffffffffffff168152602001908152602001600020549050858110156118c2576040517f08c379a00000000000000000000000000000000000000000000000000000000081526004016118b990613083565b60405180910390fd5b85810360008089815260200190815260200160002060008b73ffffffffffffffffffffffffffffffffffffffff1673ffffffffffffffffffffffffffffffffffffffff168152602001908152602001600020819055508560008089815260200190815260200160002060008a73ffffffffffffffffffffffffffffffffffffffff1673ffffffffffffffffffffffffffffffffffffffff168152602001908152602001600020600082825461197791906130a3565b925050819055508773ffffffffffffffffffffffffffffffffffffffff168973ffffffffffffffffffffffffffffffffffffffff168573ffffffffffffffffffffffffffffffffffffffff167fc3d58168c5ae7397731d063d5bbf3d657854427343f4c083240f7aacaa2d0f628a8a6040516119f492919061320c565b60405180910390a4611a0a848a8a86868a611c71565b611a18848a8a8a8a8a611eca565b505050505050505050565b600073ffffffffffffffffffffffffffffffffffffffff168373ffffffffffffffffffffffffffffffffffffffff1603611a92576040517f08c379a0000000000000000000000000000000000000000000000000000000008152600401611a8990613339565b60405180910390fd5b6000611a9c610fff565b90506000611aa984611e50565b90506000611ab684611e50565b9050611ad683876000858560405180602001604052806000815250611c69565b600080600087815260200190815260200160002060008873ffffffffffffffffffffffffffffffffffffffff1673ffffffffffffffffffffffffffffffffffffffff16815260200190815260200160002054905084811015611b6d576040517f08c379a0000000000000000000000000000000000000000000000000000000008152600401611b64906133cb565b60405180910390fd5b84810360008088815260200190815260200160002060008973ffffffffffffffffffffffffffffffffffffffff1673ffffffffffffffffffffffffffffffffffffffff16815260200190815260200160002081905550600073ffffffffffffffffffffffffffffffffffffffff168773ffffffffffffffffffffffffffffffffffffffff168573ffffffffffffffffffffffffffffffffffffffff167fc3d58168c5ae7397731d063d5bbf3d657854427343f4c083240f7aacaa2d0f628989604051611c3a92919061320c565b60405180910390a4611c6084886000868660405180602001604052806000815250611c71565b50505050505050565b505050505050565b505050505050565b611c988473ffffffffffffffffffffffffffffffffffffffff166120a1565b15611e48578373ffffffffffffffffffffffffffffffffffffffff1663bc197c8187878686866040518663ffffffff1660e01b8152600401611cde959493929190613440565b6020604051808303816000875af1925050508015611d1a57506040513d601f19601f82011682018060405250810190611d1791906134bd565b60015b611dbf57611d266134f7565b806308c379a003611d825750611d3a613519565b80611d455750611d84565b806040517f08c379a0000000000000000000000000000000000000000000000000000000008152600401611d799190612321565b60405180910390fd5b505b6040517f08c379a0000000000000000000000000000000000000000000000000000000008152600401611db69061361b565b60405180910390fd5b63bc197c8160e01b7bffffffffffffffffffffffffffffffffffffffffffffffffffffffff1916817bffffffffffffffffffffffffffffffffffffffffffffffffffffffff191614611e46576040517f08c379a0000000000000000000000000000000000000000000000000000000008152600401611e3d906136ad565b60405180910390fd5b505b505050505050565b60606000600167ffffffffffffffff811115611e6f57611e6e612375565b5b604051908082528060200260200182016040528015611e9d5781602001602082028036833780820191505090505b5090508281600081518110611eb557611eb4612cdd565b5b60200260200101818152505080915050919050565b611ee98473ffffffffffffffffffffffffffffffffffffffff166120a1565b15612099578373ffffffffffffffffffffffffffffffffffffffff1663f23a6e6187878686866040518663ffffffff1660e01b8152600401611f2f9594939291906136cd565b6020604051808303816000875af1925050508015611f6b57506040513d601f19601f82011682018060405250810190611f6891906134bd565b60015b61201057611f776134f7565b806308c379a003611fd35750611f8b613519565b80611f965750611fd5565b806040517f08c379a0000000000000000000000000000000000000000000000000000000008152600401611fca9190612321565b60405180910390fd5b505b6040517f08c379a00000000000000000000000000000000000000000000000000000000081526004016120079061361b565b60405180910390fd5b63f23a6e6160e01b7bffffffffffffffffffffffffffffffffffffffffffffffffffffffff1916817bffffffffffffffffffffffffffffffffffffffffffffffffffffffff191614612097576040517f08c379a000000000000000000000000000000000000000000000000000000000815260040161208e906136ad565b60405180910390fd5b505b505050505050565b6000808273ffffffffffffffffffffffffffffffffffffffff163b119050919050565b6000604051905090565b600080fd5b600080fd5b600073ffffffffffffffffffffffffffffffffffffffff82169050919050565b6000612103826120d8565b9050919050565b612113816120f8565b811461211e57600080fd5b50565b6000813590506121308161210a565b92915050565b6000819050919050565b61214981612136565b811461215457600080fd5b50565b60008135905061216681612140565b92915050565b60008060408385031215612183576121826120ce565b5b600061219185828601612121565b92505060206121a285828601612157565b9150509250929050565b6121b581612136565b82525050565b60006020820190506121d060008301846121ac565b92915050565b60007fffffffff0000000000000000000000000000000000000000000000000000000082169050919050565b61220b816121d6565b811461221657600080fd5b50565b60008135905061222881612202565b92915050565b600060208284031215612244576122436120ce565b5b600061225284828501612219565b91505092915050565b60008115159050919050565b6122708161225b565b82525050565b600060208201905061228b6000830184612267565b92915050565b600081519050919050565b600082825260208201905092915050565b60005b838110156122cb5780820151818401526020810190506122b0565b60008484015250505050565b6000601f19601f8301169050919050565b60006122f382612291565b6122fd818561229c565b935061230d8185602086016122ad565b612316816122d7565b840191505092915050565b6000602082019050818103600083015261233b81846122e8565b905092915050565b600060208284031215612359576123586120ce565b5b600061236784828501612157565b91505092915050565b600080fd5b7f4e487b7100000000000000000000000000000000000000000000000000000000600052604160045260246000fd5b6123ad826122d7565b810181811067ffffffffffffffff821117156123cc576123cb612375565b5b80604052505050565b60006123df6120c4565b90506123eb82826123a4565b919050565b600067ffffffffffffffff82111561240b5761240a612375565b5b602082029050602081019050919050565b600080fd5b600061243461242f846123f0565b6123d5565b905080838252602082019050602084028301858111156124575761245661241c565b5b835b81811015612480578061246c8882612157565b845260208401935050602081019050612459565b5050509392505050565b600082601f83011261249f5761249e612370565b5b81356124af848260208601612421565b91505092915050565b600080fd5b600067ffffffffffffffff8211156124d8576124d7612375565b5b6124e1826122d7565b9050602081019050919050565b82818337600083830152505050565b600061251061250b846124bd565b6123d5565b90508281526020810184848401111561252c5761252b6124b8565b5b6125378482856124ee565b509392505050565b600082601f83011261255457612553612370565b5b81356125648482602086016124fd565b91505092915050565b600080600080600060a08688031215612589576125886120ce565b5b600061259788828901612121565b95505060206125a888828901612121565b945050604086013567ffffffffffffffff8111156125c9576125c86120d3565b5b6125d58882890161248a565b935050606086013567ffffffffffffffff8111156125f6576125f56120d3565b5b6126028882890161248a565b925050608086013567ffffffffffffffff811115612623576126226120d3565b5b61262f8882890161253f565b9150509295509295909350565b600060208284031215612652576126516120ce565b5b600061266084828501612121565b91505092915050565b600067ffffffffffffffff82111561268457612683612375565b5b602082029050602081019050919050565b60006126a86126a384612669565b6123d5565b905080838252602082019050602084028301858111156126cb576126ca61241c565b5b835b818110156126f457806126e08882612121565b8452602084019350506020810190506126cd565b5050509392505050565b600082601f83011261271357612712612370565b5b8135612723848260208601612695565b91505092915050565b60008060408385031215612743576127426120ce565b5b600083013567ffffffffffffffff811115612761576127606120d3565b5b61276d858286016126fe565b925050602083013567ffffffffffffffff81111561278e5761278d6120d3565b5b61279a8582860161248a565b9150509250929050565b600081519050919050565b600082825260208201905092915050565b6000819050602082019050919050565b6127d981612136565b82525050565b60006127eb83836127d0565b60208301905092915050565b6000602082019050919050565b600061280f826127a4565b61281981856127af565b9350612824836127c0565b8060005b8381101561285557815161283c88826127df565b9750612847836127f7565b925050600181019050612828565b5085935050505092915050565b6000602082019050818103600083015261287c8184612804565b905092915050565b6000806000806080858703121561289e5761289d6120ce565b5b60006128ac87828801612121565b94505060206128bd87828801612157565b93505060406128ce87828801612157565b925050606085013567ffffffffffffffff8111156128ef576128ee6120d3565b5b6128fb8782880161253f565b91505092959194509250565b612910816120f8565b82525050565b600060208201905061292b6000830184612907565b92915050565b61293a8161225b565b811461294557600080fd5b50565b60008135905061295781612931565b92915050565b60008060408385031215612974576129736120ce565b5b600061298285828601612121565b925050602061299385828601612948565b9150509250929050565b600080604083850312156129b4576129b36120ce565b5b60006129c285828601612121565b92505060206129d385828601612121565b9150509250929050565b600080600080600060a086880312156129f9576129f86120ce565b5b6000612a0788828901612121565b9550506020612a1888828901612121565b9450506040612a2988828901612157565b9350506060612a3a88828901612157565b925050608086013567ffffffffffffffff811115612a5b57612a5a6120d3565b5b612a678882890161253f565b9150509295509295909350565b600080600060608486031215612a8d57612a8c6120ce565b5b6000612a9b86828701612121565b9350506020612aac86828701612157565b9250506040612abd86828701612157565b9150509250925092565b7f455243313135353a2061646472657373207a65726f206973206e6f742061207660008201527f616c6964206f776e657200000000000000000000000000000000000000000000602082015250565b6000612b23602a8361229c565b9150612b2e82612ac7565b604082019050919050565b60006020820190508181036000830152612b5281612b16565b9050919050565b7f4e487b7100000000000000000000000000000000000000000000000000000000600052602260045260246000fd5b60006002820490506001821680612ba057607f821691505b602082108103612bb357612bb2612b59565b5b50919050565b7f455243313135353a2063616c6c6572206973206e6f7420746f6b656e206f776e60008201527f6572206f7220617070726f766564000000000000000000000000000000000000602082015250565b6000612c15602e8361229c565b9150612c2082612bb9565b604082019050919050565b60006020820190508181036000830152612c4481612c08565b9050919050565b7f455243313135353a206163636f756e747320616e6420696473206c656e67746860008201527f206d69736d617463680000000000000000000000000000000000000000000000602082015250565b6000612ca760298361229c565b9150612cb282612c4b565b604082019050919050565b60006020820190508181036000830152612cd681612c9a565b9050919050565b7f4e487b7100000000000000000000000000000000000000000000000000000000600052603260045260246000fd5b7f4e487b7100000000000000000000000000000000000000000000000000000000600052601160045260246000fd5b6000612d4682612136565b91507fffffffffffffffffffffffffffffffffffffffffffffffffffffffffffffffff8203612d7857612d77612d0c565b5b600182019050919050565b7f496e76616c696420636f6c6c6567652069642100000000000000000000000000600082015250565b6000612db960138361229c565b9150612dc482612d83565b602082019050919050565b60006020820190508181036000830152612de881612dac565b9050919050565b7f557365722068617320616c7265616479206d696e74656420616e204e46542100600082015250565b6000612e25601f8361229c565b9150612e3082612def565b602082019050919050565b60006020820190508181036000830152612e5481612e18565b9050919050565b7f4f776e61626c653a206e6577206f776e657220697320746865207a65726f206160008201527f6464726573730000000000000000000000000000000000000000000000000000602082015250565b6000612eb760268361229c565b9150612ec282612e5b565b604082019050919050565b60006020820190508181036000830152612ee681612eaa565b9050919050565b7f455243313135353a2069647320616e6420616d6f756e7473206c656e6774682060008201527f6d69736d61746368000000000000000000000000000000000000000000000000602082015250565b6000612f4960288361229c565b9150612f5482612eed565b604082019050919050565b60006020820190508181036000830152612f7881612f3c565b9050919050565b7f455243313135353a207472616e7366657220746f20746865207a65726f20616460008201527f6472657373000000000000000000000000000000000000000000000000000000602082015250565b6000612fdb60258361229c565b9150612fe682612f7f565b604082019050919050565b6000602082019050818103600083015261300a81612fce565b9050919050565b7f455243313135353a20696e73756666696369656e742062616c616e636520666f60008201527f72207472616e7366657200000000000000000000000000000000000000000000602082015250565b600061306d602a8361229c565b915061307882613011565b604082019050919050565b6000602082019050818103600083015261309c81613060565b9050919050565b60006130ae82612136565b91506130b983612136565b92508282019050808211156130d1576130d0612d0c565b5b92915050565b600060408201905081810360008301526130f18185612804565b905081810360208301526131058184612804565b90509392505050565b7f4f776e61626c653a2063616c6c6572206973206e6f7420746865206f776e6572600082015250565b600061314460208361229c565b915061314f8261310e565b602082019050919050565b6000602082019050818103600083015261317381613137565b9050919050565b7f455243313135353a206d696e7420746f20746865207a65726f2061646472657360008201527f7300000000000000000000000000000000000000000000000000000000000000602082015250565b60006131d660218361229c565b91506131e18261317a565b604082019050919050565b60006020820190508181036000830152613205816131c9565b9050919050565b600060408201905061322160008301856121ac565b61322e60208301846121ac565b9392505050565b7f455243313135353a2073657474696e6720617070726f76616c2073746174757360008201527f20666f722073656c660000000000000000000000000000000000000000000000602082015250565b600061329160298361229c565b915061329c82613235565b604082019050919050565b600060208201905081810360008301526132c081613284565b9050919050565b7f455243313135353a206275726e2066726f6d20746865207a65726f206164647260008201527f6573730000000000000000000000000000000000000000000000000000000000602082015250565b600061332360238361229c565b915061332e826132c7565b604082019050919050565b6000602082019050818103600083015261335281613316565b9050919050565b7f455243313135353a206275726e20616d6f756e7420657863656564732062616c60008201527f616e636500000000000000000000000000000000000000000000000000000000602082015250565b60006133b560248361229c565b91506133c082613359565b604082019050919050565b600060208201905081810360008301526133e4816133a8565b9050919050565b600081519050919050565b600082825260208201905092915050565b6000613412826133eb565b61341c81856133f6565b935061342c8185602086016122ad565b613435816122d7565b840191505092915050565b600060a0820190506134556000830188612907565b6134626020830187612907565b81810360408301526134748186612804565b905081810360608301526134888185612804565b9050818103608083015261349c8184613407565b90509695505050505050565b6000815190506134b781612202565b92915050565b6000602082840312156134d3576134d26120ce565b5b60006134e1848285016134a8565b91505092915050565b60008160e01c9050919050565b600060033d11156135165760046000803e6135136000516134ea565b90505b90565b600060443d106135a65761352b6120c4565b60043d036004823e80513d602482011167ffffffffffffffff821117156135535750506135a6565b808201805167ffffffffffffffff81111561357157505050506135a6565b80602083010160043d03850181111561358e5750505050506135a6565b61359d826020018501866123a4565b82955050505050505b90565b7f455243313135353a207472616e7366657220746f206e6f6e2d4552433131353560008201527f526563656976657220696d706c656d656e746572000000000000000000000000602082015250565b600061360560348361229c565b9150613610826135a9565b604082019050919050565b60006020820190508181036000830152613634816135f8565b9050919050565b7f455243313135353a204552433131353552656365697665722072656a6563746560008201527f6420746f6b656e73000000000000000000000000000000000000000000000000602082015250565b600061369760288361229c565b91506136a28261363b565b604082019050919050565b600060208201905081810360008301526136c68161368a565b9050919050565b600060a0820190506136e26000830188612907565b6136ef6020830187612907565b6136fc60408301866121ac565b61370960608301856121ac565b818103608083015261371b8184613407565b9050969550505050505056fe436f6e6e656374656420746f20436f6c6c65676520736d61727420636f6e747261637421a264697066735822122019cbba73e3a5fb4724649721575ad68c3dc92cffa949248051f917afaa3784ca64736f6c6343000812003368747470733a2f2f6d792d6a736f6e2d7365727665722e74797069636f64652e636f6d2f636564726963717569746f722f626c6f636b636861696e2d7765622d6170702f636f6c6c656765732f7b69647d",
  "linkReferences": {},
  "deployedLinkReferences": {}
}