{
  "_format": "hh-sol-artifact-1",
  "contractName": "College",
  "sourceName": "contracts/College.sol",
  "abi": [
    {
      "inputs": [],
      "stateMutability": "nonpayable",
      "type": "constructor"
    },
    {
      "anonymous": false,
      "inputs": [
        {
          "indexed": true,
          "internalType": "address",
          "name": "account",
          "type": "address"
        },
        {
          "indexed": true,
          "internalType": "address",
          "name": "operator",
          "type": "address"
        },
        {
          "indexed": false,
          "internalType": "bool",
          "name": "approved",
          "type": "bool"
        }
      ],
      "name": "ApprovalForAll",
      "type": "event"
    },
    {
      "anonymous": false,
      "inputs": [
        {
          "indexed": true,
          "internalType": "address",
          "name": "previousOwner",
          "type": "address"
        },
        {
          "indexed": true,
          "internalType": "address",
          "name": "newOwner",
          "type": "address"
        }
      ],
      "name": "OwnershipTransferred",
      "type": "event"
    },
    {
      "anonymous": false,
      "inputs": [
        {
          "indexed": true,
          "internalType": "address",
          "name": "operator",
          "type": "address"
        },
        {
          "indexed": true,
          "internalType": "address",
          "name": "from",
          "type": "address"
        },
        {
          "indexed": true,
          "internalType": "address",
          "name": "to",
          "type": "address"
        },
        {
          "indexed": false,
          "internalType": "uint256[]",
          "name": "ids",
          "type": "uint256[]"
        },
        {
          "indexed": false,
          "internalType": "uint256[]",
          "name": "values",
          "type": "uint256[]"
        }
      ],
      "name": "TransferBatch",
      "type": "event"
    },
    {
      "anonymous": false,
      "inputs": [
        {
          "indexed": true,
          "internalType": "address",
          "name": "operator",
          "type": "address"
        },
        {
          "indexed": true,
          "internalType": "address",
          "name": "from",
          "type": "address"
        },
        {
          "indexed": true,
          "internalType": "address",
          "name": "to",
          "type": "address"
        },
        {
          "indexed": false,
          "internalType": "uint256",
          "name": "id",
          "type": "uint256"
        },
        {
          "indexed": false,
          "internalType": "uint256",
          "name": "value",
          "type": "uint256"
        }
      ],
      "name": "TransferSingle",
      "type": "event"
    },
    {
      "anonymous": false,
      "inputs": [
        {
          "indexed": false,
          "internalType": "string",
          "name": "value",
          "type": "string"
        },
        {
          "indexed": true,
          "internalType": "uint256",
          "name": "id",
          "type": "uint256"
        }
      ],
      "name": "URI",
      "type": "event"
    },
    {
      "inputs": [],
      "name": "AMV_COA",
      "outputs": [
        {
          "internalType": "uint256",
          "name": "",
          "type": "uint256"
        }
      ],
      "stateMutability": "view",
      "type": "function"
    },
    {
      "inputs": [],
      "name": "Architecture",
      "outputs": [
        {
          "internalType": "uint256",
          "name": "",
          "type": "uint256"
        }
      ],
      "stateMutability": "view",
      "type": "function"
    },
    {
      "inputs": [],
      "name": "Arts_and_Letters",
      "outputs": [
        {
          "internalType": "uint256",
          "name": "",
          "type": "uint256"
        }
      ],
      "stateMutability": "view",
      "type": "function"
    },
    {
      "inputs": [],
      "name": "CBA",
      "outputs": [
        {
          "internalType": "uint256",
          "name": "",
          "type": "uint256"
        }
      ],
      "stateMutability": "view",
      "type": "function"
    },
    {
      "inputs": [],
      "name": "CFAD",
      "outputs": [
        {
          "internalType": "uint256",
          "name": "",
          "type": "uint256"
        }
      ],
      "stateMutability": "view",
      "type": "function"
    },
    {
      "inputs": [],
      "name": "CICS",
      "outputs": [
        {
          "internalType": "uint256",
          "name": "",
          "type": "uint256"
        }
      ],
      "stateMutability": "view",
      "type": "function"
    },
    {
      "inputs": [],
      "name": "CRS",
      "outputs": [
        {
          "internalType": "uint256",
          "name": "",
          "type": "uint256"
        }
      ],
      "stateMutability": "view",
      "type": "function"
    },
    {
      "inputs": [],
      "name": "CTHM",
      "outputs": [
        {
          "internalType": "uint256",
          "name": "",
          "type": "uint256"
        }
      ],
      "stateMutability": "view",
      "type": "function"
    },
    {
      "inputs": [],
      "name": "Civil_Law",
      "outputs": [
        {
          "internalType": "uint256",
          "name": "",
          "type": "uint256"
        }
      ],
      "stateMutability": "view",
      "type": "function"
    },
    {
      "inputs": [],
      "name": "CoE",
      "outputs": [
        {
          "internalType": "uint256",
          "name": "",
          "type": "uint256"
        }
      ],
      "stateMutability": "view",
      "type": "function"
    },
    {
      "inputs": [],
      "name": "CoS",
      "outputs": [
        {
          "internalType": "uint256",
          "name": "",
          "type": "uint256"
        }
      ],
      "stateMutability": "view",
      "type": "function"
    },
    {
      "inputs": [],
      "name": "FoE",
      "outputs": [
        {
          "internalType": "uint256",
          "name": "",
          "type": "uint256"
        }
      ],
      "stateMutability": "view",
      "type": "function"
    },
    {
      "inputs": [],
      "name": "FoP",
      "outputs": [
        {
          "internalType": "uint256",
          "name": "",
          "type": "uint256"
        }
      ],
      "stateMutability": "view",
      "type": "function"
    },
    {
      "inputs": [],
      "name": "IPEA",
      "outputs": [
        {
          "internalType": "uint256",
          "name": "",
          "type": "uint256"
        }
      ],
      "stateMutability": "view",
      "type": "function"
    },
    {
      "inputs": [],
      "name": "Medicine_and_Surgery",
      "outputs": [
        {
          "internalType": "uint256",
          "name": "",
          "type": "uint256"
        }
      ],
      "stateMutability": "view",
      "type": "function"
    },
    {
      "inputs": [],
      "name": "Music",
      "outputs": [
        {
          "internalType": "uint256",
          "name": "",
          "type": "uint256"
        }
      ],
      "stateMutability": "view",
      "type": "function"
    },
    {
      "inputs": [],
      "name": "Nursing",
      "outputs": [
        {
          "internalType": "uint256",
          "name": "",
          "type": "uint256"
        }
      ],
      "stateMutability": "view",
      "type": "function"
    },
    {
      "inputs": [
        {
          "internalType": "address",
          "name": "account",
          "type": "address"
        },
        {
          "internalType": "uint256",
          "name": "id",
          "type": "uint256"
        }
      ],
      "name": "balanceOf",
      "outputs": [
        {
          "internalType": "uint256",
          "name": "",
          "type": "uint256"
        }
      ],
      "stateMutability": "view",
      "type": "function"
    },
    {
      "inputs": [
        {
          "internalType": "address[]",
          "name": "accounts",
          "type": "address[]"
        },
        {
          "internalType": "uint256[]",
          "name": "ids",
          "type": "uint256[]"
        }
      ],
      "name": "balanceOfBatch",
      "outputs": [
        {
          "internalType": "uint256[]",
          "name": "",
          "type": "uint256[]"
        }
      ],
      "stateMutability": "view",
      "type": "function"
    },
    {
      "inputs": [
        {
          "internalType": "address",
          "name": "account",
          "type": "address"
        },
        {
          "internalType": "uint256",
          "name": "id",
          "type": "uint256"
        },
        {
          "internalType": "uint256",
          "name": "amount",
          "type": "uint256"
        }
      ],
      "name": "burn",
      "outputs": [],
      "stateMutability": "nonpayable",
      "type": "function"
    },
    {
      "inputs": [
        {
          "internalType": "address",
          "name": "account",
          "type": "address"
        },
        {
          "internalType": "uint256",
          "name": "id",
          "type": "uint256"
        }
      ],
      "name": "checkNFTOwnership",
      "outputs": [
        {
          "internalType": "bool",
          "name": "",
          "type": "bool"
        }
      ],
      "stateMutability": "view",
      "type": "function"
    },
    {
      "inputs": [
        {
          "internalType": "address",
          "name": "account",
          "type": "address"
        }
      ],
      "name": "getOwnedNFT",
      "outputs": [
        {
          "internalType": "uint256",
          "name": "",
          "type": "uint256"
        }
      ],
      "stateMutability": "view",
      "type": "function"
    },
    {
      "inputs": [
        {
          "internalType": "address",
          "name": "",
          "type": "address"
        }
      ],
      "name": "hasMinted",
      "outputs": [
        {
          "internalType": "bool",
          "name": "",
          "type": "bool"
        }
      ],
      "stateMutability": "view",
      "type": "function"
    },
    {
      "inputs": [
        {
          "internalType": "address",
          "name": "account",
          "type": "address"
        },
        {
          "internalType": "address",
          "name": "operator",
          "type": "address"
        }
      ],
      "name": "isApprovedForAll",
      "outputs": [
        {
          "internalType": "bool",
          "name": "",
          "type": "bool"
        }
      ],
      "stateMutability": "view",
      "type": "function"
    },
    {
      "inputs": [
        {
          "internalType": "address",
          "name": "account",
          "type": "address"
        },
        {
          "internalType": "uint256",
          "name": "id",
          "type": "uint256"
        },
        {
          "internalType": "uint256",
          "name": "amount",
          "type": "uint256"
        },
        {
          "internalType": "bytes",
          "name": "data",
          "type": "bytes"
        }
      ],
      "name": "mint",
      "outputs": [],
      "stateMutability": "nonpayable",
      "type": "function"
    },
    {
      "inputs": [],
      "name": "name",
      "outputs": [
        {
          "internalType": "string",
          "name": "",
          "type": "string"
        }
      ],
      "stateMutability": "view",
      "type": "function"
    },
    {
      "inputs": [],
      "name": "owner",
      "outputs": [
        {
          "internalType": "address",
          "name": "",
          "type": "address"
        }
      ],
      "stateMutability": "view",
      "type": "function"
    },
    {
      "inputs": [],
      "name": "renounceOwnership",
      "outputs": [],
      "stateMutability": "nonpayable",
      "type": "function"
    },
    {
      "inputs": [
        {
          "internalType": "address",
          "name": "from",
          "type": "address"
        },
        {
          "internalType": "address",
          "name": "to",
          "type": "address"
        },
        {
          "internalType": "uint256[]",
          "name": "ids",
          "type": "uint256[]"
        },
        {
          "internalType": "uint256[]",
          "name": "amounts",
          "type": "uint256[]"
        },
        {
          "internalType": "bytes",
          "name": "data",
          "type": "bytes"
        }
      ],
      "name": "safeBatchTransferFrom",
      "outputs": [],
      "stateMutability": "nonpayable",
      "type": "function"
    },
    {
      "inputs": [
        {
          "internalType": "address",
          "name": "from",
          "type": "address"
        },
        {
          "internalType": "address",
          "name": "to",
          "type": "address"
        },
        {
          "internalType": "uint256",
          "name": "id",
          "type": "uint256"
        },
        {
          "internalType": "uint256",
          "name": "amount",
          "type": "uint256"
        },
        {
          "internalType": "bytes",
          "name": "data",
          "type": "bytes"
        }
      ],
      "name": "safeTransferFrom",
      "outputs": [],
      "stateMutability": "nonpayable",
      "type": "function"
    },
    {
      "inputs": [
        {
          "internalType": "address",
          "name": "operator",
          "type": "address"
        },
        {
          "internalType": "bool",
          "name": "approved",
          "type": "bool"
        }
      ],
      "name": "setApprovalForAll",
      "outputs": [],
      "stateMutability": "nonpayable",
      "type": "function"
    },
    {
      "inputs": [
        {
          "internalType": "bytes4",
          "name": "interfaceId",
          "type": "bytes4"
        }
      ],
      "name": "supportsInterface",
      "outputs": [
        {
          "internalType": "bool",
          "name": "",
          "type": "bool"
        }
      ],
      "stateMutability": "view",
      "type": "function"
    },
    {
      "inputs": [],
      "name": "test",
      "outputs": [
        {
          "internalType": "string",
          "name": "",
          "type": "string"
        }
      ],
      "stateMutability": "pure",
      "type": "function"
    },
    {
      "inputs": [
        {
          "internalType": "address",
          "name": "newOwner",
          "type": "address"
        }
      ],
      "name": "transferOwnership",
      "outputs": [],
      "stateMutability": "nonpayable",
      "type": "function"
    },
    {
      "inputs": [
        {
          "internalType": "uint256",
          "name": "",
          "type": "uint256"
        }
      ],
      "name": "uri",
      "outputs": [
        {
          "internalType": "string",
          "name": "",
          "type": "string"
        }
      ],
      "stateMutability": "view",
      "type": "function"
    }
  ],
  "bytecode": "0x60806040526040518060400160405280600a81526020017f424f544f6d6173696e6f00000000000000000000000000000000000000000000815250600490816200004a919062000408565b503480156200005857600080fd5b5060405180608001604052806051815260200162003d01605191396200008481620000ab60201b60201c565b50620000a562000099620000c060201b60201c565b620000c860201b60201c565b620004ef565b8060029081620000bc919062000408565b5050565b600033905090565b6000600360009054906101000a900473ffffffffffffffffffffffffffffffffffffffff16905081600360006101000a81548173ffffffffffffffffffffffffffffffffffffffff021916908373ffffffffffffffffffffffffffffffffffffffff1602179055508173ffffffffffffffffffffffffffffffffffffffff168173ffffffffffffffffffffffffffffffffffffffff167f8be0079c531659141344cd1fd0a4f28419497f9722a3daafe3b4186f6b6457e060405160405180910390a35050565b600081519050919050565b7f4e487b7100000000000000000000000000000000000000000000000000000000600052604160045260246000fd5b7f4e487b7100000000000000000000000000000000000000000000000000000000600052602260045260246000fd5b600060028204905060018216806200021057607f821691505b602082108103620002265762000225620001c8565b5b50919050565b60008190508160005260206000209050919050565b60006020601f8301049050919050565b600082821b905092915050565b600060088302620002907fffffffffffffffffffffffffffffffffffffffffffffffffffffffffffffffff8262000251565b6200029c868362000251565b95508019841693508086168417925050509392505050565b6000819050919050565b6000819050919050565b6000620002e9620002e3620002dd84620002b4565b620002be565b620002b4565b9050919050565b6000819050919050565b6200030583620002c8565b6200031d6200031482620002f0565b8484546200025e565b825550505050565b600090565b6200033462000325565b62000341818484620002fa565b505050565b5b8181101562000369576200035d6000826200032a565b60018101905062000347565b5050565b601f821115620003b85762000382816200022c565b6200038d8462000241565b810160208510156200039d578190505b620003b5620003ac8562000241565b83018262000346565b50505b505050565b600082821c905092915050565b6000620003dd60001984600802620003bd565b1980831691505092915050565b6000620003f88383620003ca565b9150826002028217905092915050565b62000413826200018e565b67ffffffffffffffff8111156200042f576200042e62000199565b5b6200043b8254620001f7565b620004488282856200036d565b600060209050601f8311600181146200048057600084156200046b578287015190505b620004778582620003ea565b865550620004e7565b601f19841662000490866200022c565b60005b82811015620004ba5784890151825560018201915060208501945060208101905062000493565b86831015620004da5784890151620004d6601f891682620003ca565b8355505b6001600288020188555050505b505050505050565b61380280620004ff6000396000f3fe608060405234801561001057600080fd5b50600436106102105760003560e01c8063731133e911610125578063e51e469e116100ad578063eac11c921161007c578063eac11c921461060f578063f242432a1461062d578063f2fde38b14610649578063f5298aca14610665578063f8a8fd6d1461068157610210565b8063e51e469e14610585578063e6aa96a5146105a3578063e985e9c5146105c1578063e9ceafb1146105f157610210565b80639d28e87e116100f45780639d28e87e146104f1578063a22cb4651461050f578063a9f82eb91461052b578063c07dc68714610549578063d945927c1461056757610210565b8063731133e91461047b5780637de8a081146104975780637e6ad752146104b55780638da5cb5b146104d357610210565b806338e21cce116101a85780634e1273f4116101775780634e1273f4146103e75780635414e613146104175780636dfd4ecc1461043557806370acb1b014610453578063715018a61461047157610210565b806338e21cce1461034b578063436a281a1461037b578063485e6489146103ab5780634d06e0af146103c957610210565b80630e89341c116101e45780630e89341c146102c357806310666185146102f357806316f14794146103115780632eb2c2d61461032f57610210565b8062fdd58e1461021557806301ffc9a71461024557806306fdde03146102755780630d10964114610293575b600080fd5b61022f600480360381019061022a91906121ed565b61069f565b60405161023c919061223c565b60405180910390f35b61025f600480360381019061025a91906122af565b610767565b60405161026c91906122f7565b60405180910390f35b61027d610849565b60405161028a91906123a2565b60405180910390f35b6102ad60048036038101906102a891906123c4565b6108d7565b6040516102ba919061223c565b60405180910390f35b6102dd60048036038101906102d891906123f1565b61091d565b6040516102ea91906123a2565b60405180910390f35b6102fb6109b1565b604051610308919061223c565b60405180910390f35b6103196109b6565b604051610326919061223c565b60405180910390f35b6103496004803603810190610344919061261b565b6109bb565b005b610365600480360381019061036091906123c4565b610a5c565b60405161037291906122f7565b60405180910390f35b610395600480360381019061039091906121ed565b610a7c565b6040516103a291906122f7565b60405180910390f35b6103b3610a98565b6040516103c0919061223c565b60405180910390f35b6103d1610a9d565b6040516103de919061223c565b60405180910390f35b61040160048036038101906103fc91906127ad565b610aa2565b60405161040e91906128e3565b60405180910390f35b61041f610bbb565b60405161042c919061223c565b60405180910390f35b61043d610bc0565b60405161044a919061223c565b60405180910390f35b61045b610bc5565b604051610468919061223c565b60405180910390f35b610479610bca565b005b61049560048036038101906104909190612905565b610bde565b005b61049f610d2c565b6040516104ac919061223c565b60405180910390f35b6104bd610d31565b6040516104ca919061223c565b60405180910390f35b6104db610d36565b6040516104e89190612997565b60405180910390f35b6104f9610d60565b604051610506919061223c565b60405180910390f35b610529600480360381019061052491906129de565b610d65565b005b610533610d7b565b604051610540919061223c565b60405180910390f35b610551610d80565b60405161055e919061223c565b60405180910390f35b61056f610d85565b60405161057c919061223c565b60405180910390f35b61058d610d8a565b60405161059a919061223c565b60405180910390f35b6105ab610d8f565b6040516105b8919061223c565b60405180910390f35b6105db60048036038101906105d69190612a1e565b610d94565b6040516105e891906122f7565b60405180910390f35b6105f9610e28565b604051610606919061223c565b60405180910390f35b610617610e2d565b604051610624919061223c565b60405180910390f35b61064760048036038101906106429190612a5e565b610e32565b005b610663600480360381019061065e91906123c4565b610ed3565b005b61067f600480360381019061067a9190612af5565b610f56565b005b610689610ff6565b60405161069691906123a2565b60405180910390f35b60008073ffffffffffffffffffffffffffffffffffffffff168373ffffffffffffffffffffffffffffffffffffffff160361070f576040517f08c379a000000000000000000000000000000000000000000000000000000000815260040161070690612bba565b60405180910390fd5b60008083815260200190815260200160002060008473ffffffffffffffffffffffffffffffffffffffff1673ffffffffffffffffffffffffffffffffffffffff16815260200190815260200160002054905092915050565b60007fd9b67a26000000000000000000000000000000000000000000000000000000007bffffffffffffffffffffffffffffffffffffffffffffffffffffffff1916827bffffffffffffffffffffffffffffffffffffffffffffffffffffffff1916148061083257507f0e89341c000000000000000000000000000000000000000000000000000000007bffffffffffffffffffffffffffffffffffffffffffffffffffffffff1916827bffffffffffffffffffffffffffffffffffffffffffffffffffffffff1916145b80610842575061084182611016565b5b9050919050565b6004805461085690612c09565b80601f016020809104026020016040519081016040528092919081815260200182805461088290612c09565b80156108cf5780601f106108a4576101008083540402835291602001916108cf565b820191906000526020600020905b8154815290600101906020018083116108b257829003601f168201915b505050505081565b600080600190505b60118111610912576108f18382610a7c565b156108ff5780915050610918565b808061090a90612c69565b9150506108df565b50600090505b919050565b60606002805461092c90612c09565b80601f016020809104026020016040519081016040528092919081815260200182805461095890612c09565b80156109a55780601f1061097a576101008083540402835291602001916109a5565b820191906000526020600020905b81548152906001019060200180831161098857829003601f168201915b50505050509050919050565b600b81565b600481565b6109c3611080565b73ffffffffffffffffffffffffffffffffffffffff168573ffffffffffffffffffffffffffffffffffffffff161480610a095750610a0885610a03611080565b610d94565b5b610a48576040517f08c379a0000000000000000000000000000000000000000000000000000000008152600401610a3f90612d23565b60405180910390fd5b610a558585858585611088565b5050505050565b60056020528060005260406000206000915054906101000a900460ff1681565b600080610a89848461069f565b90506000811191505092915050565b600c81565b600381565b60608151835114610ae8576040517f08c379a0000000000000000000000000000000000000000000000000000000008152600401610adf90612db5565b60405180910390fd5b6000835167ffffffffffffffff811115610b0557610b04612423565b5b604051908082528060200260200182016040528015610b335781602001602082028036833780820191505090505b50905060005b8451811015610bb057610b80858281518110610b5857610b57612dd5565b5b6020026020010151858381518110610b7357610b72612dd5565b5b602002602001015161069f565b828281518110610b9357610b92612dd5565b5b60200260200101818152505080610ba990612c69565b9050610b39565b508091505092915050565b600d81565b600581565b600881565b610bd26113a9565b610bdc6000611427565b565b60018310158015610bf0575060118311155b610c2f576040517f08c379a0000000000000000000000000000000000000000000000000000000008152600401610c2690612e50565b60405180910390fd5b60001515600560008673ffffffffffffffffffffffffffffffffffffffff1673ffffffffffffffffffffffffffffffffffffffff16815260200190815260200160002060009054906101000a900460ff16151514610cc2576040517f08c379a0000000000000000000000000000000000000000000000000000000008152600401610cb990612ebc565b60405180910390fd5b610cce848484846114ed565b6001600560008673ffffffffffffffffffffffffffffffffffffffff1673ffffffffffffffffffffffffffffffffffffffff16815260200190815260200160002060006101000a81548160ff02191690831515021790555050505050565b600281565b601081565b6000600360009054906101000a900473ffffffffffffffffffffffffffffffffffffffff16905090565b600181565b610d77610d70611080565b838361169d565b5050565b600a81565b600681565b600981565b600e81565b600f81565b6000600160008473ffffffffffffffffffffffffffffffffffffffff1673ffffffffffffffffffffffffffffffffffffffff16815260200190815260200160002060008373ffffffffffffffffffffffffffffffffffffffff1673ffffffffffffffffffffffffffffffffffffffff16815260200190815260200160002060009054906101000a900460ff16905092915050565b600781565b601181565b610e3a611080565b73ffffffffffffffffffffffffffffffffffffffff168573ffffffffffffffffffffffffffffffffffffffff161480610e805750610e7f85610e7a611080565b610d94565b5b610ebf576040517f08c379a0000000000000000000000000000000000000000000000000000000008152600401610eb690612d23565b60405180910390fd5b610ecc8585858585611809565b5050505050565b610edb6113a9565b600073ffffffffffffffffffffffffffffffffffffffff168173ffffffffffffffffffffffffffffffffffffffff1603610f4a576040517f08c379a0000000000000000000000000000000000000000000000000000000008152600401610f4190612f4e565b60405180910390fd5b610f5381611427565b50565b8273ffffffffffffffffffffffffffffffffffffffff163373ffffffffffffffffffffffffffffffffffffffff1614610f8e57600080fd5b610f99838383611aa4565b6000600560008573ffffffffffffffffffffffffffffffffffffffff1673ffffffffffffffffffffffffffffffffffffffff16815260200190815260200160002060006101000a81548160ff021916908315150217905550505050565b60606040518060600160405280602481526020016137a960249139905090565b60007f01ffc9a7000000000000000000000000000000000000000000000000000000007bffffffffffffffffffffffffffffffffffffffffffffffffffffffff1916827bffffffffffffffffffffffffffffffffffffffffffffffffffffffff1916149050919050565b600033905090565b81518351146110cc576040517f08c379a00000000000000000000000000000000000000000000000000000000081526004016110c390612fe0565b60405180910390fd5b600073ffffffffffffffffffffffffffffffffffffffff168473ffffffffffffffffffffffffffffffffffffffff160361113b576040517f08c379a000000000000000000000000000000000000000000000000000000000815260040161113290613072565b60405180910390fd5b6000611145611080565b9050611155818787878787611cea565b60005b845181101561130657600085828151811061117657611175612dd5565b5b60200260200101519050600085838151811061119557611194612dd5565b5b60200260200101519050600080600084815260200190815260200160002060008b73ffffffffffffffffffffffffffffffffffffffff1673ffffffffffffffffffffffffffffffffffffffff16815260200190815260200160002054905081811015611236576040517f08c379a000000000000000000000000000000000000000000000000000000000815260040161122d90613104565b60405180910390fd5b81810360008085815260200190815260200160002060008c73ffffffffffffffffffffffffffffffffffffffff1673ffffffffffffffffffffffffffffffffffffffff168152602001908152602001600020819055508160008085815260200190815260200160002060008b73ffffffffffffffffffffffffffffffffffffffff1673ffffffffffffffffffffffffffffffffffffffff16815260200190815260200160002060008282546112eb9190613124565b92505081905550505050806112ff90612c69565b9050611158565b508473ffffffffffffffffffffffffffffffffffffffff168673ffffffffffffffffffffffffffffffffffffffff168273ffffffffffffffffffffffffffffffffffffffff167f4a39dc06d4c0dbc64b70af90fd698a233a518aa5d07e595d983b8c0526c8f7fb878760405161137d929190613158565b60405180910390a4611393818787878787611cf2565b6113a1818787878787611cfa565b505050505050565b6113b1611080565b73ffffffffffffffffffffffffffffffffffffffff166113cf610d36565b73ffffffffffffffffffffffffffffffffffffffff1614611425576040517f08c379a000000000000000000000000000000000000000000000000000000000815260040161141c906131db565b60405180910390fd5b565b6000600360009054906101000a900473ffffffffffffffffffffffffffffffffffffffff16905081600360006101000a81548173ffffffffffffffffffffffffffffffffffffffff021916908373ffffffffffffffffffffffffffffffffffffffff1602179055508173ffffffffffffffffffffffffffffffffffffffff168173ffffffffffffffffffffffffffffffffffffffff167f8be0079c531659141344cd1fd0a4f28419497f9722a3daafe3b4186f6b6457e060405160405180910390a35050565b600073ffffffffffffffffffffffffffffffffffffffff168473ffffffffffffffffffffffffffffffffffffffff160361155c576040517f08c379a00000000000000000000000000000000000000000000000000000000081526004016115539061326d565b60405180910390fd5b6000611566611080565b9050600061157385611ed1565b9050600061158085611ed1565b905061159183600089858589611cea565b8460008088815260200190815260200160002060008973ffffffffffffffffffffffffffffffffffffffff1673ffffffffffffffffffffffffffffffffffffffff16815260200190815260200160002060008282546115f09190613124565b925050819055508673ffffffffffffffffffffffffffffffffffffffff16600073ffffffffffffffffffffffffffffffffffffffff168473ffffffffffffffffffffffffffffffffffffffff167fc3d58168c5ae7397731d063d5bbf3d657854427343f4c083240f7aacaa2d0f62898960405161166e92919061328d565b60405180910390a461168583600089858589611cf2565b61169483600089898989611f4b565b50505050505050565b8173ffffffffffffffffffffffffffffffffffffffff168373ffffffffffffffffffffffffffffffffffffffff160361170b576040517f08c379a000000000000000000000000000000000000000000000000000000000815260040161170290613328565b60405180910390fd5b80600160008573ffffffffffffffffffffffffffffffffffffffff1673ffffffffffffffffffffffffffffffffffffffff16815260200190815260200160002060008473ffffffffffffffffffffffffffffffffffffffff1673ffffffffffffffffffffffffffffffffffffffff16815260200190815260200160002060006101000a81548160ff0219169083151502179055508173ffffffffffffffffffffffffffffffffffffffff168373ffffffffffffffffffffffffffffffffffffffff167f17307eab39ab6107e8899845ad3d59bd9653f200f220920489ca2b5937696c31836040516117fc91906122f7565b60405180910390a3505050565b600073ffffffffffffffffffffffffffffffffffffffff168473ffffffffffffffffffffffffffffffffffffffff1603611878576040517f08c379a000000000000000000000000000000000000000000000000000000000815260040161186f90613072565b60405180910390fd5b6000611882611080565b9050600061188f85611ed1565b9050600061189c85611ed1565b90506118ac838989858589611cea565b600080600088815260200190815260200160002060008a73ffffffffffffffffffffffffffffffffffffffff1673ffffffffffffffffffffffffffffffffffffffff16815260200190815260200160002054905085811015611943576040517f08c379a000000000000000000000000000000000000000000000000000000000815260040161193a90613104565b60405180910390fd5b85810360008089815260200190815260200160002060008b73ffffffffffffffffffffffffffffffffffffffff1673ffffffffffffffffffffffffffffffffffffffff168152602001908152602001600020819055508560008089815260200190815260200160002060008a73ffffffffffffffffffffffffffffffffffffffff1673ffffffffffffffffffffffffffffffffffffffff16815260200190815260200160002060008282546119f89190613124565b925050819055508773ffffffffffffffffffffffffffffffffffffffff168973ffffffffffffffffffffffffffffffffffffffff168573ffffffffffffffffffffffffffffffffffffffff167fc3d58168c5ae7397731d063d5bbf3d657854427343f4c083240f7aacaa2d0f628a8a604051611a7592919061328d565b60405180910390a4611a8b848a8a86868a611cf2565b611a99848a8a8a8a8a611f4b565b505050505050505050565b600073ffffffffffffffffffffffffffffffffffffffff168373ffffffffffffffffffffffffffffffffffffffff1603611b13576040517f08c379a0000000000000000000000000000000000000000000000000000000008152600401611b0a906133ba565b60405180910390fd5b6000611b1d611080565b90506000611b2a84611ed1565b90506000611b3784611ed1565b9050611b5783876000858560405180602001604052806000815250611cea565b600080600087815260200190815260200160002060008873ffffffffffffffffffffffffffffffffffffffff1673ffffffffffffffffffffffffffffffffffffffff16815260200190815260200160002054905084811015611bee576040517f08c379a0000000000000000000000000000000000000000000000000000000008152600401611be59061344c565b60405180910390fd5b84810360008088815260200190815260200160002060008973ffffffffffffffffffffffffffffffffffffffff1673ffffffffffffffffffffffffffffffffffffffff16815260200190815260200160002081905550600073ffffffffffffffffffffffffffffffffffffffff168773ffffffffffffffffffffffffffffffffffffffff168573ffffffffffffffffffffffffffffffffffffffff167fc3d58168c5ae7397731d063d5bbf3d657854427343f4c083240f7aacaa2d0f628989604051611cbb92919061328d565b60405180910390a4611ce184886000868660405180602001604052806000815250611cf2565b50505050505050565b505050505050565b505050505050565b611d198473ffffffffffffffffffffffffffffffffffffffff16612122565b15611ec9578373ffffffffffffffffffffffffffffffffffffffff1663bc197c8187878686866040518663ffffffff1660e01b8152600401611d5f9594939291906134c1565b6020604051808303816000875af1925050508015611d9b57506040513d601f19601f82011682018060405250810190611d98919061353e565b60015b611e4057611da7613578565b806308c379a003611e035750611dbb61359a565b80611dc65750611e05565b806040517f08c379a0000000000000000000000000000000000000000000000000000000008152600401611dfa91906123a2565b60405180910390fd5b505b6040517f08c379a0000000000000000000000000000000000000000000000000000000008152600401611e379061369c565b60405180910390fd5b63bc197c8160e01b7bffffffffffffffffffffffffffffffffffffffffffffffffffffffff1916817bffffffffffffffffffffffffffffffffffffffffffffffffffffffff191614611ec7576040517f08c379a0000000000000000000000000000000000000000000000000000000008152600401611ebe9061372e565b60405180910390fd5b505b505050505050565b60606000600167ffffffffffffffff811115611ef057611eef612423565b5b604051908082528060200260200182016040528015611f1e5781602001602082028036833780820191505090505b5090508281600081518110611f3657611f35612dd5565b5b60200260200101818152505080915050919050565b611f6a8473ffffffffffffffffffffffffffffffffffffffff16612122565b1561211a578373ffffffffffffffffffffffffffffffffffffffff1663f23a6e6187878686866040518663ffffffff1660e01b8152600401611fb095949392919061374e565b6020604051808303816000875af1925050508015611fec57506040513d601f19601f82011682018060405250810190611fe9919061353e565b60015b61209157611ff8613578565b806308c379a003612054575061200c61359a565b806120175750612056565b806040517f08c379a000000000000000000000000000000000000000000000000000000000815260040161204b91906123a2565b60405180910390fd5b505b6040517f08c379a00000000000000000000000000000000000000000000000000000000081526004016120889061369c565b60405180910390fd5b63f23a6e6160e01b7bffffffffffffffffffffffffffffffffffffffffffffffffffffffff1916817bffffffffffffffffffffffffffffffffffffffffffffffffffffffff191614612118576040517f08c379a000000000000000000000000000000000000000000000000000000000815260040161210f9061372e565b60405180910390fd5b505b505050505050565b6000808273ffffffffffffffffffffffffffffffffffffffff163b119050919050565b6000604051905090565b600080fd5b600080fd5b600073ffffffffffffffffffffffffffffffffffffffff82169050919050565b600061218482612159565b9050919050565b61219481612179565b811461219f57600080fd5b50565b6000813590506121b18161218b565b92915050565b6000819050919050565b6121ca816121b7565b81146121d557600080fd5b50565b6000813590506121e7816121c1565b92915050565b600080604083850312156122045761220361214f565b5b6000612212858286016121a2565b9250506020612223858286016121d8565b9150509250929050565b612236816121b7565b82525050565b6000602082019050612251600083018461222d565b92915050565b60007fffffffff0000000000000000000000000000000000000000000000000000000082169050919050565b61228c81612257565b811461229757600080fd5b50565b6000813590506122a981612283565b92915050565b6000602082840312156122c5576122c461214f565b5b60006122d38482850161229a565b91505092915050565b60008115159050919050565b6122f1816122dc565b82525050565b600060208201905061230c60008301846122e8565b92915050565b600081519050919050565b600082825260208201905092915050565b60005b8381101561234c578082015181840152602081019050612331565b60008484015250505050565b6000601f19601f8301169050919050565b600061237482612312565b61237e818561231d565b935061238e81856020860161232e565b61239781612358565b840191505092915050565b600060208201905081810360008301526123bc8184612369565b905092915050565b6000602082840312156123da576123d961214f565b5b60006123e8848285016121a2565b91505092915050565b6000602082840312156124075761240661214f565b5b6000612415848285016121d8565b91505092915050565b600080fd5b7f4e487b7100000000000000000000000000000000000000000000000000000000600052604160045260246000fd5b61245b82612358565b810181811067ffffffffffffffff8211171561247a57612479612423565b5b80604052505050565b600061248d612145565b90506124998282612452565b919050565b600067ffffffffffffffff8211156124b9576124b8612423565b5b602082029050602081019050919050565b600080fd5b60006124e26124dd8461249e565b612483565b90508083825260208201905060208402830185811115612505576125046124ca565b5b835b8181101561252e578061251a88826121d8565b845260208401935050602081019050612507565b5050509392505050565b600082601f83011261254d5761254c61241e565b5b813561255d8482602086016124cf565b91505092915050565b600080fd5b600067ffffffffffffffff82111561258657612585612423565b5b61258f82612358565b9050602081019050919050565b82818337600083830152505050565b60006125be6125b98461256b565b612483565b9050828152602081018484840111156125da576125d9612566565b5b6125e584828561259c565b509392505050565b600082601f8301126126025761260161241e565b5b81356126128482602086016125ab565b91505092915050565b600080600080600060a086880312156126375761263661214f565b5b6000612645888289016121a2565b9550506020612656888289016121a2565b945050604086013567ffffffffffffffff81111561267757612676612154565b5b61268388828901612538565b935050606086013567ffffffffffffffff8111156126a4576126a3612154565b5b6126b088828901612538565b925050608086013567ffffffffffffffff8111156126d1576126d0612154565b5b6126dd888289016125ed565b9150509295509295909350565b600067ffffffffffffffff82111561270557612704612423565b5b602082029050602081019050919050565b6000612729612724846126ea565b612483565b9050808382526020820190506020840283018581111561274c5761274b6124ca565b5b835b81811015612775578061276188826121a2565b84526020840193505060208101905061274e565b5050509392505050565b600082601f8301126127945761279361241e565b5b81356127a4848260208601612716565b91505092915050565b600080604083850312156127c4576127c361214f565b5b600083013567ffffffffffffffff8111156127e2576127e1612154565b5b6127ee8582860161277f565b925050602083013567ffffffffffffffff81111561280f5761280e612154565b5b61281b85828601612538565b9150509250929050565b600081519050919050565b600082825260208201905092915050565b6000819050602082019050919050565b61285a816121b7565b82525050565b600061286c8383612851565b60208301905092915050565b6000602082019050919050565b600061289082612825565b61289a8185612830565b93506128a583612841565b8060005b838110156128d65781516128bd8882612860565b97506128c883612878565b9250506001810190506128a9565b5085935050505092915050565b600060208201905081810360008301526128fd8184612885565b905092915050565b6000806000806080858703121561291f5761291e61214f565b5b600061292d878288016121a2565b945050602061293e878288016121d8565b935050604061294f878288016121d8565b925050606085013567ffffffffffffffff8111156129705761296f612154565b5b61297c878288016125ed565b91505092959194509250565b61299181612179565b82525050565b60006020820190506129ac6000830184612988565b92915050565b6129bb816122dc565b81146129c657600080fd5b50565b6000813590506129d8816129b2565b92915050565b600080604083850312156129f5576129f461214f565b5b6000612a03858286016121a2565b9250506020612a14858286016129c9565b9150509250929050565b60008060408385031215612a3557612a3461214f565b5b6000612a43858286016121a2565b9250506020612a54858286016121a2565b9150509250929050565b600080600080600060a08688031215612a7a57612a7961214f565b5b6000612a88888289016121a2565b9550506020612a99888289016121a2565b9450506040612aaa888289016121d8565b9350506060612abb888289016121d8565b925050608086013567ffffffffffffffff811115612adc57612adb612154565b5b612ae8888289016125ed565b9150509295509295909350565b600080600060608486031215612b0e57612b0d61214f565b5b6000612b1c868287016121a2565b9350506020612b2d868287016121d8565b9250506040612b3e868287016121d8565b9150509250925092565b7f455243313135353a2061646472657373207a65726f206973206e6f742061207660008201527f616c6964206f776e657200000000000000000000000000000000000000000000602082015250565b6000612ba4602a8361231d565b9150612baf82612b48565b604082019050919050565b60006020820190508181036000830152612bd381612b97565b9050919050565b7f4e487b7100000000000000000000000000000000000000000000000000000000600052602260045260246000fd5b60006002820490506001821680612c2157607f821691505b602082108103612c3457612c33612bda565b5b50919050565b7f4e487b7100000000000000000000000000000000000000000000000000000000600052601160045260246000fd5b6000612c74826121b7565b91507fffffffffffffffffffffffffffffffffffffffffffffffffffffffffffffffff8203612ca657612ca5612c3a565b5b600182019050919050565b7f455243313135353a2063616c6c6572206973206e6f7420746f6b656e206f776e60008201527f6572206f7220617070726f766564000000000000000000000000000000000000602082015250565b6000612d0d602e8361231d565b9150612d1882612cb1565b604082019050919050565b60006020820190508181036000830152612d3c81612d00565b9050919050565b7f455243313135353a206163636f756e747320616e6420696473206c656e67746860008201527f206d69736d617463680000000000000000000000000000000000000000000000602082015250565b6000612d9f60298361231d565b9150612daa82612d43565b604082019050919050565b60006020820190508181036000830152612dce81612d92565b9050919050565b7f4e487b7100000000000000000000000000000000000000000000000000000000600052603260045260246000fd5b7f496e76616c696420636f6c6c6567652069642100000000000000000000000000600082015250565b6000612e3a60138361231d565b9150612e4582612e04565b602082019050919050565b60006020820190508181036000830152612e6981612e2d565b9050919050565b7f557365722068617320616c7265616479206d696e74656420616e204e46542100600082015250565b6000612ea6601f8361231d565b9150612eb182612e70565b602082019050919050565b60006020820190508181036000830152612ed581612e99565b9050919050565b7f4f776e61626c653a206e6577206f776e657220697320746865207a65726f206160008201527f6464726573730000000000000000000000000000000000000000000000000000602082015250565b6000612f3860268361231d565b9150612f4382612edc565b604082019050919050565b60006020820190508181036000830152612f6781612f2b565b9050919050565b7f455243313135353a2069647320616e6420616d6f756e7473206c656e6774682060008201527f6d69736d61746368000000000000000000000000000000000000000000000000602082015250565b6000612fca60288361231d565b9150612fd582612f6e565b604082019050919050565b60006020820190508181036000830152612ff981612fbd565b9050919050565b7f455243313135353a207472616e7366657220746f20746865207a65726f20616460008201527f6472657373000000000000000000000000000000000000000000000000000000602082015250565b600061305c60258361231d565b915061306782613000565b604082019050919050565b6000602082019050818103600083015261308b8161304f565b9050919050565b7f455243313135353a20696e73756666696369656e742062616c616e636520666f60008201527f72207472616e7366657200000000000000000000000000000000000000000000602082015250565b60006130ee602a8361231d565b91506130f982613092565b604082019050919050565b6000602082019050818103600083015261311d816130e1565b9050919050565b600061312f826121b7565b915061313a836121b7565b925082820190508082111561315257613151612c3a565b5b92915050565b600060408201905081810360008301526131728185612885565b905081810360208301526131868184612885565b90509392505050565b7f4f776e61626c653a2063616c6c6572206973206e6f7420746865206f776e6572600082015250565b60006131c560208361231d565b91506131d08261318f565b602082019050919050565b600060208201905081810360008301526131f4816131b8565b9050919050565b7f455243313135353a206d696e7420746f20746865207a65726f2061646472657360008201527f7300000000000000000000000000000000000000000000000000000000000000602082015250565b600061325760218361231d565b9150613262826131fb565b604082019050919050565b600060208201905081810360008301526132868161324a565b9050919050565b60006040820190506132a2600083018561222d565b6132af602083018461222d565b9392505050565b7f455243313135353a2073657474696e6720617070726f76616c2073746174757360008201527f20666f722073656c660000000000000000000000000000000000000000000000602082015250565b600061331260298361231d565b915061331d826132b6565b604082019050919050565b6000602082019050818103600083015261334181613305565b9050919050565b7f455243313135353a206275726e2066726f6d20746865207a65726f206164647260008201527f6573730000000000000000000000000000000000000000000000000000000000602082015250565b60006133a460238361231d565b91506133af82613348565b604082019050919050565b600060208201905081810360008301526133d381613397565b9050919050565b7f455243313135353a206275726e20616d6f756e7420657863656564732062616c60008201527f616e636500000000000000000000000000000000000000000000000000000000602082015250565b600061343660248361231d565b9150613441826133da565b604082019050919050565b6000602082019050818103600083015261346581613429565b9050919050565b600081519050919050565b600082825260208201905092915050565b60006134938261346c565b61349d8185613477565b93506134ad81856020860161232e565b6134b681612358565b840191505092915050565b600060a0820190506134d66000830188612988565b6134e36020830187612988565b81810360408301526134f58186612885565b905081810360608301526135098185612885565b9050818103608083015261351d8184613488565b90509695505050505050565b60008151905061353881612283565b92915050565b6000602082840312156135545761355361214f565b5b600061356284828501613529565b91505092915050565b60008160e01c9050919050565b600060033d11156135975760046000803e61359460005161356b565b90505b90565b600060443d10613627576135ac612145565b60043d036004823e80513d602482011167ffffffffffffffff821117156135d4575050613627565b808201805167ffffffffffffffff8111156135f25750505050613627565b80602083010160043d03850181111561360f575050505050613627565b61361e82602001850186612452565b82955050505050505b90565b7f455243313135353a207472616e7366657220746f206e6f6e2d4552433131353560008201527f526563656976657220696d706c656d656e746572000000000000000000000000602082015250565b600061368660348361231d565b91506136918261362a565b604082019050919050565b600060208201905081810360008301526136b581613679565b9050919050565b7f455243313135353a204552433131353552656365697665722072656a6563746560008201527f6420746f6b656e73000000000000000000000000000000000000000000000000602082015250565b600061371860288361231d565b9150613723826136bc565b604082019050919050565b600060208201905081810360008301526137478161370b565b9050919050565b600060a0820190506137636000830188612988565b6137706020830187612988565b61377d604083018661222d565b61378a606083018561222d565b818103608083015261379c8184613488565b9050969550505050505056fe436f6e6e656374656420746f20436f6c6c65676520736d61727420636f6e747261637421a264697066735822122053855859931d77f0fabe1a12e411a0ec01a79de8b169efcfc69cbdcbdd6b0a4d64736f6c6343000812003368747470733a2f2f6d792d6a736f6e2d7365727665722e74797069636f64652e636f6d2f636564726963717569746f722f626c6f636b636861696e2d7765622d6170702f636f6c6c656765732f7b69647d",
  "linkReferences": {},
  "deployedLinkReferences": {}
}