{
  "_format": "hh-sol-artifact-1",
  "contractName": "College",
  "sourceName": "contracts/College.sol",
  "abi": [
    {
      "inputs": [],
      "stateMutability": "nonpayable",
      "type": "constructor"
    },
    {
      "anonymous": false,
      "inputs": [
        {
          "indexed": true,
          "internalType": "address",
          "name": "account",
          "type": "address"
        },
        {
          "indexed": true,
          "internalType": "address",
          "name": "operator",
          "type": "address"
        },
        {
          "indexed": false,
          "internalType": "bool",
          "name": "approved",
          "type": "bool"
        }
      ],
      "name": "ApprovalForAll",
      "type": "event"
    },
    {
      "anonymous": false,
      "inputs": [
        {
          "indexed": true,
          "internalType": "address",
          "name": "previousOwner",
          "type": "address"
        },
        {
          "indexed": true,
          "internalType": "address",
          "name": "newOwner",
          "type": "address"
        }
      ],
      "name": "OwnershipTransferred",
      "type": "event"
    },
    {
      "anonymous": false,
      "inputs": [
        {
          "indexed": true,
          "internalType": "address",
          "name": "operator",
          "type": "address"
        },
        {
          "indexed": true,
          "internalType": "address",
          "name": "from",
          "type": "address"
        },
        {
          "indexed": true,
          "internalType": "address",
          "name": "to",
          "type": "address"
        },
        {
          "indexed": false,
          "internalType": "uint256[]",
          "name": "ids",
          "type": "uint256[]"
        },
        {
          "indexed": false,
          "internalType": "uint256[]",
          "name": "values",
          "type": "uint256[]"
        }
      ],
      "name": "TransferBatch",
      "type": "event"
    },
    {
      "anonymous": false,
      "inputs": [
        {
          "indexed": true,
          "internalType": "address",
          "name": "operator",
          "type": "address"
        },
        {
          "indexed": true,
          "internalType": "address",
          "name": "from",
          "type": "address"
        },
        {
          "indexed": true,
          "internalType": "address",
          "name": "to",
          "type": "address"
        },
        {
          "indexed": false,
          "internalType": "uint256",
          "name": "id",
          "type": "uint256"
        },
        {
          "indexed": false,
          "internalType": "uint256",
          "name": "value",
          "type": "uint256"
        }
      ],
      "name": "TransferSingle",
      "type": "event"
    },
    {
      "anonymous": false,
      "inputs": [
        {
          "indexed": false,
          "internalType": "string",
          "name": "value",
          "type": "string"
        },
        {
          "indexed": true,
          "internalType": "uint256",
          "name": "id",
          "type": "uint256"
        }
      ],
      "name": "URI",
      "type": "event"
    },
    {
      "inputs": [
        {
          "internalType": "string",
          "name": "_name",
          "type": "string"
        },
        {
          "internalType": "string",
          "name": "_program",
          "type": "string"
        },
        {
          "internalType": "string",
          "name": "_imageUrl",
          "type": "string"
        }
      ],
      "name": "addCandidate",
      "outputs": [],
      "stateMutability": "nonpayable",
      "type": "function"
    },
    {
      "inputs": [
        {
          "internalType": "address",
          "name": "account",
          "type": "address"
        },
        {
          "internalType": "uint256",
          "name": "id",
          "type": "uint256"
        }
      ],
      "name": "balanceOf",
      "outputs": [
        {
          "internalType": "uint256",
          "name": "",
          "type": "uint256"
        }
      ],
      "stateMutability": "view",
      "type": "function"
    },
    {
      "inputs": [
        {
          "internalType": "address[]",
          "name": "accounts",
          "type": "address[]"
        },
        {
          "internalType": "uint256[]",
          "name": "ids",
          "type": "uint256[]"
        }
      ],
      "name": "balanceOfBatch",
      "outputs": [
        {
          "internalType": "uint256[]",
          "name": "",
          "type": "uint256[]"
        }
      ],
      "stateMutability": "view",
      "type": "function"
    },
    {
      "inputs": [
        {
          "internalType": "address",
          "name": "account",
          "type": "address"
        },
        {
          "internalType": "uint256",
          "name": "id",
          "type": "uint256"
        },
        {
          "internalType": "uint256",
          "name": "amount",
          "type": "uint256"
        }
      ],
      "name": "burn",
      "outputs": [],
      "stateMutability": "nonpayable",
      "type": "function"
    },
    {
      "inputs": [
        {
          "internalType": "address",
          "name": "account",
          "type": "address"
        },
        {
          "internalType": "uint256",
          "name": "id",
          "type": "uint256"
        }
      ],
      "name": "checkNFTOwnership",
      "outputs": [
        {
          "internalType": "bool",
          "name": "",
          "type": "bool"
        }
      ],
      "stateMutability": "view",
      "type": "function"
    },
    {
      "inputs": [],
      "name": "endVoting",
      "outputs": [
        {
          "components": [
            {
              "internalType": "string",
              "name": "name",
              "type": "string"
            },
            {
              "internalType": "string",
              "name": "program",
              "type": "string"
            },
            {
              "internalType": "string",
              "name": "imageUrl",
              "type": "string"
            },
            {
              "internalType": "uint256",
              "name": "voteCount",
              "type": "uint256"
            }
          ],
          "internalType": "struct College.Candidate",
          "name": "",
          "type": "tuple"
        }
      ],
      "stateMutability": "nonpayable",
      "type": "function"
    },
    {
      "inputs": [],
      "name": "getAllCandidates",
      "outputs": [
        {
          "components": [
            {
              "internalType": "string",
              "name": "name",
              "type": "string"
            },
            {
              "internalType": "string",
              "name": "program",
              "type": "string"
            },
            {
              "internalType": "string",
              "name": "imageUrl",
              "type": "string"
            },
            {
              "internalType": "uint256",
              "name": "voteCount",
              "type": "uint256"
            }
          ],
          "internalType": "struct College.Candidate[]",
          "name": "",
          "type": "tuple[]"
        }
      ],
      "stateMutability": "view",
      "type": "function"
    },
    {
      "inputs": [
        {
          "internalType": "address",
          "name": "account",
          "type": "address"
        }
      ],
      "name": "getOwnedNFT",
      "outputs": [
        {
          "internalType": "uint256",
          "name": "",
          "type": "uint256"
        }
      ],
      "stateMutability": "view",
      "type": "function"
    },
    {
      "inputs": [
        {
          "internalType": "address",
          "name": "",
          "type": "address"
        }
      ],
      "name": "hasVoted",
      "outputs": [
        {
          "internalType": "bool",
          "name": "",
          "type": "bool"
        }
      ],
      "stateMutability": "view",
      "type": "function"
    },
    {
      "inputs": [
        {
          "internalType": "address",
          "name": "account",
          "type": "address"
        },
        {
          "internalType": "address",
          "name": "operator",
          "type": "address"
        }
      ],
      "name": "isApprovedForAll",
      "outputs": [
        {
          "internalType": "bool",
          "name": "",
          "type": "bool"
        }
      ],
      "stateMutability": "view",
      "type": "function"
    },
    {
      "inputs": [
        {
          "internalType": "address",
          "name": "account",
          "type": "address"
        },
        {
          "internalType": "uint256",
          "name": "id",
          "type": "uint256"
        },
        {
          "internalType": "uint256",
          "name": "amount",
          "type": "uint256"
        },
        {
          "internalType": "bytes",
          "name": "data",
          "type": "bytes"
        }
      ],
      "name": "mint",
      "outputs": [],
      "stateMutability": "nonpayable",
      "type": "function"
    },
    {
      "inputs": [],
      "name": "name",
      "outputs": [
        {
          "internalType": "string",
          "name": "",
          "type": "string"
        }
      ],
      "stateMutability": "view",
      "type": "function"
    },
    {
      "inputs": [],
      "name": "owner",
      "outputs": [
        {
          "internalType": "address",
          "name": "",
          "type": "address"
        }
      ],
      "stateMutability": "view",
      "type": "function"
    },
    {
      "inputs": [
        {
          "internalType": "uint256",
          "name": "_id",
          "type": "uint256"
        }
      ],
      "name": "removeCandidate",
      "outputs": [],
      "stateMutability": "nonpayable",
      "type": "function"
    },
    {
      "inputs": [],
      "name": "renounceOwnership",
      "outputs": [],
      "stateMutability": "nonpayable",
      "type": "function"
    },
    {
      "inputs": [],
      "name": "resetVoting",
      "outputs": [],
      "stateMutability": "nonpayable",
      "type": "function"
    },
    {
      "inputs": [
        {
          "internalType": "address",
          "name": "from",
          "type": "address"
        },
        {
          "internalType": "address",
          "name": "to",
          "type": "address"
        },
        {
          "internalType": "uint256[]",
          "name": "ids",
          "type": "uint256[]"
        },
        {
          "internalType": "uint256[]",
          "name": "amounts",
          "type": "uint256[]"
        },
        {
          "internalType": "bytes",
          "name": "data",
          "type": "bytes"
        }
      ],
      "name": "safeBatchTransferFrom",
      "outputs": [],
      "stateMutability": "nonpayable",
      "type": "function"
    },
    {
      "inputs": [
        {
          "internalType": "address",
          "name": "from",
          "type": "address"
        },
        {
          "internalType": "address",
          "name": "to",
          "type": "address"
        },
        {
          "internalType": "uint256",
          "name": "id",
          "type": "uint256"
        },
        {
          "internalType": "uint256",
          "name": "amount",
          "type": "uint256"
        },
        {
          "internalType": "bytes",
          "name": "data",
          "type": "bytes"
        }
      ],
      "name": "safeTransferFrom",
      "outputs": [],
      "stateMutability": "nonpayable",
      "type": "function"
    },
    {
      "inputs": [
        {
          "internalType": "address",
          "name": "operator",
          "type": "address"
        },
        {
          "internalType": "bool",
          "name": "approved",
          "type": "bool"
        }
      ],
      "name": "setApprovalForAll",
      "outputs": [],
      "stateMutability": "nonpayable",
      "type": "function"
    },
    {
      "inputs": [
        {
          "internalType": "bytes4",
          "name": "interfaceId",
          "type": "bytes4"
        }
      ],
      "name": "supportsInterface",
      "outputs": [
        {
          "internalType": "bool",
          "name": "",
          "type": "bool"
        }
      ],
      "stateMutability": "view",
      "type": "function"
    },
    {
      "inputs": [],
      "name": "test",
      "outputs": [
        {
          "internalType": "string",
          "name": "",
          "type": "string"
        }
      ],
      "stateMutability": "pure",
      "type": "function"
    },
    {
      "inputs": [
        {
          "internalType": "address",
          "name": "newOwner",
          "type": "address"
        }
      ],
      "name": "transferOwnership",
      "outputs": [],
      "stateMutability": "nonpayable",
      "type": "function"
    },
    {
      "inputs": [
        {
          "internalType": "uint256",
          "name": "",
          "type": "uint256"
        }
      ],
      "name": "uri",
      "outputs": [
        {
          "internalType": "string",
          "name": "",
          "type": "string"
        }
      ],
      "stateMutability": "view",
      "type": "function"
    },
    {
      "inputs": [
        {
          "internalType": "uint256",
          "name": "_id",
          "type": "uint256"
        }
      ],
      "name": "voteCandidate",
      "outputs": [],
      "stateMutability": "nonpayable",
      "type": "function"
    }
  ],
  "bytecode": "0x60806040526040518060400160405280600a81526020017f424f544f6d6173696e6f00000000000000000000000000000000000000000000815250600490816200004a91906200040d565b5060006007553480156200005d57600080fd5b506040518060800160405280605181526020016200559e605191396200008981620000b060201b60201c565b50620000aa6200009e620000c560201b60201c565b620000cd60201b60201c565b620004f4565b8060029081620000c191906200040d565b5050565b600033905090565b6000600360009054906101000a900473ffffffffffffffffffffffffffffffffffffffff16905081600360006101000a81548173ffffffffffffffffffffffffffffffffffffffff021916908373ffffffffffffffffffffffffffffffffffffffff1602179055508173ffffffffffffffffffffffffffffffffffffffff168173ffffffffffffffffffffffffffffffffffffffff167f8be0079c531659141344cd1fd0a4f28419497f9722a3daafe3b4186f6b6457e060405160405180910390a35050565b600081519050919050565b7f4e487b7100000000000000000000000000000000000000000000000000000000600052604160045260246000fd5b7f4e487b7100000000000000000000000000000000000000000000000000000000600052602260045260246000fd5b600060028204905060018216806200021557607f821691505b6020821081036200022b576200022a620001cd565b5b50919050565b60008190508160005260206000209050919050565b60006020601f8301049050919050565b600082821b905092915050565b600060088302620002957fffffffffffffffffffffffffffffffffffffffffffffffffffffffffffffffff8262000256565b620002a1868362000256565b95508019841693508086168417925050509392505050565b6000819050919050565b6000819050919050565b6000620002ee620002e8620002e284620002b9565b620002c3565b620002b9565b9050919050565b6000819050919050565b6200030a83620002cd565b620003226200031982620002f5565b84845462000263565b825550505050565b600090565b620003396200032a565b62000346818484620002ff565b505050565b5b818110156200036e57620003626000826200032f565b6001810190506200034c565b5050565b601f821115620003bd57620003878162000231565b620003928462000246565b81016020851015620003a2578190505b620003ba620003b18562000246565b8301826200034b565b50505b505050565b600082821c905092915050565b6000620003e260001984600802620003c2565b1980831691505092915050565b6000620003fd8383620003cf565b9150826002028217905092915050565b620004188262000193565b67ffffffffffffffff8111156200043457620004336200019e565b5b620004408254620001fc565b6200044d82828562000372565b600060209050601f83116001811462000485576000841562000470578287015190505b6200047c8582620003ef565b865550620004ec565b601f198416620004958662000231565b60005b82811015620004bf5784890151825560018201915060208501945060208101905062000498565b86831015620004df5784890151620004db601f891682620003cf565b8355505b6001600288020188555050505b505050505050565b61509a80620005046000396000f3fe608060405234801561001057600080fd5b50600436106101575760003560e01c8063731133e9116100c3578063c3403ddf1161007c578063c3403ddf146103c2578063e985e9c5146103e0578063f242432a14610410578063f2fde38b1461042c578063f5298aca14610448578063f8a8fd6d1461046457610157565b8063731133e91461032a578063856e698c146103465780638c08a4dc146103505780638da5cb5b1461036c578063a22cb4651461038a578063ad71f8dc146103a657610157565b80630e89341c116101155780630e89341c146102565780632e6997fe146102865780632eb2c2d6146102a4578063436a281a146102c05780634e1273f4146102f0578063715018a61461032057610157565b8062fdd58e1461015c57806301ffc9a71461018c57806306fdde03146101bc57806309e9d7e2146101da57806309eef43e146101f65780630d10964114610226575b600080fd5b61017660048036038101906101719190612ece565b610482565b6040516101839190612f1d565b60405180910390f35b6101a660048036038101906101a19190612f90565b61054a565b6040516101b39190612fd8565b60405180910390f35b6101c461062c565b6040516101d19190613083565b60405180910390f35b6101f460048036038101906101ef91906130a5565b6106ba565b005b610210600480360381019061020b91906130d2565b610899565b60405161021d9190612fd8565b60405180910390f35b610240600480360381019061023b91906130d2565b6108b9565b60405161024d9190612f1d565b60405180910390f35b610270600480360381019061026b91906130a5565b6108ff565b60405161027d9190613083565b60405180910390f35b61028e610993565b60405161029b919061328b565b60405180910390f35b6102be60048036038101906102b991906134aa565b610c22565b005b6102da60048036038101906102d59190612ece565b610cc3565b6040516102e79190612fd8565b60405180910390f35b61030a6004803603810190610305919061363c565b610cdf565b6040516103179190613763565b60405180910390f35b610328610df8565b005b610344600480360381019061033f9190613785565b610e0c565b005b61034e610f5a565b005b61036a600480360381019061036591906130a5565b61110a565b005b61037461135e565b6040516103819190613817565b60405180910390f35b6103a4600480360381019061039f919061385e565b611388565b005b6103c060048036038101906103bb919061393f565b61139e565b005b6103ca6114b6565b6040516103d79190613a57565b60405180910390f35b6103fa60048036038101906103f59190613a79565b6119d9565b6040516104079190612fd8565b60405180910390f35b61042a60048036038101906104259190613ab9565b611a6d565b005b610446600480360381019061044191906130d2565b611b0e565b005b610462600480360381019061045d9190613b50565b611b91565b005b61046c611c31565b6040516104799190613083565b60405180910390f35b60008073ffffffffffffffffffffffffffffffffffffffff168373ffffffffffffffffffffffffffffffffffffffff16036104f2576040517f08c379a00000000000000000000000000000000000000000000000000000000081526004016104e990613c15565b60405180910390fd5b60008083815260200190815260200160002060008473ffffffffffffffffffffffffffffffffffffffff1673ffffffffffffffffffffffffffffffffffffffff16815260200190815260200160002054905092915050565b60007fd9b67a26000000000000000000000000000000000000000000000000000000007bffffffffffffffffffffffffffffffffffffffffffffffffffffffff1916827bffffffffffffffffffffffffffffffffffffffffffffffffffffffff1916148061061557507f0e89341c000000000000000000000000000000000000000000000000000000007bffffffffffffffffffffffffffffffffffffffffffffffffffffffff1916827bffffffffffffffffffffffffffffffffffffffffffffffffffffffff1916145b80610625575061062482611c51565b5b9050919050565b6004805461063990613c64565b80601f016020809104026020016040519081016040528092919081815260200182805461066590613c64565b80156106b25780601f10610687576101008083540402835291602001916106b2565b820191906000526020600020905b81548152906001019060200180831161069557829003601f168201915b505050505081565b6106c261135e565b73ffffffffffffffffffffffffffffffffffffffff163373ffffffffffffffffffffffffffffffffffffffff161461072f576040517f08c379a000000000000000000000000000000000000000000000000000000000815260040161072690613d07565b60405180910390fd5b60008111801561074157506007548111155b610780576040517f08c379a000000000000000000000000000000000000000000000000000000000815260040161077790613d73565b60405180910390fd5b60008190505b60075481101561082157600660006001836107a19190613dc2565b815260200190815260200160002060066000838152602001908152602001600020600082018160000190816107d69190613fb8565b50600182018160010190816107eb9190613fb8565b50600282018160020190816108009190613fb8565b50600382015481600301559050508080610819906140a0565b915050610786565b5060076000815480929190610835906140e8565b919050555060066000600160075461084d9190613dc2565b81526020019081526020016000206000808201600061086c9190612d80565b60018201600061087c9190612d80565b60028201600061088c9190612d80565b6003820160009055505050565b60086020528060005260406000206000915054906101000a900460ff1681565b600080600190505b601181116108f4576108d38382610cc3565b156108e157809150506108fa565b80806108ec906140a0565b9150506108c1565b50600090505b919050565b60606002805461090e90613c64565b80601f016020809104026020016040519081016040528092919081815260200182805461093a90613c64565b80156109875780601f1061095c57610100808354040283529160200191610987565b820191906000526020600020905b81548152906001019060200180831161096a57829003601f168201915b50505050509050919050565b6060600060075467ffffffffffffffff8111156109b3576109b26132b2565b5b6040519080825280602002602001820160405280156109ec57816020015b6109d9612dc0565b8152602001906001900390816109d15790505b5090506000600190505b6007548111610c1a5760066000828152602001908152602001600020604051806080016040529081600082018054610a2d90613c64565b80601f0160208091040260200160405190810160405280929190818152602001828054610a5990613c64565b8015610aa65780601f10610a7b57610100808354040283529160200191610aa6565b820191906000526020600020905b815481529060010190602001808311610a8957829003601f168201915b50505050508152602001600182018054610abf90613c64565b80601f0160208091040260200160405190810160405280929190818152602001828054610aeb90613c64565b8015610b385780601f10610b0d57610100808354040283529160200191610b38565b820191906000526020600020905b815481529060010190602001808311610b1b57829003601f168201915b50505050508152602001600282018054610b5190613c64565b80601f0160208091040260200160405190810160405280929190818152602001828054610b7d90613c64565b8015610bca5780601f10610b9f57610100808354040283529160200191610bca565b820191906000526020600020905b815481529060010190602001808311610bad57829003601f168201915b5050505050815260200160038201548152505082600183610beb9190614111565b81518110610bfc57610bfb614145565b5b60200260200101819052508080610c12906140a0565b9150506109f6565b508091505090565b610c2a611cbb565b73ffffffffffffffffffffffffffffffffffffffff168573ffffffffffffffffffffffffffffffffffffffff161480610c705750610c6f85610c6a611cbb565b6119d9565b5b610caf576040517f08c379a0000000000000000000000000000000000000000000000000000000008152600401610ca6906141e6565b60405180910390fd5b610cbc8585858585611cc3565b5050505050565b600080610cd08484610482565b90506000811191505092915050565b60608151835114610d25576040517f08c379a0000000000000000000000000000000000000000000000000000000008152600401610d1c90614278565b60405180910390fd5b6000835167ffffffffffffffff811115610d4257610d416132b2565b5b604051908082528060200260200182016040528015610d705781602001602082028036833780820191505090505b50905060005b8451811015610ded57610dbd858281518110610d9557610d94614145565b5b6020026020010151858381518110610db057610daf614145565b5b6020026020010151610482565b828281518110610dd057610dcf614145565b5b60200260200101818152505080610de6906140a0565b9050610d76565b508091505092915050565b610e00611fe4565b610e0a6000612062565b565b60018310158015610e1e575060118311155b610e5d576040517f08c379a0000000000000000000000000000000000000000000000000000000008152600401610e54906142e4565b60405180910390fd5b60001515600560008673ffffffffffffffffffffffffffffffffffffffff1673ffffffffffffffffffffffffffffffffffffffff16815260200190815260200160002060009054906101000a900460ff16151514610ef0576040517f08c379a0000000000000000000000000000000000000000000000000000000008152600401610ee790614350565b60405180910390fd5b610efc84848484612128565b6001600560008673ffffffffffffffffffffffffffffffffffffffff1673ffffffffffffffffffffffffffffffffffffffff16815260200190815260200160002060006101000a81548160ff02191690831515021790555050505050565b610f6261135e565b73ffffffffffffffffffffffffffffffffffffffff163373ffffffffffffffffffffffffffffffffffffffff1614610fcf576040517f08c379a0000000000000000000000000000000000000000000000000000000008152600401610fc6906143e2565b60405180910390fd5b6000600190505b60075481116110405760066000828152602001908152602001600020600080820160006110039190612d80565b6001820160006110139190612d80565b6002820160006110239190612d80565b600382016000905550508080611038906140a0565b915050610fd6565b50600060078190555060005b6009805490508110156110f957600860006009838154811061107157611070614145565b5b9060005260206000200160009054906101000a900473ffffffffffffffffffffffffffffffffffffffff1673ffffffffffffffffffffffffffffffffffffffff1673ffffffffffffffffffffffffffffffffffffffff16815260200190815260200160002060006101000a81549060ff021916905580806110f1906140a0565b91505061104c565b50600960006111089190612de8565b565b600860003373ffffffffffffffffffffffffffffffffffffffff1673ffffffffffffffffffffffffffffffffffffffff16815260200190815260200160002060009054906101000a900460ff1615611197576040517f08c379a000000000000000000000000000000000000000000000000000000000815260040161118e9061444e565b60405180910390fd5b600560003373ffffffffffffffffffffffffffffffffffffffff1673ffffffffffffffffffffffffffffffffffffffff16815260200190815260200160002060009054906101000a900460ff16611223576040517f08c379a000000000000000000000000000000000000000000000000000000000815260040161121a906144ba565b60405180910390fd5b60008111801561123557506007548111155b611274576040517f08c379a000000000000000000000000000000000000000000000000000000000815260040161126b90613d73565b60405180910390fd5b60066000828152602001908152602001600020600301600081548092919061129b906140a0565b91905055506001600860003373ffffffffffffffffffffffffffffffffffffffff1673ffffffffffffffffffffffffffffffffffffffff16815260200190815260200160002060006101000a81548160ff0219169083151502179055506009339080600181540180825580915050600190039060005260206000200160009091909190916101000a81548173ffffffffffffffffffffffffffffffffffffffff021916908373ffffffffffffffffffffffffffffffffffffffff16021790555050565b6000600360009054906101000a900473ffffffffffffffffffffffffffffffffffffffff16905090565b61139a611393611cbb565b83836122d8565b5050565b6113a661135e565b73ffffffffffffffffffffffffffffffffffffffff163373ffffffffffffffffffffffffffffffffffffffff1614611413576040517f08c379a000000000000000000000000000000000000000000000000000000000815260040161140a9061454c565b60405180910390fd5b60076000815480929190611426906140a0565b9190505550604051806080016040528084815260200183815260200182815260200160008152506006600060075481526020019081526020016000206000820151816000019081611477919061456c565b50602082015181600101908161148d919061456c565b5060408201518160020190816114a3919061456c565b5060608201518160030155905050505050565b6114be612dc0565b6114c661135e565b73ffffffffffffffffffffffffffffffffffffffff163373ffffffffffffffffffffffffffffffffffffffff1614611533576040517f08c379a000000000000000000000000000000000000000000000000000000000815260040161152a906146b0565b60405180910390fd5b600060075411611578576040517f08c379a000000000000000000000000000000000000000000000000000000000815260040161156f9061471c565b60405180910390fd5b6000600980549050116115c0576040517f08c379a00000000000000000000000000000000000000000000000000000000081526004016115b790614788565b60405180910390fd5b600060066000600181526020019081526020016000206040518060800160405290816000820180546115f190613c64565b80601f016020809104026020016040519081016040528092919081815260200182805461161d90613c64565b801561166a5780601f1061163f5761010080835404028352916020019161166a565b820191906000526020600020905b81548152906001019060200180831161164d57829003601f168201915b5050505050815260200160018201805461168390613c64565b80601f01602080910402602001604051908101604052809291908181526020018280546116af90613c64565b80156116fc5780601f106116d1576101008083540402835291602001916116fc565b820191906000526020600020905b8154815290600101906020018083116116df57829003601f168201915b5050505050815260200160028201805461171590613c64565b80601f016020809104026020016040519081016040528092919081815260200182805461174190613c64565b801561178e5780601f106117635761010080835404028352916020019161178e565b820191906000526020600020905b81548152906001019060200180831161177157829003601f168201915b5050505050815260200160038201548152505090506000600290505b60075481116119c9578160600151600660008381526020019081526020016000206003015411156119b6576006600082815260200190815260200160002060405180608001604052908160008201805461180390613c64565b80601f016020809104026020016040519081016040528092919081815260200182805461182f90613c64565b801561187c5780601f106118515761010080835404028352916020019161187c565b820191906000526020600020905b81548152906001019060200180831161185f57829003601f168201915b5050505050815260200160018201805461189590613c64565b80601f01602080910402602001604051908101604052809291908181526020018280546118c190613c64565b801561190e5780601f106118e35761010080835404028352916020019161190e565b820191906000526020600020905b8154815290600101906020018083116118f157829003601f168201915b5050505050815260200160028201805461192790613c64565b80601f016020809104026020016040519081016040528092919081815260200182805461195390613c64565b80156119a05780601f10611975576101008083540402835291602001916119a0565b820191906000526020600020905b81548152906001019060200180831161198357829003601f168201915b5050505050815260200160038201548152505091505b80806119c1906140a0565b9150506117aa565b506119d2610f5a565b8091505090565b6000600160008473ffffffffffffffffffffffffffffffffffffffff1673ffffffffffffffffffffffffffffffffffffffff16815260200190815260200160002060008373ffffffffffffffffffffffffffffffffffffffff1673ffffffffffffffffffffffffffffffffffffffff16815260200190815260200160002060009054906101000a900460ff16905092915050565b611a75611cbb565b73ffffffffffffffffffffffffffffffffffffffff168573ffffffffffffffffffffffffffffffffffffffff161480611abb5750611aba85611ab5611cbb565b6119d9565b5b611afa576040517f08c379a0000000000000000000000000000000000000000000000000000000008152600401611af1906141e6565b60405180910390fd5b611b078585858585612444565b5050505050565b611b16611fe4565b600073ffffffffffffffffffffffffffffffffffffffff168173ffffffffffffffffffffffffffffffffffffffff1603611b85576040517f08c379a0000000000000000000000000000000000000000000000000000000008152600401611b7c9061481a565b60405180910390fd5b611b8e81612062565b50565b8273ffffffffffffffffffffffffffffffffffffffff163373ffffffffffffffffffffffffffffffffffffffff1614611bc957600080fd5b611bd48383836126df565b6000600560008573ffffffffffffffffffffffffffffffffffffffff1673ffffffffffffffffffffffffffffffffffffffff16815260200190815260200160002060006101000a81548160ff021916908315150217905550505050565b606060405180606001604052806024815260200161504160249139905090565b60007f01ffc9a7000000000000000000000000000000000000000000000000000000007bffffffffffffffffffffffffffffffffffffffffffffffffffffffff1916827bffffffffffffffffffffffffffffffffffffffffffffffffffffffff1916149050919050565b600033905090565b8151835114611d07576040517f08c379a0000000000000000000000000000000000000000000000000000000008152600401611cfe906148ac565b60405180910390fd5b600073ffffffffffffffffffffffffffffffffffffffff168473ffffffffffffffffffffffffffffffffffffffff1603611d76576040517f08c379a0000000000000000000000000000000000000000000000000000000008152600401611d6d9061493e565b60405180910390fd5b6000611d80611cbb565b9050611d90818787878787612925565b60005b8451811015611f41576000858281518110611db157611db0614145565b5b602002602001015190506000858381518110611dd057611dcf614145565b5b60200260200101519050600080600084815260200190815260200160002060008b73ffffffffffffffffffffffffffffffffffffffff1673ffffffffffffffffffffffffffffffffffffffff16815260200190815260200160002054905081811015611e71576040517f08c379a0000000000000000000000000000000000000000000000000000000008152600401611e68906149d0565b60405180910390fd5b81810360008085815260200190815260200160002060008c73ffffffffffffffffffffffffffffffffffffffff1673ffffffffffffffffffffffffffffffffffffffff168152602001908152602001600020819055508160008085815260200190815260200160002060008b73ffffffffffffffffffffffffffffffffffffffff1673ffffffffffffffffffffffffffffffffffffffff1681526020019081526020016000206000828254611f269190613dc2565b9250508190555050505080611f3a906140a0565b9050611d93565b508473ffffffffffffffffffffffffffffffffffffffff168673ffffffffffffffffffffffffffffffffffffffff168273ffffffffffffffffffffffffffffffffffffffff167f4a39dc06d4c0dbc64b70af90fd698a233a518aa5d07e595d983b8c0526c8f7fb8787604051611fb89291906149f0565b60405180910390a4611fce81878787878761292d565b611fdc818787878787612935565b505050505050565b611fec611cbb565b73ffffffffffffffffffffffffffffffffffffffff1661200a61135e565b73ffffffffffffffffffffffffffffffffffffffff1614612060576040517f08c379a000000000000000000000000000000000000000000000000000000000815260040161205790614a73565b60405180910390fd5b565b6000600360009054906101000a900473ffffffffffffffffffffffffffffffffffffffff16905081600360006101000a81548173ffffffffffffffffffffffffffffffffffffffff021916908373ffffffffffffffffffffffffffffffffffffffff1602179055508173ffffffffffffffffffffffffffffffffffffffff168173ffffffffffffffffffffffffffffffffffffffff167f8be0079c531659141344cd1fd0a4f28419497f9722a3daafe3b4186f6b6457e060405160405180910390a35050565b600073ffffffffffffffffffffffffffffffffffffffff168473ffffffffffffffffffffffffffffffffffffffff1603612197576040517f08c379a000000000000000000000000000000000000000000000000000000000815260040161218e90614b05565b60405180910390fd5b60006121a1611cbb565b905060006121ae85612b0c565b905060006121bb85612b0c565b90506121cc83600089858589612925565b8460008088815260200190815260200160002060008973ffffffffffffffffffffffffffffffffffffffff1673ffffffffffffffffffffffffffffffffffffffff168152602001908152602001600020600082825461222b9190613dc2565b925050819055508673ffffffffffffffffffffffffffffffffffffffff16600073ffffffffffffffffffffffffffffffffffffffff168473ffffffffffffffffffffffffffffffffffffffff167fc3d58168c5ae7397731d063d5bbf3d657854427343f4c083240f7aacaa2d0f6289896040516122a9929190614b25565b60405180910390a46122c08360008985858961292d565b6122cf83600089898989612b86565b50505050505050565b8173ffffffffffffffffffffffffffffffffffffffff168373ffffffffffffffffffffffffffffffffffffffff1603612346576040517f08c379a000000000000000000000000000000000000000000000000000000000815260040161233d90614bc0565b60405180910390fd5b80600160008573ffffffffffffffffffffffffffffffffffffffff1673ffffffffffffffffffffffffffffffffffffffff16815260200190815260200160002060008473ffffffffffffffffffffffffffffffffffffffff1673ffffffffffffffffffffffffffffffffffffffff16815260200190815260200160002060006101000a81548160ff0219169083151502179055508173ffffffffffffffffffffffffffffffffffffffff168373ffffffffffffffffffffffffffffffffffffffff167f17307eab39ab6107e8899845ad3d59bd9653f200f220920489ca2b5937696c31836040516124379190612fd8565b60405180910390a3505050565b600073ffffffffffffffffffffffffffffffffffffffff168473ffffffffffffffffffffffffffffffffffffffff16036124b3576040517f08c379a00000000000000000000000000000000000000000000000000000000081526004016124aa9061493e565b60405180910390fd5b60006124bd611cbb565b905060006124ca85612b0c565b905060006124d785612b0c565b90506124e7838989858589612925565b600080600088815260200190815260200160002060008a73ffffffffffffffffffffffffffffffffffffffff1673ffffffffffffffffffffffffffffffffffffffff1681526020019081526020016000205490508581101561257e576040517f08c379a0000000000000000000000000000000000000000000000000000000008152600401612575906149d0565b60405180910390fd5b85810360008089815260200190815260200160002060008b73ffffffffffffffffffffffffffffffffffffffff1673ffffffffffffffffffffffffffffffffffffffff168152602001908152602001600020819055508560008089815260200190815260200160002060008a73ffffffffffffffffffffffffffffffffffffffff1673ffffffffffffffffffffffffffffffffffffffff16815260200190815260200160002060008282546126339190613dc2565b925050819055508773ffffffffffffffffffffffffffffffffffffffff168973ffffffffffffffffffffffffffffffffffffffff168573ffffffffffffffffffffffffffffffffffffffff167fc3d58168c5ae7397731d063d5bbf3d657854427343f4c083240f7aacaa2d0f628a8a6040516126b0929190614b25565b60405180910390a46126c6848a8a86868a61292d565b6126d4848a8a8a8a8a612b86565b505050505050505050565b600073ffffffffffffffffffffffffffffffffffffffff168373ffffffffffffffffffffffffffffffffffffffff160361274e576040517f08c379a000000000000000000000000000000000000000000000000000000000815260040161274590614c52565b60405180910390fd5b6000612758611cbb565b9050600061276584612b0c565b9050600061277284612b0c565b905061279283876000858560405180602001604052806000815250612925565b600080600087815260200190815260200160002060008873ffffffffffffffffffffffffffffffffffffffff1673ffffffffffffffffffffffffffffffffffffffff16815260200190815260200160002054905084811015612829576040517f08c379a000000000000000000000000000000000000000000000000000000000815260040161282090614ce4565b60405180910390fd5b84810360008088815260200190815260200160002060008973ffffffffffffffffffffffffffffffffffffffff1673ffffffffffffffffffffffffffffffffffffffff16815260200190815260200160002081905550600073ffffffffffffffffffffffffffffffffffffffff168773ffffffffffffffffffffffffffffffffffffffff168573ffffffffffffffffffffffffffffffffffffffff167fc3d58168c5ae7397731d063d5bbf3d657854427343f4c083240f7aacaa2d0f6289896040516128f6929190614b25565b60405180910390a461291c8488600086866040518060200160405280600081525061292d565b50505050505050565b505050505050565b505050505050565b6129548473ffffffffffffffffffffffffffffffffffffffff16612d5d565b15612b04578373ffffffffffffffffffffffffffffffffffffffff1663bc197c8187878686866040518663ffffffff1660e01b815260040161299a959493929190614d59565b6020604051808303816000875af19250505080156129d657506040513d601f19601f820116820180604052508101906129d39190614dd6565b60015b612a7b576129e2614e10565b806308c379a003612a3e57506129f6614e32565b80612a015750612a40565b806040517f08c379a0000000000000000000000000000000000000000000000000000000008152600401612a359190613083565b60405180910390fd5b505b6040517f08c379a0000000000000000000000000000000000000000000000000000000008152600401612a7290614f34565b60405180910390fd5b63bc197c8160e01b7bffffffffffffffffffffffffffffffffffffffffffffffffffffffff1916817bffffffffffffffffffffffffffffffffffffffffffffffffffffffff191614612b02576040517f08c379a0000000000000000000000000000000000000000000000000000000008152600401612af990614fc6565b60405180910390fd5b505b505050505050565b60606000600167ffffffffffffffff811115612b2b57612b2a6132b2565b5b604051908082528060200260200182016040528015612b595781602001602082028036833780820191505090505b5090508281600081518110612b7157612b70614145565b5b60200260200101818152505080915050919050565b612ba58473ffffffffffffffffffffffffffffffffffffffff16612d5d565b15612d55578373ffffffffffffffffffffffffffffffffffffffff1663f23a6e6187878686866040518663ffffffff1660e01b8152600401612beb959493929190614fe6565b6020604051808303816000875af1925050508015612c2757506040513d601f19601f82011682018060405250810190612c249190614dd6565b60015b612ccc57612c33614e10565b806308c379a003612c8f5750612c47614e32565b80612c525750612c91565b806040517f08c379a0000000000000000000000000000000000000000000000000000000008152600401612c869190613083565b60405180910390fd5b505b6040517f08c379a0000000000000000000000000000000000000000000000000000000008152600401612cc390614f34565b60405180910390fd5b63f23a6e6160e01b7bffffffffffffffffffffffffffffffffffffffffffffffffffffffff1916817bffffffffffffffffffffffffffffffffffffffffffffffffffffffff191614612d53576040517f08c379a0000000000000000000000000000000000000000000000000000000008152600401612d4a90614fc6565b60405180910390fd5b505b505050505050565b6000808273ffffffffffffffffffffffffffffffffffffffff163b119050919050565b508054612d8c90613c64565b6000825580601f10612d9e5750612dbd565b601f016020900490600052602060002090810190612dbc9190612e09565b5b50565b6040518060800160405280606081526020016060815260200160608152602001600081525090565b5080546000825590600052602060002090810190612e069190612e09565b50565b5b80821115612e22576000816000905550600101612e0a565b5090565b6000604051905090565b600080fd5b600080fd5b600073ffffffffffffffffffffffffffffffffffffffff82169050919050565b6000612e6582612e3a565b9050919050565b612e7581612e5a565b8114612e8057600080fd5b50565b600081359050612e9281612e6c565b92915050565b6000819050919050565b612eab81612e98565b8114612eb657600080fd5b50565b600081359050612ec881612ea2565b92915050565b60008060408385031215612ee557612ee4612e30565b5b6000612ef385828601612e83565b9250506020612f0485828601612eb9565b9150509250929050565b612f1781612e98565b82525050565b6000602082019050612f326000830184612f0e565b92915050565b60007fffffffff0000000000000000000000000000000000000000000000000000000082169050919050565b612f6d81612f38565b8114612f7857600080fd5b50565b600081359050612f8a81612f64565b92915050565b600060208284031215612fa657612fa5612e30565b5b6000612fb484828501612f7b565b91505092915050565b60008115159050919050565b612fd281612fbd565b82525050565b6000602082019050612fed6000830184612fc9565b92915050565b600081519050919050565b600082825260208201905092915050565b60005b8381101561302d578082015181840152602081019050613012565b60008484015250505050565b6000601f19601f8301169050919050565b600061305582612ff3565b61305f8185612ffe565b935061306f81856020860161300f565b61307881613039565b840191505092915050565b6000602082019050818103600083015261309d818461304a565b905092915050565b6000602082840312156130bb576130ba612e30565b5b60006130c984828501612eb9565b91505092915050565b6000602082840312156130e8576130e7612e30565b5b60006130f684828501612e83565b91505092915050565b600081519050919050565b600082825260208201905092915050565b6000819050602082019050919050565b600082825260208201905092915050565b600061314782612ff3565b613151818561312b565b935061316181856020860161300f565b61316a81613039565b840191505092915050565b61317e81612e98565b82525050565b600060808301600083015184820360008601526131a1828261313c565b915050602083015184820360208601526131bb828261313c565b915050604083015184820360408601526131d5828261313c565b91505060608301516131ea6060860182613175565b508091505092915050565b60006132018383613184565b905092915050565b6000602082019050919050565b6000613221826130ff565b61322b818561310a565b93508360208202850161323d8561311b565b8060005b85811015613279578484038952815161325a85826131f5565b945061326583613209565b925060208a01995050600181019050613241565b50829750879550505050505092915050565b600060208201905081810360008301526132a58184613216565b905092915050565b600080fd5b7f4e487b7100000000000000000000000000000000000000000000000000000000600052604160045260246000fd5b6132ea82613039565b810181811067ffffffffffffffff82111715613309576133086132b2565b5b80604052505050565b600061331c612e26565b905061332882826132e1565b919050565b600067ffffffffffffffff821115613348576133476132b2565b5b602082029050602081019050919050565b600080fd5b600061337161336c8461332d565b613312565b9050808382526020820190506020840283018581111561339457613393613359565b5b835b818110156133bd57806133a98882612eb9565b845260208401935050602081019050613396565b5050509392505050565b600082601f8301126133dc576133db6132ad565b5b81356133ec84826020860161335e565b91505092915050565b600080fd5b600067ffffffffffffffff821115613415576134146132b2565b5b61341e82613039565b9050602081019050919050565b82818337600083830152505050565b600061344d613448846133fa565b613312565b905082815260208101848484011115613469576134686133f5565b5b61347484828561342b565b509392505050565b600082601f830112613491576134906132ad565b5b81356134a184826020860161343a565b91505092915050565b600080600080600060a086880312156134c6576134c5612e30565b5b60006134d488828901612e83565b95505060206134e588828901612e83565b945050604086013567ffffffffffffffff81111561350657613505612e35565b5b613512888289016133c7565b935050606086013567ffffffffffffffff81111561353357613532612e35565b5b61353f888289016133c7565b925050608086013567ffffffffffffffff8111156135605761355f612e35565b5b61356c8882890161347c565b9150509295509295909350565b600067ffffffffffffffff821115613594576135936132b2565b5b602082029050602081019050919050565b60006135b86135b384613579565b613312565b905080838252602082019050602084028301858111156135db576135da613359565b5b835b8181101561360457806135f08882612e83565b8452602084019350506020810190506135dd565b5050509392505050565b600082601f830112613623576136226132ad565b5b81356136338482602086016135a5565b91505092915050565b6000806040838503121561365357613652612e30565b5b600083013567ffffffffffffffff81111561367157613670612e35565b5b61367d8582860161360e565b925050602083013567ffffffffffffffff81111561369e5761369d612e35565b5b6136aa858286016133c7565b9150509250929050565b600081519050919050565b600082825260208201905092915050565b6000819050602082019050919050565b60006136ec8383613175565b60208301905092915050565b6000602082019050919050565b6000613710826136b4565b61371a81856136bf565b9350613725836136d0565b8060005b8381101561375657815161373d88826136e0565b9750613748836136f8565b925050600181019050613729565b5085935050505092915050565b6000602082019050818103600083015261377d8184613705565b905092915050565b6000806000806080858703121561379f5761379e612e30565b5b60006137ad87828801612e83565b94505060206137be87828801612eb9565b93505060406137cf87828801612eb9565b925050606085013567ffffffffffffffff8111156137f0576137ef612e35565b5b6137fc8782880161347c565b91505092959194509250565b61381181612e5a565b82525050565b600060208201905061382c6000830184613808565b92915050565b61383b81612fbd565b811461384657600080fd5b50565b60008135905061385881613832565b92915050565b6000806040838503121561387557613874612e30565b5b600061388385828601612e83565b925050602061389485828601613849565b9150509250929050565b600067ffffffffffffffff8211156138b9576138b86132b2565b5b6138c282613039565b9050602081019050919050565b60006138e26138dd8461389e565b613312565b9050828152602081018484840111156138fe576138fd6133f5565b5b61390984828561342b565b509392505050565b600082601f830112613926576139256132ad565b5b81356139368482602086016138cf565b91505092915050565b60008060006060848603121561395857613957612e30565b5b600084013567ffffffffffffffff81111561397657613975612e35565b5b61398286828701613911565b935050602084013567ffffffffffffffff8111156139a3576139a2612e35565b5b6139af86828701613911565b925050604084013567ffffffffffffffff8111156139d0576139cf612e35565b5b6139dc86828701613911565b9150509250925092565b60006080830160008301518482036000860152613a03828261313c565b91505060208301518482036020860152613a1d828261313c565b91505060408301518482036040860152613a37828261313c565b9150506060830151613a4c6060860182613175565b508091505092915050565b60006020820190508181036000830152613a7181846139e6565b905092915050565b60008060408385031215613a9057613a8f612e30565b5b6000613a9e85828601612e83565b9250506020613aaf85828601612e83565b9150509250929050565b600080600080600060a08688031215613ad557613ad4612e30565b5b6000613ae388828901612e83565b9550506020613af488828901612e83565b9450506040613b0588828901612eb9565b9350506060613b1688828901612eb9565b925050608086013567ffffffffffffffff811115613b3757613b36612e35565b5b613b438882890161347c565b9150509295509295909350565b600080600060608486031215613b6957613b68612e30565b5b6000613b7786828701612e83565b9350506020613b8886828701612eb9565b9250506040613b9986828701612eb9565b9150509250925092565b7f455243313135353a2061646472657373207a65726f206973206e6f742061207660008201527f616c6964206f776e657200000000000000000000000000000000000000000000602082015250565b6000613bff602a83612ffe565b9150613c0a82613ba3565b604082019050919050565b60006020820190508181036000830152613c2e81613bf2565b9050919050565b7f4e487b7100000000000000000000000000000000000000000000000000000000600052602260045260246000fd5b60006002820490506001821680613c7c57607f821691505b602082108103613c8f57613c8e613c35565b5b50919050565b7f4f6e6c792074686520636f6e7472616374206f776e65722063616e2072656d6f60008201527f76652063616e6469646174657321000000000000000000000000000000000000602082015250565b6000613cf1602e83612ffe565b9150613cfc82613c95565b604082019050919050565b60006020820190508181036000830152613d2081613ce4565b9050919050565b7f496e76616c69642063616e646964617465204944210000000000000000000000600082015250565b6000613d5d601583612ffe565b9150613d6882613d27565b602082019050919050565b60006020820190508181036000830152613d8c81613d50565b9050919050565b7f4e487b7100000000000000000000000000000000000000000000000000000000600052601160045260246000fd5b6000613dcd82612e98565b9150613dd883612e98565b9250828201905080821115613df057613def613d93565b5b92915050565b600081549050613e0581613c64565b9050919050565b60008190508160005260206000209050919050565b60006020601f8301049050919050565b600082821b905092915050565b600060088302613e6e7fffffffffffffffffffffffffffffffffffffffffffffffffffffffffffffffff82613e31565b613e788683613e31565b95508019841693508086168417925050509392505050565b6000819050919050565b6000613eb5613eb0613eab84612e98565b613e90565b612e98565b9050919050565b6000819050919050565b613ecf83613e9a565b613ee3613edb82613ebc565b848454613e3e565b825550505050565b600090565b613ef8613eeb565b613f03818484613ec6565b505050565b5b81811015613f2757613f1c600082613ef0565b600181019050613f09565b5050565b601f821115613f6c57613f3d81613e0c565b613f4684613e21565b81016020851015613f55578190505b613f69613f6185613e21565b830182613f08565b50505b505050565b600082821c905092915050565b6000613f8f60001984600802613f71565b1980831691505092915050565b6000613fa88383613f7e565b9150826002028217905092915050565b818103613fc657505061409e565b613fcf82613df6565b67ffffffffffffffff811115613fe857613fe76132b2565b5b613ff28254613c64565b613ffd828285613f2b565b6000601f83116001811461402c576000841561401a578287015490505b6140248582613f9c565b865550614097565b601f19841661403a87613e0c565b965061404586613e0c565b60005b8281101561406d57848901548255600182019150600185019450602081019050614048565b8683101561408a5784890154614086601f891682613f7e565b8355505b6001600288020188555050505b5050505050505b565b60006140ab82612e98565b91507fffffffffffffffffffffffffffffffffffffffffffffffffffffffffffffffff82036140dd576140dc613d93565b5b600182019050919050565b60006140f382612e98565b91506000820361410657614105613d93565b5b600182039050919050565b600061411c82612e98565b915061412783612e98565b925082820390508181111561413f5761413e613d93565b5b92915050565b7f4e487b7100000000000000000000000000000000000000000000000000000000600052603260045260246000fd5b7f455243313135353a2063616c6c6572206973206e6f7420746f6b656e206f776e60008201527f6572206f7220617070726f766564000000000000000000000000000000000000602082015250565b60006141d0602e83612ffe565b91506141db82614174565b604082019050919050565b600060208201905081810360008301526141ff816141c3565b9050919050565b7f455243313135353a206163636f756e747320616e6420696473206c656e67746860008201527f206d69736d617463680000000000000000000000000000000000000000000000602082015250565b6000614262602983612ffe565b915061426d82614206565b604082019050919050565b6000602082019050818103600083015261429181614255565b9050919050565b7f496e76616c696420636f6c6c6567652069642100000000000000000000000000600082015250565b60006142ce601383612ffe565b91506142d982614298565b602082019050919050565b600060208201905081810360008301526142fd816142c1565b9050919050565b7f596f7527766520616c7265616479206d696e74656420616e204e465421000000600082015250565b600061433a601d83612ffe565b915061434582614304565b602082019050919050565b600060208201905081810360008301526143698161432d565b9050919050565b7f4f6e6c792074686520636f6e7472616374206f776e65722063616e207265736560008201527f742074686520636f6e7472616374210000000000000000000000000000000000602082015250565b60006143cc602f83612ffe565b91506143d782614370565b604082019050919050565b600060208201905081810360008301526143fb816143bf565b9050919050565b7f596f7527766520616c726561647920766f746564210000000000000000000000600082015250565b6000614438601583612ffe565b915061444382614402565b602082019050919050565b600060208201905081810360008301526144678161442b565b9050919050565b7f596f75206d757374206861766520616e204e465420746f20766f746521000000600082015250565b60006144a4601d83612ffe565b91506144af8261446e565b602082019050919050565b600060208201905081810360008301526144d381614497565b9050919050565b7f4f6e6c792074686520636f6e7472616374206f776e65722063616e206164642060008201527f63616e6469646174657321000000000000000000000000000000000000000000602082015250565b6000614536602b83612ffe565b9150614541826144da565b604082019050919050565b6000602082019050818103600083015261456581614529565b9050919050565b61457582612ff3565b67ffffffffffffffff81111561458e5761458d6132b2565b5b6145988254613c64565b6145a3828285613f2b565b600060209050601f8311600181146145d657600084156145c4578287015190505b6145ce8582613f9c565b865550614636565b601f1984166145e486613e0c565b60005b8281101561460c578489015182556001820191506020850194506020810190506145e7565b868310156146295784890151614625601f891682613f7e565b8355505b6001600288020188555050505b505050505050565b7f4f6e6c792074686520636f6e7472616374206f776e65722063616e20656e642060008201527f74686520766f74696e6721000000000000000000000000000000000000000000602082015250565b600061469a602b83612ffe565b91506146a58261463e565b604082019050919050565b600060208201905081810360008301526146c98161468d565b9050919050565b7f546865726520617265206e6f2063616e64696461746573210000000000000000600082015250565b6000614706601883612ffe565b9150614711826146d0565b602082019050919050565b60006020820190508181036000830152614735816146f9565b9050919050565b7f4e6f206f6e652068617320766f74656420796574210000000000000000000000600082015250565b6000614772601583612ffe565b915061477d8261473c565b602082019050919050565b600060208201905081810360008301526147a181614765565b9050919050565b7f4f776e61626c653a206e6577206f776e657220697320746865207a65726f206160008201527f6464726573730000000000000000000000000000000000000000000000000000602082015250565b6000614804602683612ffe565b915061480f826147a8565b604082019050919050565b60006020820190508181036000830152614833816147f7565b9050919050565b7f455243313135353a2069647320616e6420616d6f756e7473206c656e6774682060008201527f6d69736d61746368000000000000000000000000000000000000000000000000602082015250565b6000614896602883612ffe565b91506148a18261483a565b604082019050919050565b600060208201905081810360008301526148c581614889565b9050919050565b7f455243313135353a207472616e7366657220746f20746865207a65726f20616460008201527f6472657373000000000000000000000000000000000000000000000000000000602082015250565b6000614928602583612ffe565b9150614933826148cc565b604082019050919050565b600060208201905081810360008301526149578161491b565b9050919050565b7f455243313135353a20696e73756666696369656e742062616c616e636520666f60008201527f72207472616e7366657200000000000000000000000000000000000000000000602082015250565b60006149ba602a83612ffe565b91506149c58261495e565b604082019050919050565b600060208201905081810360008301526149e9816149ad565b9050919050565b60006040820190508181036000830152614a0a8185613705565b90508181036020830152614a1e8184613705565b90509392505050565b7f4f776e61626c653a2063616c6c6572206973206e6f7420746865206f776e6572600082015250565b6000614a5d602083612ffe565b9150614a6882614a27565b602082019050919050565b60006020820190508181036000830152614a8c81614a50565b9050919050565b7f455243313135353a206d696e7420746f20746865207a65726f2061646472657360008201527f7300000000000000000000000000000000000000000000000000000000000000602082015250565b6000614aef602183612ffe565b9150614afa82614a93565b604082019050919050565b60006020820190508181036000830152614b1e81614ae2565b9050919050565b6000604082019050614b3a6000830185612f0e565b614b476020830184612f0e565b9392505050565b7f455243313135353a2073657474696e6720617070726f76616c2073746174757360008201527f20666f722073656c660000000000000000000000000000000000000000000000602082015250565b6000614baa602983612ffe565b9150614bb582614b4e565b604082019050919050565b60006020820190508181036000830152614bd981614b9d565b9050919050565b7f455243313135353a206275726e2066726f6d20746865207a65726f206164647260008201527f6573730000000000000000000000000000000000000000000000000000000000602082015250565b6000614c3c602383612ffe565b9150614c4782614be0565b604082019050919050565b60006020820190508181036000830152614c6b81614c2f565b9050919050565b7f455243313135353a206275726e20616d6f756e7420657863656564732062616c60008201527f616e636500000000000000000000000000000000000000000000000000000000602082015250565b6000614cce602483612ffe565b9150614cd982614c72565b604082019050919050565b60006020820190508181036000830152614cfd81614cc1565b9050919050565b600081519050919050565b600082825260208201905092915050565b6000614d2b82614d04565b614d358185614d0f565b9350614d4581856020860161300f565b614d4e81613039565b840191505092915050565b600060a082019050614d6e6000830188613808565b614d7b6020830187613808565b8181036040830152614d8d8186613705565b90508181036060830152614da18185613705565b90508181036080830152614db58184614d20565b90509695505050505050565b600081519050614dd081612f64565b92915050565b600060208284031215614dec57614deb612e30565b5b6000614dfa84828501614dc1565b91505092915050565b60008160e01c9050919050565b600060033d1115614e2f5760046000803e614e2c600051614e03565b90505b90565b600060443d10614ebf57614e44612e26565b60043d036004823e80513d602482011167ffffffffffffffff82111715614e6c575050614ebf565b808201805167ffffffffffffffff811115614e8a5750505050614ebf565b80602083010160043d038501811115614ea7575050505050614ebf565b614eb6826020018501866132e1565b82955050505050505b90565b7f455243313135353a207472616e7366657220746f206e6f6e2d4552433131353560008201527f526563656976657220696d706c656d656e746572000000000000000000000000602082015250565b6000614f1e603483612ffe565b9150614f2982614ec2565b604082019050919050565b60006020820190508181036000830152614f4d81614f11565b9050919050565b7f455243313135353a204552433131353552656365697665722072656a6563746560008201527f6420746f6b656e73000000000000000000000000000000000000000000000000602082015250565b6000614fb0602883612ffe565b9150614fbb82614f54565b604082019050919050565b60006020820190508181036000830152614fdf81614fa3565b9050919050565b600060a082019050614ffb6000830188613808565b6150086020830187613808565b6150156040830186612f0e565b6150226060830185612f0e565b81810360808301526150348184614d20565b9050969550505050505056fe436f6e6e656374656420746f20436f6c6c65676520736d61727420636f6e747261637421a26469706673582212202b6137936c0f4327ba683f13f82f02cf9199199d366a230175626c11ffa67a6964736f6c6343000812003368747470733a2f2f6d792d6a736f6e2d7365727665722e74797069636f64652e636f6d2f636564726963717569746f722f626c6f636b636861696e2d7765622d6170702f636f6c6c656765732f7b69647d",
  "linkReferences": {},
  "deployedLinkReferences": {}
}